{
  "address": "0x080e01843C4b77B9a390B1dC312B7D729885015C",
  "abi": [
    {
      "inputs": [
        {
          "internalType": "address payable",
          "name": "_fetchAddress",
          "type": "address"
        }
      ],
      "stateMutability": "nonpayable",
      "type": "constructor"
    },
    {
      "inputs": [],
      "name": "PriceOutdated",
      "type": "error"
    },
    {
      "inputs": [],
      "name": "ZeroValue",
      "type": "error"
    },
    {
      "inputs": [],
      "name": "fetch",
      "outputs": [
        {
          "internalType": "contract IFetch",
          "name": "",
          "type": "address"
        }
      ],
      "stateMutability": "view",
      "type": "function"
    },
    {
      "inputs": [
        {
          "internalType": "bytes32",
          "name": "_queryId",
          "type": "bytes32"
        },
        {
          "internalType": "uint256",
          "name": "_timestamp",
          "type": "uint256"
        }
      ],
      "name": "getDataAfter",
      "outputs": [
        {
          "internalType": "bytes",
          "name": "_value",
          "type": "bytes"
        },
        {
          "internalType": "uint256",
          "name": "_timestampRetrieved",
          "type": "uint256"
        }
      ],
      "stateMutability": "view",
      "type": "function"
    },
    {
      "inputs": [
        {
          "internalType": "bytes32",
          "name": "_queryId",
          "type": "bytes32"
        },
        {
          "internalType": "uint256",
          "name": "_timestamp",
          "type": "uint256"
        }
      ],
      "name": "getDataBefore",
      "outputs": [
        {
          "internalType": "bytes",
          "name": "_value",
          "type": "bytes"
        },
        {
          "internalType": "uint256",
          "name": "_timestampRetrieved",
          "type": "uint256"
        }
      ],
      "stateMutability": "view",
      "type": "function"
    },
    {
      "inputs": [
        {
          "internalType": "bytes32",
          "name": "_queryId",
          "type": "bytes32"
        },
        {
          "internalType": "uint256",
          "name": "_timestamp",
          "type": "uint256"
        }
      ],
      "name": "getIndexForDataAfter",
      "outputs": [
        {
          "internalType": "bool",
          "name": "_found",
          "type": "bool"
        },
        {
          "internalType": "uint256",
          "name": "_index",
          "type": "uint256"
        }
      ],
      "stateMutability": "view",
      "type": "function"
    },
    {
      "inputs": [
        {
          "internalType": "bytes32",
          "name": "_queryId",
          "type": "bytes32"
        },
        {
          "internalType": "uint256",
          "name": "_timestamp",
          "type": "uint256"
        }
      ],
      "name": "getIndexForDataBefore",
      "outputs": [
        {
          "internalType": "bool",
          "name": "_found",
          "type": "bool"
        },
        {
          "internalType": "uint256",
          "name": "_index",
          "type": "uint256"
        }
      ],
      "stateMutability": "view",
      "type": "function"
    },
    {
      "inputs": [
        {
          "internalType": "bytes32",
          "name": "_queryId",
          "type": "bytes32"
        },
        {
          "internalType": "uint256",
          "name": "_timestamp",
          "type": "uint256"
        },
        {
          "internalType": "uint256",
          "name": "_maxAge",
          "type": "uint256"
        },
        {
          "internalType": "uint256",
          "name": "_maxCount",
          "type": "uint256"
        }
      ],
      "name": "getMultipleValuesBefore",
      "outputs": [
        {
          "internalType": "bytes[]",
          "name": "_values",
          "type": "bytes[]"
        },
        {
          "internalType": "uint256[]",
          "name": "_timestamps",
          "type": "uint256[]"
        }
      ],
      "stateMutability": "view",
      "type": "function"
    },
    {
      "inputs": [
        {
          "internalType": "bytes32",
          "name": "_queryId",
          "type": "bytes32"
        }
      ],
      "name": "getNewValueCountbyQueryId",
      "outputs": [
        {
          "internalType": "uint256",
          "name": "",
          "type": "uint256"
        }
      ],
      "stateMutability": "view",
      "type": "function"
    },
    {
      "inputs": [
        {
          "internalType": "bytes32",
          "name": "_queryId",
          "type": "bytes32"
        },
        {
          "internalType": "uint256",
          "name": "_timestamp",
          "type": "uint256"
        }
      ],
      "name": "getReporterByTimestamp",
      "outputs": [
        {
          "internalType": "address",
          "name": "",
          "type": "address"
        }
      ],
      "stateMutability": "view",
      "type": "function"
    },
    {
      "inputs": [
        {
          "internalType": "bytes32",
          "name": "_queryId",
          "type": "bytes32"
        },
        {
          "internalType": "uint256",
          "name": "_index",
          "type": "uint256"
        }
      ],
      "name": "getTimestampbyQueryIdandIndex",
      "outputs": [
        {
          "internalType": "uint256",
          "name": "",
          "type": "uint256"
        }
      ],
      "stateMutability": "view",
      "type": "function"
    },
    {
      "inputs": [],
      "name": "idMappingContract",
      "outputs": [
        {
          "internalType": "contract IMappingContract",
          "name": "",
          "type": "address"
        }
      ],
      "stateMutability": "view",
      "type": "function"
    },
    {
      "inputs": [
        {
          "internalType": "bytes32",
          "name": "_queryId",
          "type": "bytes32"
        },
        {
          "internalType": "uint256",
          "name": "_timestamp",
          "type": "uint256"
        }
      ],
      "name": "isInDispute",
      "outputs": [
        {
          "internalType": "bool",
          "name": "",
          "type": "bool"
        }
      ],
      "stateMutability": "view",
      "type": "function"
    },
    {
      "inputs": [],
      "name": "latestAnswer",
      "outputs": [
        {
          "internalType": "int256",
          "name": "",
          "type": "int256"
        }
      ],
      "stateMutability": "view",
      "type": "function"
    },
    {
      "inputs": [
        {
          "internalType": "bytes32",
          "name": "_queryId",
          "type": "bytes32"
        },
        {
          "internalType": "uint256",
          "name": "_timestamp",
          "type": "uint256"
        }
      ],
      "name": "retrieveData",
      "outputs": [
        {
          "internalType": "bytes",
          "name": "",
          "type": "bytes"
        }
      ],
      "stateMutability": "view",
      "type": "function"
    },
    {
      "inputs": [
        {
          "internalType": "address",
          "name": "_addy",
          "type": "address"
        }
      ],
      "name": "setIdMappingContract",
      "outputs": [],
      "stateMutability": "nonpayable",
      "type": "function"
    },
    {
      "inputs": [
        {
          "internalType": "bytes32",
          "name": "_id",
          "type": "bytes32"
        }
      ],
      "name": "valueFor",
      "outputs": [
        {
          "internalType": "int256",
          "name": "_value",
          "type": "int256"
        },
        {
          "internalType": "uint256",
          "name": "_timestamp",
          "type": "uint256"
        },
        {
          "internalType": "uint256",
          "name": "_statusCode",
          "type": "uint256"
        }
      ],
      "stateMutability": "view",
      "type": "function"
    }
  ],
  "transactionHash": "0xba71f8458712921c67dc610a1b78486cd555e646b84ff159c9cf67a0b3523706",
  "args": [
    "0x6f390b99201bb43A05757019efe9C99651e04584"
  ],
  "numDeployments": 1,
  "solcInputHash": "5d99bad3859fc8056bafe9457a9bb336",
  "bytecode": "0x608060405234801561001057600080fd5b5060405161141638038061141683398101604081905261002f91610054565b600080546001600160a01b0319166001600160a01b0392909216919091179055610084565b60006020828403121561006657600080fd5b81516001600160a01b038116811461007d57600080fd5b9392505050565b611383806100936000396000f3fe608060405234801561001057600080fd5b50600436106100f55760003560e01c8063a792765f11610097578063e07c548611610066578063e07c54861461022f578063f66f49c314610242578063f78eea8314610255578063fcd4a5461461028357600080fd5b8063a792765f146101d6578063a95c372d146101e9578063c5958af9146101fc578063ce5e11bf1461021c57600080fd5b806344e87f91116100d357806344e87f911461016957806350d25bcd1461018c57806364ee3c6d146101a257806377b03e0d146101c357600080fd5b8063193b505b146100fa578063294490851461010f5780632af8aae01461013e575b600080fd5b61010d610108366004610ee0565b6102a4565b005b61012261011d366004610f04565b6102f4565b6040805192151583526020830191909152015b60405180910390f35b600154610151906001600160a01b031681565b6040516001600160a01b039091168152602001610135565b61017c610177366004610f04565b61038d565b6040519015158152602001610135565b610194610424565b604051908152602001610135565b6101b56101b0366004610f04565b6105b9565b604051610135929190610f76565b6101946101d1366004610f98565b610612565b6101b56101e4366004610f04565b610699565b600054610151906001600160a01b031681565b61020f61020a366004610f04565b610739565b6040516101359190610fb1565b61019461022a366004610f04565b6107cb565b61015161023d366004610f04565b610859565b610122610250366004610f04565b6108e7565b610268610263366004610f98565b610aa4565b60408051938452602084019290925290820152606001610135565b610296610291366004610fc4565b610b82565b604051610135929190610ff6565b6001546001600160a01b0316156102ba57600080fd5b600180547fffffffffffffffffffffffff0000000000000000000000000000000000000000166001600160a01b0392909216919091179055565b600080546040517f29449085000000000000000000000000000000000000000000000000000000008152600481018590526024810184905282916001600160a01b0316906329449085906044016040805180830381865afa15801561035d573d6000803e3d6000fd5b505050506040513d601f19601f8201168201806040525081019061038191906110a6565b915091505b9250929050565b600080546040517f44e87f9100000000000000000000000000000000000000000000000000000000815260048101859052602481018490526001600160a01b03909116906344e87f9190604401602060405180830381865afa1580156103f7573d6000803e3d6000fd5b505050506040513d601f19601f8201168201806040525081019061041b91906110d2565b90505b92915050565b60008060405160200161049c90604080825260039082018190527f706c73000000000000000000000000000000000000000000000000000000000060608301526080602083018190528201527f757364000000000000000000000000000000000000000000000000000000000060a082015260c00190565b60408051601f19818403018152908290526104b9916020016110ed565b60408051601f19818403018152919052805160208201209091506000806104e6836101e46104b04261114a565b915091508060000361050b57604051637c946ed760e01b815260040160405180910390fd5b62015180610519824261114a565b1115610551576040517f3baab38100000000000000000000000000000000000000000000000000000000815260040160405180910390fd5b600082806020019051810190610567919061115d565b90506000670de0b6b3a7640000610582836305f5e100611176565b61058c919061118d565b9050806000036105af57604051637c946ed760e01b815260040160405180910390fd5b9695505050505050565b606060008060006105ca86866108e7565b91509150816105f15760006040518060200160405280600081525090935093505050610386565b6105fb86826107cb565b92506106078684610739565b935050509250929050565b600080546040517f77b03e0d000000000000000000000000000000000000000000000000000000008152600481018490526001600160a01b03909116906377b03e0d90602401602060405180830381865afa158015610675573d6000803e3d6000fd5b505050506040513d601f19601f8201168201806040525081019061041e919061115d565b600080546040517fa792765f0000000000000000000000000000000000000000000000000000000081526004810185905260248101849052606092916001600160a01b03169063a792765f90604401600060405180830381865afa158015610705573d6000803e3d6000fd5b505050506040513d6000823e601f3d908101601f1916820160405261072d9190810190611243565b90969095509350505050565b6000546040517fc5958af900000000000000000000000000000000000000000000000000000000815260048101849052602481018390526060916001600160a01b03169063c5958af990604401600060405180830381865afa1580156107a3573d6000803e3d6000fd5b505050506040513d6000823e601f3d908101601f1916820160405261041b919081019061129a565b600080546040517fce5e11bf00000000000000000000000000000000000000000000000000000000815260048101859052602481018490526001600160a01b039091169063ce5e11bf90604401602060405180830381865afa158015610835573d6000803e3d6000fd5b505050506040513d601f19601f8201168201806040525081019061041b919061115d565b600080546040517fe07c548600000000000000000000000000000000000000000000000000000000815260048101859052602481018490526001600160a01b039091169063e07c548690604401602060405180830381865afa1580156108c3573d6000803e3d6000fd5b505050506040513d601f19601f8201168201806040525081019061041b91906112d7565b60008060006108f585610612565b90508060000361090c576000809250925050610386565b80610916816112f4565b915060019050600080838161092b8a836107cb565b90508881116109465760008097509750505050505050610386565b6109508a846107cb565b90508881111561095f57600094505b8415610a0f576002610971848461130b565b61097b919061118d565b93506109878a856107cb565b9050888111156109c85760006109a28b61022a60018861114a565b90508981116109b457600095506109c2565b6109bf60018661114a565b92505b5061095f565b60006109d98b61022a87600161130b565b9050898111156109fc5760009550846109f18161131e565b9550508091506109c2565b610a0785600161130b565b93505061095f565b610a198a8261038d565b610a2f5760018497509750505050505050610386565b610a398a8261038d565b8015610a4457508584105b15610a675783610a538161131e565b945050610a608a856107cb565b9050610a2f565b8584148015610a7b5750610a7b8a8261038d565b15610a925760008097509750505050505050610386565b60018497509750505050505050610386565b6001546040517fd21d79ee000000000000000000000000000000000000000000000000000000008152600481018390526000918291829182916001600160a01b039091169063d21d79ee90602401602060405180830381865afa158015610b0f573d6000803e3d6000fd5b505050506040513d601f19601f82011682018060405250810190610b33919061115d565b90506060610b46826101e442600161130b565b945090506000849003610b66576000806101949450945094505050610b7b565b6000610b7182610e71565b955060c893505050505b9193909250565b606080600080610b9688610250888a61114a565b9150915081610be7576040805160008082526020820190925290610bca565b6060815260200190600190039081610bb55790505b506040805160008152602081019091529094509250610e68915050565b6000610bf389896102f4565b909350905082610c46576040805160008082526020820190925290610c28565b6060815260200190600190039081610c135790505b506040805160008152602081019091529095509350610e6892505050565b60008060008867ffffffffffffffff811115610c6457610c646111af565b604051908082528060200260200182016040528015610c8d578160200160208202803683370190505b5090505b8883108015610cb457508482610ca886600161130b565b610cb2919061114a565b115b15610d18576000610cc98d61022a858861114a565b9050610cd58d8261038d565b610d055780828581518110610cec57610cec611337565b602090810291909101015283610d018161131e565b9450505b82610d0f8161131e565b93505050610c91565b60008367ffffffffffffffff811115610d3357610d336111af565b604051908082528060200260200182016040528015610d6657816020015b6060815260200190600190039081610d515790505b50905060008467ffffffffffffffff811115610d8457610d846111af565b604051908082528060200260200182016040528015610dad578160200160208202803683370190505b50905060005b85811015610e5b578381610dc860018961114a565b610dd2919061114a565b81518110610de257610de2611337565b6020026020010151828281518110610dfc57610dfc611337565b602002602001018181525050610e2b8f838381518110610e1e57610e1e611337565b6020026020010151610739565b838281518110610e3d57610e3d611337565b60200260200101819052508080610e539061131e565b915050610db3565b5090985096505050505050505b94509492505050565b6000805b8251811015610ec257828181518110610e9057610e90611337565b016020015160f81c610ea483610100611176565b610eae919061130b565b915080610eba8161131e565b915050610e75565b50919050565b6001600160a01b0381168114610edd57600080fd5b50565b600060208284031215610ef257600080fd5b8135610efd81610ec8565b9392505050565b60008060408385031215610f1757600080fd5b50508035926020909101359150565b60005b83811015610f41578181015183820152602001610f29565b50506000910152565b60008151808452610f62816020860160208601610f26565b601f01601f19169290920160200192915050565b604081526000610f896040830185610f4a565b90508260208301529392505050565b600060208284031215610faa57600080fd5b5035919050565b60208152600061041b6020830184610f4a565b60008060008060808587031215610fda57600080fd5b5050823594602084013594506040840135936060013592509050565b6000604082016040835280855180835260608501915060608160051b8601019250602080880160005b8381101561104d57605f1988870301855261103b868351610f4a565b9550938201939082019060010161101f565b50508584038187015286518085528782019482019350915060005b8281101561108457845184529381019392810192600101611068565b5091979650505050505050565b805180151581146110a157600080fd5b919050565b600080604083850312156110b957600080fd5b6110c283611091565b9150602083015190509250929050565b6000602082840312156110e457600080fd5b61041b82611091565b60408152600960408201527f53706f7450726963650000000000000000000000000000000000000000000000606082015260806020820152600061041b6080830184610f4a565b634e487b7160e01b600052601160045260246000fd5b8181038181111561041e5761041e611134565b60006020828403121561116f57600080fd5b5051919050565b808202811582820484141761041e5761041e611134565b6000826111aa57634e487b7160e01b600052601260045260246000fd5b500490565b634e487b7160e01b600052604160045260246000fd5b600082601f8301126111d657600080fd5b815167ffffffffffffffff808211156111f1576111f16111af565b604051601f8301601f19908116603f01168101908282118183101715611219576112196111af565b8160405283815286602085880101111561123257600080fd5b6105af846020830160208901610f26565b60008060006060848603121561125857600080fd5b61126184611091565b9250602084015167ffffffffffffffff81111561127d57600080fd5b611289868287016111c5565b925050604084015190509250925092565b6000602082840312156112ac57600080fd5b815167ffffffffffffffff8111156112c357600080fd5b6112cf848285016111c5565b949350505050565b6000602082840312156112e957600080fd5b8151610efd81610ec8565b60008161130357611303611134565b506000190190565b8082018082111561041e5761041e611134565b60006001820161133057611330611134565b5060010190565b634e487b7160e01b600052603260045260246000fdfea2646970667358221220c18bf256f6e2aa5fcf858d68699089d64f5a35e065833654314ce0748c862ea364736f6c63430008110033",
  "devdoc": {
    "kind": "dev",
    "methods": {
      "getDataAfter(bytes32,uint256)": {
        "details": "Retrieves the next value for the queryId after the specified timestamp",
        "params": {
          "_queryId": "is the queryId to look up the value for",
          "_timestamp": "after which to search for next value"
        },
        "returns": {
          "_timestampRetrieved": "the value's timestamp",
          "_value": "the value retrieved"
        }
      },
      "getDataBefore(bytes32,uint256)": {
        "details": "Retrieves the latest value for the queryId before the specified timestamp",
        "params": {
          "_queryId": "is the queryId to look up the value for",
          "_timestamp": "before which to search for latest value"
        },
        "returns": {
          "_timestampRetrieved": "the value's timestamp",
          "_value": "the value retrieved"
        }
      },
      "getIndexForDataAfter(bytes32,uint256)": {
        "details": "Retrieves latest array index of data before the specified timestamp for the queryId",
        "params": {
          "_queryId": "is the queryId to look up the index for",
          "_timestamp": "is the timestamp before which to search for the latest index"
        },
        "returns": {
          "_found": "whether the index was found",
          "_index": "the latest index found before the specified timestamp"
        }
      },
      "getIndexForDataBefore(bytes32,uint256)": {
        "details": "Retrieves latest array index of data before the specified timestamp for the queryId",
        "params": {
          "_queryId": "is the queryId to look up the index for",
          "_timestamp": "is the timestamp before which to search for the latest index"
        },
        "returns": {
          "_found": "whether the index was found",
          "_index": "the latest index found before the specified timestamp"
        }
      },
      "getMultipleValuesBefore(bytes32,uint256,uint256,uint256)": {
        "details": "Retrieves multiple uint256 values before the specified timestamp",
        "params": {
          "_maxAge": "the maximum number of seconds before the _timestamp to search for values",
          "_maxCount": "the maximum number of values to return",
          "_queryId": "the unique id of the data query",
          "_timestamp": "the timestamp before which to search for values"
        },
        "returns": {
          "_timestamps": "the timestamps of the values retrieved",
          "_values": "the values retrieved, ordered from oldest to newest"
        }
      },
      "getNewValueCountbyQueryId(bytes32)": {
        "details": "Counts the number of values that have been submitted for the queryId",
        "params": {
          "_queryId": "the id to look up"
        },
        "returns": {
          "_0": "uint256 count of the number of values received for the queryId"
        }
      },
      "getReporterByTimestamp(bytes32,uint256)": {
        "details": "Returns the address of the reporter who submitted a value for a data ID at a specific time",
        "params": {
          "_queryId": "is ID of the specific data feed",
          "_timestamp": "is the timestamp to find a corresponding reporter for"
        },
        "returns": {
          "_0": "address of the reporter who reported the value for the data ID at the given timestamp"
        }
      },
      "getTimestampbyQueryIdandIndex(bytes32,uint256)": {
        "details": "Gets the timestamp for the value based on their index",
        "params": {
          "_index": "is the value index to look up",
          "_queryId": "is the id to look up"
        },
        "returns": {
          "_0": "uint256 timestamp"
        }
      },
      "isInDispute(bytes32,uint256)": {
        "details": "Determines whether a value with a given queryId and timestamp has been disputed",
        "params": {
          "_queryId": "is the value id to look up",
          "_timestamp": "is the timestamp of the value to look up"
        },
        "returns": {
          "_0": "bool true if queryId/timestamp is under dispute"
        }
      },
      "retrieveData(bytes32,uint256)": {
        "details": "Retrieve value from oracle based on queryId/timestamp",
        "params": {
          "_queryId": "being requested",
          "_timestamp": "to retrieve data/value from"
        },
        "returns": {
          "_0": "bytes value for query/timestamp submitted"
        }
      },
      "setIdMappingContract(address)": {
        "details": "allows dev to set mapping contract for valueFor (EIP2362)",
        "params": {
          "_addy": "address of mapping contract"
        }
      },
      "valueFor(bytes32)": {
        "details": "Retrieve most recent int256 value from oracle based on queryId",
        "params": {
          "_id": "being requested"
        },
        "returns": {
          "_statusCode": "200 if value found, 404 if not found",
          "_timestamp": "timestamp of most recent value",
          "_value": "most recent value submitted"
        }
      }
    },
    "version": 1
  },
  "userdoc": {
    "kind": "user",
    "methods": {},
    "version": 1
  },
  "storageLayout": {
    "storage": [
      {
        "astId": 15301,
        "contract": "contracts/fetchoracle/FetchFlexOracle.sol:FetchFlexOracle",
        "label": "fetch",
        "offset": 0,
        "slot": "0",
        "type": "t_contract(IFetch)15242"
      },
      {
        "astId": 15304,
        "contract": "contracts/fetchoracle/FetchFlexOracle.sol:FetchFlexOracle",
        "label": "idMappingContract",
        "offset": 0,
        "slot": "1",
        "type": "t_contract(IMappingContract)15290"
      }
    ],
    "types": {
      "t_contract(IFetch)15242": {
        "encoding": "inplace",
        "label": "contract IFetch",
        "numberOfBytes": "20"
      },
      "t_contract(IMappingContract)15290": {
        "encoding": "inplace",
        "label": "contract IMappingContract",
        "numberOfBytes": "20"
      }
    }
  }
}