{
  "address": "0xE1Ff567D25F4A63860eb9f17f7B84380fF89AE56",
  "abi": [
    {
      "inputs": [],
      "stateMutability": "nonpayable",
      "type": "constructor"
    },
    {
      "inputs": [],
      "name": "ZeroValue",
      "type": "error"
    },
    {
      "inputs": [],
      "name": "PLS_DAI_PAIR",
      "outputs": [
        {
          "internalType": "contract IPulseXPair",
          "name": "",
          "type": "address"
        }
      ],
      "stateMutability": "view",
      "type": "function"
    },
    {
      "inputs": [],
      "name": "WPLS",
      "outputs": [
        {
          "internalType": "address",
          "name": "",
          "type": "address"
        }
      ],
      "stateMutability": "view",
      "type": "function"
    },
    {
      "inputs": [],
      "name": "latestAnswer",
      "outputs": [
        {
          "internalType": "int256",
          "name": "",
          "type": "int256"
        }
      ],
      "stateMutability": "view",
      "type": "function"
    }
  ],
  "transactionHash": "0xbb9ea4da251ce6ccca2c72f9b01e552c2a6c79606ec91524d58c59d681660a96",
  "args": [],
  "numDeployments": 1,
  "solcInputHash": "8fef40d09311d7e649d78f5584150b16",
  "bytecode": "0x60e060405234801561001057600080fd5b5073e56043671df55de5cdf8459710433c10324de0ae60c081905260408051630dfe168160e01b81529051630dfe1681916004808201926020929091908290030181865afa158015610066573d6000803e3d6000fd5b505050506040513d601f19601f8201168201806040525081019061008a9190610118565b6001600160a01b03166080816001600160a01b03168152505060c0516001600160a01b031663d21220a76040518163ffffffff1660e01b8152600401602060405180830381865afa1580156100e3573d6000803e3d6000fd5b505050506040513d601f19601f820116820180604052508101906101079190610118565b6001600160a01b031660a052610148565b60006020828403121561012a57600080fd5b81516001600160a01b038116811461014157600080fd5b9392505050565b60805160a05160c0516103f7610179600039600081816066015260cf015260005050600061018701526103f76000f3fe608060405234801561001057600080fd5b50600436106100415760003560e01c806350d25bcd146100465780639aafaa0a14610061578063ef8ef56f146100ad575b600080fd5b61004e6100c8565b6040519081526020015b60405180910390f35b6100887f000000000000000000000000000000000000000000000000000000000000000081565b60405173ffffffffffffffffffffffffffffffffffffffff9091168152602001610058565b61008873a1077a294dde1b09bb078844df40758a5d0f9a2781565b60008060007f000000000000000000000000000000000000000000000000000000000000000073ffffffffffffffffffffffffffffffffffffffff16630902f1ac6040518163ffffffff1660e01b8152600401606060405180830381865afa158015610138573d6000803e3d6000fd5b505050506040513d601f19601f8201168201806040525081019061015c91906102e9565b50909250905060007fffffffffffffffffffffffff5ef885d6b221e4f644f877bb20bf8a75a2f065d97f000000000000000000000000000000000000000000000000000000000000000073ffffffffffffffffffffffffffffffffffffffff1601610225576101e3670de0b6b3a76400006dffffffffffffffffffffffffffff851661034f565b670de0b6b3a764000061020a6dffffffffffffffffffffffffffff85166305f5e10061038b565b610214919061034f565b61021e919061034f565b9050610285565b610247670de0b6b3a76400006dffffffffffffffffffffffffffff841661034f565b670de0b6b3a764000061026e6dffffffffffffffffffffffffffff86166305f5e10061038b565b610278919061034f565b610282919061034f565b90505b806000036102bf576040517f7c946ed700000000000000000000000000000000000000000000000000000000815260040160405180910390fd5b9392505050565b80516dffffffffffffffffffffffffffff811681146102e457600080fd5b919050565b6000806000606084860312156102fe57600080fd5b610307846102c6565b9250610315602085016102c6565b9150604084015163ffffffff8116811461032e57600080fd5b809150509250925092565b634e487b7160e01b600052601160045260246000fd5b60008261036c57634e487b7160e01b600052601260045260246000fd5b600160ff1b82146000198414161561038657610386610339565b500590565b80820260008212600160ff1b841416156103a7576103a7610339565b81810583148215176103bb576103bb610339565b9291505056fea2646970667358221220d826addf1b3c37a76ecf754ebf48e7f12a957de9c759a24553918fde3a397cac64736f6c63430008110033",
  "devdoc": {
    "kind": "dev",
    "methods": {},
    "version": 1
  },
  "userdoc": {
    "kind": "user",
    "methods": {},
    "version": 1
  },
  "storageLayout": {
    "storage": [],
    "types": null
  }
}