{
  "address": "0x5F605911Df51497C427F623E3fda8f1fe11C6d41",
  "abi": [
    {
      "inputs": [
        {
          "internalType": "bytes",
          "name": "_anchors",
          "type": "bytes"
        }
      ],
      "stateMutability": "nonpayable",
      "type": "constructor"
    },
    {
      "anonymous": false,
      "inputs": [
        {
          "indexed": false,
          "internalType": "uint8",
          "name": "id",
          "type": "uint8"
        },
        {
          "indexed": false,
          "internalType": "address",
          "name": "addr",
          "type": "address"
        }
      ],
      "name": "AlgorithmUpdated",
      "type": "event"
    },
    {
      "anonymous": false,
      "inputs": [
        {
          "indexed": false,
          "internalType": "uint8",
          "name": "id",
          "type": "uint8"
        },
        {
          "indexed": false,
          "internalType": "address",
          "name": "addr",
          "type": "address"
        }
      ],
      "name": "DigestUpdated",
      "type": "event"
    },
    {
      "anonymous": false,
      "inputs": [],
      "name": "Marker",
      "type": "event"
    },
    {
      "anonymous": false,
      "inputs": [
        {
          "indexed": false,
          "internalType": "uint8",
          "name": "id",
          "type": "uint8"
        },
        {
          "indexed": false,
          "internalType": "address",
          "name": "addr",
          "type": "address"
        }
      ],
      "name": "NSEC3DigestUpdated",
      "type": "event"
    },
    {
      "anonymous": false,
      "inputs": [
        {
          "indexed": false,
          "internalType": "bytes",
          "name": "name",
          "type": "bytes"
        },
        {
          "indexed": false,
          "internalType": "bytes",
          "name": "rrset",
          "type": "bytes"
        }
      ],
      "name": "RRSetUpdated",
      "type": "event"
    },
    {
      "anonymous": false,
      "inputs": [
        {
          "indexed": false,
          "internalType": "uint256",
          "name": "t",
          "type": "uint256"
        }
      ],
      "name": "Test",
      "type": "event"
    },
    {
      "inputs": [
        {
          "internalType": "uint8",
          "name": "",
          "type": "uint8"
        }
      ],
      "name": "algorithms",
      "outputs": [
        {
          "internalType": "contract Algorithm",
          "name": "",
          "type": "address"
        }
      ],
      "stateMutability": "view",
      "type": "function"
    },
    {
      "inputs": [],
      "name": "anchors",
      "outputs": [
        {
          "internalType": "bytes",
          "name": "",
          "type": "bytes"
        }
      ],
      "stateMutability": "view",
      "type": "function"
    },
    {
      "inputs": [
        {
          "internalType": "uint16",
          "name": "deleteType",
          "type": "uint16"
        },
        {
          "internalType": "bytes",
          "name": "deleteName",
          "type": "bytes"
        },
        {
          "components": [
            {
              "internalType": "bytes",
              "name": "rrset",
              "type": "bytes"
            },
            {
              "internalType": "bytes",
              "name": "sig",
              "type": "bytes"
            }
          ],
          "internalType": "struct DNSSEC.RRSetWithSignature",
          "name": "nsec",
          "type": "tuple"
        },
        {
          "internalType": "bytes",
          "name": "proof",
          "type": "bytes"
        }
      ],
      "name": "deleteRRSet",
      "outputs": [],
      "stateMutability": "nonpayable",
      "type": "function"
    },
    {
      "inputs": [
        {
          "internalType": "uint16",
          "name": "deleteType",
          "type": "uint16"
        },
        {
          "internalType": "bytes",
          "name": "deleteName",
          "type": "bytes"
        },
        {
          "components": [
            {
              "internalType": "bytes",
              "name": "rrset",
              "type": "bytes"
            },
            {
              "internalType": "bytes",
              "name": "sig",
              "type": "bytes"
            }
          ],
          "internalType": "struct DNSSEC.RRSetWithSignature",
          "name": "closestEncloser",
          "type": "tuple"
        },
        {
          "components": [
            {
              "internalType": "bytes",
              "name": "rrset",
              "type": "bytes"
            },
            {
              "internalType": "bytes",
              "name": "sig",
              "type": "bytes"
            }
          ],
          "internalType": "struct DNSSEC.RRSetWithSignature",
          "name": "nextClosest",
          "type": "tuple"
        },
        {
          "internalType": "bytes",
          "name": "dnskey",
          "type": "bytes"
        }
      ],
      "name": "deleteRRSetNSEC3",
      "outputs": [],
      "stateMutability": "nonpayable",
      "type": "function"
    },
    {
      "inputs": [
        {
          "internalType": "uint8",
          "name": "",
          "type": "uint8"
        }
      ],
      "name": "digests",
      "outputs": [
        {
          "internalType": "contract Digest",
          "name": "",
          "type": "address"
        }
      ],
      "stateMutability": "view",
      "type": "function"
    },
    {
      "inputs": [
        {
          "internalType": "uint8",
          "name": "",
          "type": "uint8"
        }
      ],
      "name": "nsec3Digests",
      "outputs": [
        {
          "internalType": "contract NSEC3Digest",
          "name": "",
          "type": "address"
        }
      ],
      "stateMutability": "view",
      "type": "function"
    },
    {
      "inputs": [],
      "name": "owner",
      "outputs": [
        {
          "internalType": "address",
          "name": "",
          "type": "address"
        }
      ],
      "stateMutability": "view",
      "type": "function"
    },
    {
      "inputs": [
        {
          "internalType": "uint16",
          "name": "dnstype",
          "type": "uint16"
        },
        {
          "internalType": "bytes",
          "name": "name",
          "type": "bytes"
        }
      ],
      "name": "rrdata",
      "outputs": [
        {
          "internalType": "uint32",
          "name": "",
          "type": "uint32"
        },
        {
          "internalType": "uint32",
          "name": "",
          "type": "uint32"
        },
        {
          "internalType": "bytes20",
          "name": "",
          "type": "bytes20"
        }
      ],
      "stateMutability": "view",
      "type": "function"
    },
    {
      "inputs": [
        {
          "internalType": "uint8",
          "name": "id",
          "type": "uint8"
        },
        {
          "internalType": "contract Algorithm",
          "name": "algo",
          "type": "address"
        }
      ],
      "name": "setAlgorithm",
      "outputs": [],
      "stateMutability": "nonpayable",
      "type": "function"
    },
    {
      "inputs": [
        {
          "internalType": "uint8",
          "name": "id",
          "type": "uint8"
        },
        {
          "internalType": "contract Digest",
          "name": "digest",
          "type": "address"
        }
      ],
      "name": "setDigest",
      "outputs": [],
      "stateMutability": "nonpayable",
      "type": "function"
    },
    {
      "inputs": [
        {
          "internalType": "uint8",
          "name": "id",
          "type": "uint8"
        },
        {
          "internalType": "contract NSEC3Digest",
          "name": "digest",
          "type": "address"
        }
      ],
      "name": "setNSEC3Digest",
      "outputs": [],
      "stateMutability": "nonpayable",
      "type": "function"
    },
    {
      "inputs": [
        {
          "internalType": "address",
          "name": "newOwner",
          "type": "address"
        }
      ],
      "name": "setOwner",
      "outputs": [],
      "stateMutability": "nonpayable",
      "type": "function"
    },
    {
      "inputs": [
        {
          "components": [
            {
              "internalType": "bytes",
              "name": "rrset",
              "type": "bytes"
            },
            {
              "internalType": "bytes",
              "name": "sig",
              "type": "bytes"
            }
          ],
          "internalType": "struct DNSSEC.RRSetWithSignature",
          "name": "input",
          "type": "tuple"
        },
        {
          "internalType": "bytes",
          "name": "proof",
          "type": "bytes"
        }
      ],
      "name": "submitRRSet",
      "outputs": [
        {
          "internalType": "bytes",
          "name": "",
          "type": "bytes"
        }
      ],
      "stateMutability": "nonpayable",
      "type": "function"
    },
    {
      "inputs": [
        {
          "components": [
            {
              "internalType": "bytes",
              "name": "rrset",
              "type": "bytes"
            },
            {
              "internalType": "bytes",
              "name": "sig",
              "type": "bytes"
            }
          ],
          "internalType": "struct DNSSEC.RRSetWithSignature[]",
          "name": "input",
          "type": "tuple[]"
        },
        {
          "internalType": "bytes",
          "name": "_proof",
          "type": "bytes"
        }
      ],
      "name": "submitRRSets",
      "outputs": [
        {
          "internalType": "bytes",
          "name": "",
          "type": "bytes"
        }
      ],
      "stateMutability": "nonpayable",
      "type": "function"
    }
  ],
  "transactionHash": "0x9cc05b9ec78bf6c5a67ebcd57edfb53bb2dcfb01cbef1f0d31defee322e76a5e",
  "args": [
    "0x00002b000100000e1000244a5c080249aac11d7b6f6446702e54a1607371607a1a41855200fd2ce1cdde32f24e8fb500002b000100000e1000244f660802e06d44b80b8f1d39a95c0b0d7c65d08458e880409bbc683457104237c7f8ec8d"
  ],
  "numDeployments": 1,
  "solcInputHash": "25b574840c6394f29abc66efc4405f5a",
  "bytecode": "0x60806040523480156200001157600080fd5b50604051620039793803806200397983398101604081905262000034916200018f565b600180546001600160a01b031916331790556000620000548282620002f3565b5060408051606081018252600080825263e090bba0602083015282519192830191620000819190620003bf565b60408051918290039091206001600160601b031916909152602b60009081527fc92a43746f20f69898978a3075767b860ba247ac0639d1831bf8c942c5db2389602090815283517f95c6356c1b7a542b884d2484ef785c9c7224e77e1016c20007bddc15c23b452f8054928601519585015160601c6801000000000000000002600160401b600160e01b031963ffffffff978816640100000000026001600160401b03199095169790931696909617929092171693909317909255517f55ced933cdd5a34dd03eb5d4bef19ec6ebb251dcd7a988eee0c1b9a13baaa88b916200016a916200043d565b60405180910390a150620004e5565b634e487b7160e01b600052604160045260246000fd5b60006020808385031215620001a357600080fd5b82516001600160401b0380821115620001bb57600080fd5b818501915085601f830112620001d057600080fd5b815181811115620001e557620001e562000179565b604051601f8201601f19908116603f0116810190838211818310171562000210576200021062000179565b8160405282815288868487010111156200022957600080fd5b600093505b828410156200024d57848401860151818501870152928501926200022e565b600086848301015280965050505050505092915050565b600181811c908216806200027957607f821691505b6020821081036200029a57634e487b7160e01b600052602260045260246000fd5b50919050565b601f821115620002ee57600081815260208120601f850160051c81016020861015620002c95750805b601f850160051c820191505b81811015620002ea57828155600101620002d5565b5050505b505050565b81516001600160401b038111156200030f576200030f62000179565b620003278162000320845462000264565b84620002a0565b602080601f8311600181146200035f5760008415620003465750858301515b600019600386901b1c1916600185901b178555620002ea565b600085815260208120601f198616915b8281101562000390578886015182559484019460019091019084016200036f565b5085821015620003af5787850151600019600388901b60f8161c191681555b5050505050600190811b01905550565b6000808354620003cf8162000264565b60018281168015620003ea5760018114620004005762000431565b60ff198416875282151583028701945062000431565b8760005260208060002060005b85811015620004285781548a8201529084019082016200040d565b50505082870194505b50929695505050505050565b604081526000600180604084015260006060840152602060808185015260008554620004698162000264565b80608088015260a0858316600081146200048c5760018114620004a757620004d7565b60ff1984168983015282151560051b890182019450620004d7565b896000528560002060005b84811015620004cf5781548b8201850152908801908701620004b2565b8a0183019550505b509298975050505050505050565b61348480620004f56000396000f3fe608060405234801561001057600080fd5b50600436106100ea5760003560e01c806373cc48a61161008c57806398d35f201161006657806398d35f201461025b578063bd7ed31a14610263578063c327deef14610299578063d7b82ebe146102cf57600080fd5b806373cc48a6146101cd5780638438dc04146102285780638da5cb5b1461023b57600080fd5b806313af4035116100c857806313af40351461017457806328e7677d146101875780632c095cbb1461019a578063435cc162146101ad57600080fd5b8063020ed8d3146100ef578063087991bc146101045780630b1a249514610161575b600080fd5b6101026100fd366004612a31565b6102e2565b005b610117610112366004612ac3565b610396565b6040805163ffffffff94851681529390921660208401527fffffffffffffffffffffffffffffffffffffffff00000000000000000000000016908201526060015b60405180910390f35b61010261016f366004612cac565b61040b565b610102610182366004612d6a565b6105fa565b610102610195366004612a31565b610665565b6101026101a8366004612d87565b610711565b6101c06101bb366004612e20565b610845565b6040516101589190612f62565b6102036101db366004612f75565b60046020526000908152604090205473ffffffffffffffffffffffffffffffffffffffff1681565b60405173ffffffffffffffffffffffffffffffffffffffff9091168152602001610158565b610102610236366004612a31565b6108cd565b6001546102039073ffffffffffffffffffffffffffffffffffffffff1681565b6101c0610979565b610203610271366004612f75565b60056020526000908152604090205473ffffffffffffffffffffffffffffffffffffffff1681565b6102036102a7366004612f75565b60036020526000908152604090205473ffffffffffffffffffffffffffffffffffffffff1681565b6101c06102dd366004612f90565b610a07565b60015473ffffffffffffffffffffffffffffffffffffffff16331461030657600080fd5b60ff821660008181526003602090815260409182902080547fffffffffffffffffffffffff00000000000000000000000000000000000000001673ffffffffffffffffffffffffffffffffffffffff86169081179091558251938452908301527ff73c3c226af96b7f1ba666a21b3ceaf2be3ee6a365e3178fd9cd1eaae0075aa891015b60405180910390a15050565b6000806000806002600087876040516103b0929190612ff4565b60408051918290039091208252602080830193909352908101600090812061ffff8b16825290925290205463ffffffff8082169550640100000000820416935068010000000000000000900460601b91505093509350939050565b8351602080860191909120600090815260028252604080822061ffff891683529092529081205463ffffffff16906104438584610a1c565b9050610450818784610b0d565b604080516101408101825260008082526020820181905291810182905260608082018390526080820183905260a0820183905260c082019290925260e081018290526101008101829052610120810191909152845151156104c2576104b58585610a1c565b90506104c2818885610b0d565b60006104cd83610b53565b602081015190915060fe16156104e257600080fd5b6104ed816027610bb2565b1580156105125750610500816002610bb2565b15806105125750610512816006610bb2565b61051b57600080fd5b61052c898985610120015184610bc4565b156105805787516020808a0191909120600090815260028252604080822061ffff8d1683529092522080547fffffffff000000000000000000000000000000000000000000000000000000001690556105ef565b61059f888461012001518385610120015161059a87610b53565b610bf4565b156100ea5787516020808a0191909120600090815260028252604080822061ffff8d1683529092522080547fffffffff000000000000000000000000000000000000000000000000000000001690555b505050505050505050565b60015473ffffffffffffffffffffffffffffffffffffffff16331461061e57600080fd5b600180547fffffffffffffffffffffffff00000000000000000000000000000000000000001673ffffffffffffffffffffffffffffffffffffffff92909216919091179055565b60015473ffffffffffffffffffffffffffffffffffffffff16331461068957600080fd5b60ff821660008181526004602090815260409182902080547fffffffffffffffffffffffff00000000000000000000000000000000000000001673ffffffffffffffffffffffffffffffffffffffff86169081179091558251938452908301527f2fcc274c3b72dd483ab201bfa87295e3817e8b9b10693219873b722ca1af00c7910161038a565b604080516101408101825260008082526020820181905291810182905260608082018390526080820183905260a0820183905260c082019290925260e08101829052610100810182905261012081019190915261076e8383610a1c565b805190915061ffff16602f1461078357600080fd5b60a08101518451602080870191909120600090815260028252604080822061ffff8a16835290925220546107bd919063ffffffff16610d0f565b6107c657600080fd5b60006107d182610d28565b9050805151602082015110156100ea576107f2818361012001518789610d86565b50508251602080850191909120600090815260028252604080822061ffff881683529092522080547fffffffff000000000000000000000000000000000000000000000000000000001690555b50505050565b6060600083838080601f01602080910402602001604051908101604052809392919081815260200183838082843760009201829052509394505050505b85518110156108c2576108ae8682815181106108a0576108a0613004565b602002602001015183610f34565b9150806108ba81613062565b915050610882565b5090505b9392505050565b60015473ffffffffffffffffffffffffffffffffffffffff1633146108f157600080fd5b60ff821660008181526005602090815260409182902080547fffffffffffffffffffffffff00000000000000000000000000000000000000001673ffffffffffffffffffffffffffffffffffffffff86169081179091558251938452908301527fc7eec866a7a1386188cc3ca20ffea75b71bd3e90a60b6791b1d3f0971145118d910161038a565b600080546109869061307c565b80601f01602080910402602001604051908101604052809291908181526020018280546109b29061307c565b80156109ff5780601f106109d4576101008083540402835291602001916109ff565b820191906000526020600020905b8154815290600101906020018083116109e257829003601f168201915b505050505081565b6060610a138383610f34565b90505b92915050565b604080516101408101825260008082526020820181905291810182905260608082018390526080820183905260a0820183905260c082019290925260e0810182905261010081018290526101208101919091528251610a7a9061115c565b9050610a8a8160e001518361129e565b610a9357600080fd5b6000610aa3828360000151611323565b604083015190915060ff16610ab98260006113d1565b14610ac357600080fd5b61012082018190526080820151610ada9042610d0f565b610ae357600080fd5b610af1428360a00151610d0f565b610afa57600080fd5b610b068183868661142e565b5092915050565b610b1b8360a0015182610d0f565b610b2457600080fd5b825161ffff16603214610b3657600080fd5b610b4583610120015183611537565b610b4e57600080fd5b505050565b6040805160c08101825260008082526020820181905291810182905260608082018190526080820183905260a082015290610b8d83610d28565b60a081015160c08201519192506108c691610ba99082906130c9565b835191906115a5565b6000610a138360a001516000846116ec565b6000610bd1828486611801565b15610be857610be08286610bb2565b159050610bec565b5060005b949350505050565b602081015160009060fe1615610c0957600080fd5b6000610c1486611828565b90506000610c2185611828565b9050600080610c308a82611844565b610c3b9060016130dc565b60ff1690505b8951811015610cfd5783610c6d89610c6884858f51610c6091906130c9565b8f9190611868565b6118ea565b03610cd1576000610c8987610c6885868f51610c6091906130c9565b90508660800151841015610cb5578381118015610ca95750866080015181105b95505050505050610d06565b83811180610ca957508660800151811095505050505050610d06565b905080610cde8a82611844565b610ce99060016130dc565b610cf69060ff16826130f5565b9050610c41565b50600093505050505b95945050505050565b600080610d1c8385613108565b60030b12159392505050565b610d766040518060e001604052806060815260200160008152602001600061ffff168152602001600061ffff168152602001600063ffffffff16815260200160008152602001600081525090565b610a16826101000151600061199c565b60a08401518451600090610d9a90836119fd565b905060008660a001518760c00151610db291906130c9565b9050818111610dc057600080fd5b6000610dcc8688611a57565b905080600003610dfb57610dec610de384866130f5565b895190876116ec565b15610df657600080fd5b610e42565b8751600090610e0b908686611868565b905060008213610e1a57600080fd5b6000610e268983611a57565b12156105ef576000610e388883611a57565b126105ef57600080fd5b5050505050505050565b60c08101516020820181905281515111610e635750565b6000610e77826000015183602001516119fd565b8260200151610e8691906130f5565b8251909150610e959082611bb0565b61ffff166040830152610ea96002826130f5565b8251909150610eb89082611bb0565b61ffff166060830152610ecc6002826130f5565b8251909150610edb9082611bd8565b63ffffffff166080830152610ef16004826130f5565b8251909150600090610f039083611bb0565b61ffff169050610f146002836130f5565b60a084018190529150610f2781836130f5565b60c0909301929092525050565b604080516101408101825260008082526020820181905291810182905260608181018390526080820183905260a0820183905260c082019290925260e0810182905261010081018290526101208101829052610f908484610a1c565b61012081015180516020918201206000908152600282526040808220845161ffff1683529092522080549192509068010000000000000000900460601b7fffffffffffffffffffffffffffffffffffffffff00000000000000000000000016156110145760a0820151815461100b919063ffffffff16610d0f565b61101457600080fd5b604080516060808201835260a085015163ffffffff9081168352608086015181166020808501918252610100880180518051908301207fffffffffffffffffffffffffffffffffffffffff000000000000000000000000168688019081526101208a0180518051908501206000908152600285528981208c5161ffff16825290945292889020965187549451915190961c68010000000000000000027fffffffff0000000000000000000000000000000000000000ffffffffffffffff918616640100000000027fffffffffffffffffffffffffffffffffffffffffffffffff0000000000000000909516969095169590951792909217939093169190911790925551905191517f55ced933cdd5a34dd03eb5d4bef19ec6ebb251dcd7a988eee0c1b9a13baaa88b92611147929161314a565b60405180910390a15061010001519392505050565b604080516101408101825260008082526020820181905291810182905260608082018390526080820183905260a0820183905260c0820183905260e082018190526101008201819052610120820152906111b7908390611bb0565b61ffff1681526111c8826002611844565b60ff1660208201526111db826003611844565b60ff1660408201526111ee826004611bd8565b63ffffffff908116606083015261120a908390600890611bd816565b63ffffffff9081166080830152611226908390600c90611bd816565b63ffffffff90811660a0830152611242908390601090611bb016565b61ffff1660c0820152611256826012611c02565b60e08201819052516112939061126d9060126130f5565b8260e00151516012855161128191906130c9565b61128b91906130c9565b849190611868565b610100820152919050565b6000806112b56112ae84836119fd565b8490611bb0565b8351602080860191909120865187830120600090815260028352604080822061ffff9095168252939092529190205468010000000000000000900460601b7fffffffffffffffffffffffffffffffffffffffff00000000000000000000000090811691161491505092915050565b6060600061133084610d28565b90505b80515160208201511015610b0657606081015161ffff1660011461135657600080fd5b815160000361136f5761136881611c1d565b91506113ab565b6020810151815161137f916119fd565b82511461138b57600080fd5b8051602082015183516113a2928592600092611c3e565b6113ab57600080fd5b8261ffff16816040015161ffff16146113c357600080fd5b6113cc81610e4c565b611333565b6000805b835183106113e5576113e561316f565b60006113f18585611844565b60ff1690506114018160016130f5565b61140b90856130f5565b93508060000361141b5750610a13565b6114266001836130f5565b9150506113d5565b83518360e0015151111561144157600080fd5b6114666000858560e0015151875161145991906130c9565b60e0870151929190611c61565b61146f57600080fd5b600061147b828261199c565b9050602b61ffff16816040015161ffff16036114aa5761149c848483611c96565b6114a557600080fd5b611530565b603061ffff16816040015161ffff16036114c95761149c848483611d2f565b6040517f08c379a000000000000000000000000000000000000000000000000000000000815260206004820152601460248201527f4e6f2076616c69642070726f6f6620666f756e6400000000000000000000000060448201526064015b60405180910390fd5b5050505050565b6000806115448482611844565b61154f9060016130dc565b60ff16905060005b8351811015610be85761156c84828785611c61565b1561157c57600192505050610a16565b6115868482611844565b6115919060016130dc565b61159e9060ff16826130f5565b9050611557565b6040805160c08101825260008082526020820181905291810182905260608082018190526080820183905260a0820152906115e083856130f5565b90506115f76115f06000866130f5565b8690611844565b60ff16825261160a6115f06001866130f5565b60ff1660208301526116276116206002866130f5565b8690611bb0565b61ffff16604083015260006116476116406004876130f5565b8790611844565b90506116546005866130f5565b9450611664868660ff8416611868565b606084015261167660ff8216866130f5565b945060006116848787611844565b905060208160ff16111561169757600080fd5b6116a26001876130f5565b95506116b2878760ff8416611dd7565b60808501526116c460ff8216876130f5565b95506116dc866116d481866130c9565b899190611868565b60a0850152509195945050505050565b600060ff600883811c82169183916117059186166131cd565b905060006117176007808716906131ee565b600160ff919091161b9050855b87518110156117f35760006117398983611844565b9050600061175261174b8460016130f5565b8b90611844565b90508160ff168660ff16101561177157600096505050505050506108c6565b8160ff168660ff16036117d2578460ff168160ff161161179a57600096505050505050506108c6565b836117bd6117ab60ff8816866130f5565b6117b69060026130f5565b8c90611844565b1660ff166000141596505050505050506108c6565b6117dd8160026130dc565b6117ea9060ff16846130f5565b92505050611724565b506000979650505050505050565b60008061180e85846118ea565b9050600061181b85611828565b9190911495945050505050565b6000610a1660016118398484611844565b84919060ff16611e18565b600082828151811061185857611858613004565b016020015160f81c905092915050565b825160609061187783856130f5565b111561188257600080fd5b60008267ffffffffffffffff81111561189d5761189d612b16565b6040519080825280601f01601f1916602001820160405280156118c7576020820181803683370190505b509050602080820190868601016118df828287612098565b509095945050505050565b815160ff166000908152600560205260408082205460608501518286015192517f68f9dab200000000000000000000000000000000000000000000000000000000815273ffffffffffffffffffffffffffffffffffffffff909216926368f9dab29261195b92918791600401613207565b602060405180830381865afa158015611978573d6000803e3d6000fd5b505050506040513d601f19601f82011682018060405250810190610a139190613241565b6119ea6040518060e001604052806060815260200160008152602001600061ffff168152602001600061ffff168152602001600063ffffffff16815260200160008152602001600081525090565b82815260c08101829052610a1681610e4c565b6000815b83518110611a1157611a1161316f565b6000611a1d8583611844565b60ff169050611a2d8160016130f5565b611a3790836130f5565b915080600003611a475750611a4d565b50611a01565b610bec83826130c9565b6000611a6383836120ee565b15611a7057506000610a16565b6000806000806000611a838860006113d1565b90506000611a928860006113d1565b90505b80821115611abe57859350611aaa898761210c565b955081611ab68161325a565b925050611a95565b81811115611ae757849250611ad3888661210c565b945080611adf8161325a565b915050611abe565b600082118015611b005750611afe89878a88611c61565b155b15611b3557859350611b12898761210c565b9550849250611b21888661210c565b9450611b2e6001836130c9565b9150611ae7565b85600003611b4d576000199650505050505050610a16565b84600003611b645760019650505050505050610a16565b611ba3611b728560016130f5565b611b7c8b87611844565b60ff168a611b8b8760016130f5565b611b958d89611844565b8e949392919060ff16612130565b9998505050505050505050565b8151600090611bc08360026130f5565b1115611bcb57600080fd5b50016002015161ffff1690565b8151600090611be88360046130f5565b1115611bf357600080fd5b50016004015163ffffffff1690565b60606000611c1084846119fd565b9050610bec848483611868565b60208101518151606091610a1691611c3590826119fd565b84519190611868565b6000611c4b848484612225565b611c56878785612225565b149695505050505050565b6000611c7a8383848651611c7591906130c9565b612225565b611c8c8686878951611c7591906130c9565b1495945050505050565b600080611ca285610d28565b90505b80515160208201511015610be857604081015161ffff16603014611cc857600080fd5b6000611cd382612249565b90506000611cee60008351846122659092919063ffffffff16565b9050611cfc81838989612303565b15611d1f57611d15611d0d84611c1d565b86838561242e565b93505050506108c6565b5050611d2a81610e4c565b611ca5565b6000611d488460e00151611d4284611c1d565b906120ee565b611d5157600080fd5b81515160208301511015611dcd57611d708460e00151611d4284611c1d565b611d7957600080fd5b6000611d8483612249565b90506000611d9f60008351846122659092919063ffffffff16565b9050611dad81838888612303565b15611dbd576001925050506108c6565b5050611dc882610e4c565b611d51565b5060009392505050565b60006020821115611de757600080fd5b8351611df383856130f5565b1115611dfe57600080fd5b506020919092018101519190036101000a60001901191690565b60006034821115611e2857600080fd5b600080805b84811015611f7c57600087611e4283896130f5565b81518110611e5257611e52613004565b01602001517fff000000000000000000000000000000000000000000000000000000000000001690507f30000000000000000000000000000000000000000000000000000000000000008110801590611eed57507f7a000000000000000000000000000000000000000000000000000000000000007fff00000000000000000000000000000000000000000000000000000000000000821611155b611ef657600080fd5b60405180608001604052806047815260200161340860479139611f1e603060f884901c6130c9565b81518110611f2e57611f2e613004565b0160209081015160f81c9350831115611f4657600080fd5b611f516001876130c9565b8203611f5d5750611f7c565b5060059290921b60ff8216179180611f7481613062565b915050611e2d565b506000611f8a856005613271565b9050611f97600886613288565b600003611faf578160ff16600584901b17925061207e565b611fba600886613288565b600203611fe85760028260ff16901c60ff16600384901b179250600281611fe191906130c9565b905061207e565b611ff3600886613288565b60040361201a5760048260ff16901c60ff16600184901b179250600481611fe191906130c9565b612025600886613288565b60050361204c5760018260ff16901c60ff16600484901b179250600181611fe191906130c9565b612057600886613288565b6007036100ea5760038260ff16901c60ff16600284901b179250600381611fe191906130c9565b61208a816101006130c9565b9290921b9695505050505050565b602081106120d057815183526120af6020846130f5565b92506120bc6020836130f5565b91506120c96020826130c9565b9050612098565b905182516020929092036101000a6000190180199091169116179052565b600081518351148015610a135750610a138360008460008751611c3e565b60006121188383611844565b60ff166121268360016130f5565b610a1391906130f5565b6000848083101561213e5750815b60208789018101908587010160005b8381101561220a57825182518082146121da576000602087111561217457506000196121b0565b6001846121828960206130c9565b61218c91906130f5565b612197906008613271565b6121a2906002613380565b6121ac91906130c9565b1990505b60006121c083831685841661338c565b905080156121d757975061221b9650505050505050565b50505b6121e56020866130f5565b94506121f26020856130f5565b9350505060208161220391906130f5565b905061214d565b50612215858961338c565b93505050505b9695505050505050565b825160009061223483856130f5565b111561223f57600080fd5b5091016020012090565b60a081015160c0820151606091610a1691611c359082906130c9565b604080516080810182526000808252602082018190529181019190915260608082015261229d6122966000856130f5565b8590611bb0565b61ffff1681526122b86122b16002856130f5565b8590611844565b60ff1660208201526122ce6122b16003856130f5565b60ff1660408201526122f76122e46004856130f5565b6122ef6004856130c9565b869190611868565b60608201529392505050565b6000846020015160ff1660031461231c57506000610bec565b826020015160ff16856040015160ff161461233957506000610bec565b60006123448561252f565b90508360c0015161ffff168161ffff1614612363576000915050610bec565b85516101001660000361237a576000915050610bec565b60408087015160ff16600090815260036020908152908290205485519186015192517fde8f50a100000000000000000000000000000000000000000000000000000000815273ffffffffffffffffffffffffffffffffffffffff9091169263de8f50a1926123ed928a92906004016133ac565b602060405180830381865afa15801561240a573d6000803e3d6000fd5b505050506040513d601f19601f8201168201806040525081019061221b91906133e5565b60008061243a8361252f565b90505b845151602086015110156125235760a085015160c0860151600091612470916124679082906130c9565b88519190612265565b90508161ffff16816000015161ffff161461248b5750612515565b846040015160ff16816020015160ff16146124a65750612515565b6040805180820190915260608152600060208201526124d3855189516124cc91906130f5565b8290612773565b506124de81896127d8565b506124e981866127d8565b506125018260400151826000015184606001516127ff565b156125125760019350505050610bec565b50505b61251e85610e4c565b61243d565b50600095945050505050565b60006120008251111561259e576040517f08c379a000000000000000000000000000000000000000000000000000000000815260206004820152601760248201527f4c6f6e67206b657973206e6f74207065726d69747465640000000000000000006044820152606401611527565b60008060005b8451601f0181101561261357600081602087010151905085518260200111156125d95785518290036008026101000390811c901b5b7eff00ff00ff00ff00ff00ff00ff00ff00ff00ff00ff00ff00ff00ff00ff00ff600882901c811694909401931691909101906020016125a4565b506010827fffff0000ffff0000ffff0000ffff0000ffff0000ffff0000ffff0000ffff000016901c827dffff0000ffff0000ffff0000ffff0000ffff0000ffff0000ffff0000ffff160191506010817fffff0000ffff0000ffff0000ffff0000ffff0000ffff0000ffff0000ffff000016901c817dffff0000ffff0000ffff0000ffff0000ffff0000ffff0000ffff0000ffff1601905080600883901b0191506020827fffffffff00000000ffffffff00000000ffffffff00000000ffffffff0000000016901c827bffffffff00000000ffffffff00000000ffffffff00000000ffffffff160191506040827fffffffffffffffff0000000000000000ffffffffffffffff000000000000000016901c8277ffffffffffffffff0000000000000000ffffffffffffffff16019150608082901c826fffffffffffffffffffffffffffffffff16019150601082901c61ffff16820191508192505050919050565b604080518082019091526060815260006020820152612793602083613288565b156127bb576127a3602083613288565b6127ae9060206130c9565b6127b890836130f5565b91505b506020828101829052604080518085526000815290920101905290565b604080518082019091526060815260006020820152610a13838460000151518485516128de565b60ff831660009081526004602052604081205473ffffffffffffffffffffffffffffffffffffffff16612834575060006108c6565b60ff84166000908152600460208190526040918290205491517ff7e83aee00000000000000000000000000000000000000000000000000000000815273ffffffffffffffffffffffffffffffffffffffff9092169163f7e83aee9161289d91879187910161314a565b602060405180830381865afa1580156128ba573d6000803e3d6000fd5b505050506040513d601f19601f82011682018060405250810190610bec91906133e5565b604080518082019091526060815260006020820152825182111561290157600080fd5b602085015161291083866130f5565b111561294357612943856129338760200151878661292e91906130f5565b6129c8565b61293e906002613271565b6129df565b6000808651805187602083010193508088870111156129625787860182525b505050602084015b602084106129a257805182526129816020836130f5565b915061298e6020826130f5565b905061299b6020856130c9565b935061296a565b51815160001960208690036101000a019081169019919091161790525083949350505050565b6000818311156129d9575081610a16565b50919050565b81516129eb8383612773565b5061083f83826127d8565b803560ff81168114612a0757600080fd5b919050565b73ffffffffffffffffffffffffffffffffffffffff81168114612a2e57600080fd5b50565b60008060408385031215612a4457600080fd5b612a4d836129f6565b91506020830135612a5d81612a0c565b809150509250929050565b803561ffff81168114612a0757600080fd5b60008083601f840112612a8c57600080fd5b50813567ffffffffffffffff811115612aa457600080fd5b602083019150836020828501011115612abc57600080fd5b9250929050565b600080600060408486031215612ad857600080fd5b612ae184612a68565b9250602084013567ffffffffffffffff811115612afd57600080fd5b612b0986828701612a7a565b9497909650939450505050565b7f4e487b7100000000000000000000000000000000000000000000000000000000600052604160045260246000fd5b604051601f82017fffffffffffffffffffffffffffffffffffffffffffffffffffffffffffffffe016810167ffffffffffffffff81118282101715612b8c57612b8c612b16565b604052919050565b600082601f830112612ba557600080fd5b813567ffffffffffffffff811115612bbf57612bbf612b16565b612bf060207fffffffffffffffffffffffffffffffffffffffffffffffffffffffffffffffe0601f84011601612b45565b818152846020838601011115612c0557600080fd5b816020850160208301376000918101602001919091529392505050565b600060408284031215612c3457600080fd5b6040516040810167ffffffffffffffff8282108183111715612c5857612c58612b16565b816040528293508435915080821115612c7057600080fd5b612c7c86838701612b94565b83526020850135915080821115612c9257600080fd5b50612c9f85828601612b94565b6020830152505092915050565b600080600080600060a08688031215612cc457600080fd5b612ccd86612a68565b9450602086013567ffffffffffffffff80821115612cea57600080fd5b612cf689838a01612b94565b95506040880135915080821115612d0c57600080fd5b612d1889838a01612c22565b94506060880135915080821115612d2e57600080fd5b612d3a89838a01612c22565b93506080880135915080821115612d5057600080fd5b50612d5d88828901612b94565b9150509295509295909350565b600060208284031215612d7c57600080fd5b8135610a1381612a0c565b60008060008060808587031215612d9d57600080fd5b612da685612a68565b9350602085013567ffffffffffffffff80821115612dc357600080fd5b612dcf88838901612b94565b94506040870135915080821115612de557600080fd5b612df188838901612c22565b93506060870135915080821115612e0757600080fd5b50612e1487828801612b94565b91505092959194509250565b600080600060408486031215612e3557600080fd5b833567ffffffffffffffff80821115612e4d57600080fd5b818601915086601f830112612e6157600080fd5b8135602082821115612e7557612e75612b16565b8160051b612e84828201612b45565b928352848101820192828101908b851115612e9e57600080fd5b83870192505b84831015612eda57823586811115612ebc5760008081fd5b612eca8d86838b0101612c22565b8352509183019190830190612ea4565b9850505087013592505080821115612ef157600080fd5b50612b0986828701612a7a565b6000815180845260005b81811015612f2457602081850181015186830182015201612f08565b5060006020828601015260207fffffffffffffffffffffffffffffffffffffffffffffffffffffffffffffffe0601f83011685010191505092915050565b602081526000610a136020830184612efe565b600060208284031215612f8757600080fd5b610a13826129f6565b60008060408385031215612fa357600080fd5b823567ffffffffffffffff80821115612fbb57600080fd5b612fc786838701612c22565b93506020850135915080821115612fdd57600080fd5b50612fea85828601612b94565b9150509250929050565b8183823760009101908152919050565b7f4e487b7100000000000000000000000000000000000000000000000000000000600052603260045260246000fd5b7f4e487b7100000000000000000000000000000000000000000000000000000000600052601160045260246000fd5b6000600019820361307557613075613033565b5060010190565b600181811c9082168061309057607f821691505b6020821081036129d9577f4e487b7100000000000000000000000000000000000000000000000000000000600052602260045260246000fd5b81810381811115610a1657610a16613033565b60ff8181168382160190811115610a1657610a16613033565b80820180821115610a1657610a16613033565b600382810b9082900b037fffffffffffffffffffffffffffffffffffffffffffffffffffffffff800000008112637fffffff82131715610a1657610a16613033565b60408152600061315d6040830185612efe565b8281036020840152610d068185612efe565b7f4e487b7100000000000000000000000000000000000000000000000000000000600052600160045260246000fd5b7f4e487b7100000000000000000000000000000000000000000000000000000000600052601260045260246000fd5b600061ffff808416806131e2576131e261319e565b92169190910492915050565b60ff8281168282160390811115610a1657610a16613033565b60608152600061321a6060830186612efe565b828103602084015261322c8186612efe565b91505061ffff83166040830152949350505050565b60006020828403121561325357600080fd5b5051919050565b60008161326957613269613033565b506000190190565b8082028115828204841417610a1657610a16613033565b6000826132975761329761319e565b500690565b600181815b808511156132d75781600019048211156132bd576132bd613033565b808516156132ca57918102915b93841c93908002906132a1565b509250929050565b6000826132ee57506001610a16565b816132fb57506000610a16565b8160018114613311576002811461331b57613337565b6001915050610a16565b60ff84111561332c5761332c613033565b50506001821b610a16565b5060208310610133831016604e8410600b841016171561335a575081810a610a16565b613364838361329c565b806000190482111561337857613378613033565b029392505050565b6000610a1383836132df565b8181036000831280158383131683831282161715610b0657610b06613033565b6060815260006133bf6060830186612efe565b82810360208401526133d18186612efe565b9050828103604084015261221b8185612efe565b6000602082840312156133f757600080fd5b81518015158114610a1357600080fdfe00010203040506070809ffffffffffffff0a0b0c0d0e0f101112131415161718191a1b1c1d1e1fffffffffffffffffffff0a0b0c0d0e0f101112131415161718191a1b1c1d1e1fa2646970667358221220f4a765afbe09f71eee2a22c6cc8c094723d066f0a65e8007f144a880682e63b564736f6c63430008110033",
  "devdoc": {
    "kind": "dev",
    "methods": {
      "constructor": {
        "details": "Constructor.",
        "params": {
          "_anchors": "The binary format RR entries for the root DS records."
        }
      },
      "deleteRRSet(uint16,bytes,(bytes,bytes),bytes)": {
        "details": "Deletes an RR from the oracle.",
        "params": {
          "deleteName": "which you want to delete",
          "deleteType": "The DNS record type to delete.",
          "nsec": "The signed NSEC RRset. This is in the format described in section        5.3.2 of RFC4035: The RRDATA section from the RRSIG without the signature        data, followed by a series of canonicalised RR records that the signature        applies to."
        }
      },
      "deleteRRSetNSEC3(uint16,bytes,(bytes,bytes),(bytes,bytes),bytes)": {
        "details": "Deletes an RR from the oracle using an NSEC3 proof.      Deleting a record using NSEC3 requires using up to two NSEC3 records. There are two cases:       1. The name exists, but the record type doesn't. Eg, example.com has A records but no TXT records.       2. The name does not exist, but a parent name does.      In the first case, we submit one NSEC3 proof in `closestEncloser` that matches the target name      but does not have the bit for `deleteType` set in its type bitmap. In the second case, we submit      two proofs: closestEncloser and nextClosest, that together prove that the name does not exist.      NSEC3 records are in the format described in section 5.3.2 of RFC4035: The RRDATA section      from the RRSIG without the signature data, followed by a series of canonicalised RR records      that the signature applies to.",
        "params": {
          "closestEncloser": "An NSEC3 proof matching the closest enclosing name - that is,        the nearest ancestor of the target name that *does* exist.",
          "deleteName": "The name to delete.",
          "deleteType": "The DNS record type to delete.",
          "dnskey": "An encoded DNSKEY record that has already been submitted to the oracle and can be used        to verify the signatures closestEncloserSig and nextClosestSig",
          "nextClosest": "An NSEC3 proof covering the next closest name. This proves that the immediate        subdomain of the closestEncloser does not exist."
        }
      },
      "rrdata(uint16,bytes)": {
        "details": "Returns data about the RRs (if any) known to this oracle with the provided type and name.",
        "params": {
          "dnstype": "The DNS record type to query.",
          "name": "The name to query, in DNS label-sequence format."
        },
        "returns": {
          "_0": "inception The unix timestamp (wrapped) at which the signature for this RRSET was created.",
          "_1": "expiration The unix timestamp (wrapped) at which the signature for this RRSET expires.",
          "_2": "hash The hash of the RRset."
        }
      },
      "setAlgorithm(uint8,address)": {
        "details": "Sets the contract address for a signature verification algorithm.      Callable only by the owner.",
        "params": {
          "algo": "The address of the algorithm contract.",
          "id": "The algorithm ID"
        }
      },
      "setDigest(uint8,address)": {
        "details": "Sets the contract address for a digest verification algorithm.      Callable only by the owner.",
        "params": {
          "digest": "The address of the digest contract.",
          "id": "The digest ID"
        }
      },
      "setNSEC3Digest(uint8,address)": {
        "details": "Sets the contract address for an NSEC3 digest algorithm.      Callable only by the owner.",
        "params": {
          "digest": "The address of the digest contract.",
          "id": "The digest ID"
        }
      },
      "submitRRSet((bytes,bytes),bytes)": {
        "details": "Submits a signed set of RRs to the oracle. RRSETs are only accepted if they are signed with a key that is already trusted, or if they are self-signed, and the signing key is identified by a DS record that is already trusted.",
        "params": {
          "input": "The signed RR set. This is in the format described in section        5.3.2 of RFC4035: The RRDATA section from the RRSIG without the signature        data, followed by a series of canonicalised RR records that the signature        applies to.",
          "proof": "The DNSKEY or DS to validate the signature against. Must Already        have been submitted and proved previously."
        }
      },
      "submitRRSets((bytes,bytes)[],bytes)": {
        "details": "Submits multiple RRSets",
        "params": {
          "_proof": "The DNSKEY or DS to validate the first signature against.",
          "input": "A list of RRSets and signatures forming a chain of trust from an existing known-good record."
        },
        "returns": {
          "_0": "The last RRSET submitted."
        }
      }
    },
    "version": 1
  },
  "userdoc": {
    "kind": "user",
    "methods": {},
    "version": 1
  },
  "storageLayout": {
    "storage": [
      {
        "astId": 4939,
        "contract": "contracts/dnssec-oracle/DNSSECImpl.sol:DNSSECImpl_Old",
        "label": "anchors",
        "offset": 0,
        "slot": "0",
        "type": "t_bytes_storage"
      },
      {
        "astId": 6779,
        "contract": "contracts/dnssec-oracle/DNSSECImpl.sol:DNSSECImpl_Old",
        "label": "owner",
        "offset": 0,
        "slot": "1",
        "type": "t_address"
      },
      {
        "astId": 5104,
        "contract": "contracts/dnssec-oracle/DNSSECImpl.sol:DNSSECImpl_Old",
        "label": "rrsets",
        "offset": 0,
        "slot": "2",
        "type": "t_mapping(t_bytes32,t_mapping(t_uint16,t_struct(RRSet)5097_storage))"
      },
      {
        "astId": 5109,
        "contract": "contracts/dnssec-oracle/DNSSECImpl.sol:DNSSECImpl_Old",
        "label": "algorithms",
        "offset": 0,
        "slot": "3",
        "type": "t_mapping(t_uint8,t_contract(Algorithm)8186)"
      },
      {
        "astId": 5114,
        "contract": "contracts/dnssec-oracle/DNSSECImpl.sol:DNSSECImpl_Old",
        "label": "digests",
        "offset": 0,
        "slot": "4",
        "type": "t_mapping(t_uint8,t_contract(Digest)10027)"
      },
      {
        "astId": 5119,
        "contract": "contracts/dnssec-oracle/DNSSECImpl.sol:DNSSECImpl_Old",
        "label": "nsec3Digests",
        "offset": 0,
        "slot": "5",
        "type": "t_mapping(t_uint8,t_contract(NSEC3Digest)10149)"
      }
    ],
    "types": {
      "t_address": {
        "encoding": "inplace",
        "label": "address",
        "numberOfBytes": "20"
      },
      "t_bytes20": {
        "encoding": "inplace",
        "label": "bytes20",
        "numberOfBytes": "20"
      },
      "t_bytes32": {
        "encoding": "inplace",
        "label": "bytes32",
        "numberOfBytes": "32"
      },
      "t_bytes_storage": {
        "encoding": "bytes",
        "label": "bytes",
        "numberOfBytes": "32"
      },
      "t_contract(Algorithm)8186": {
        "encoding": "inplace",
        "label": "contract Algorithm",
        "numberOfBytes": "20"
      },
      "t_contract(Digest)10027": {
        "encoding": "inplace",
        "label": "contract Digest",
        "numberOfBytes": "20"
      },
      "t_contract(NSEC3Digest)10149": {
        "encoding": "inplace",
        "label": "contract NSEC3Digest",
        "numberOfBytes": "20"
      },
      "t_mapping(t_bytes32,t_mapping(t_uint16,t_struct(RRSet)5097_storage))": {
        "encoding": "mapping",
        "key": "t_bytes32",
        "label": "mapping(bytes32 => mapping(uint16 => struct DNSSECImpl_Old.RRSet))",
        "numberOfBytes": "32",
        "value": "t_mapping(t_uint16,t_struct(RRSet)5097_storage)"
      },
      "t_mapping(t_uint16,t_struct(RRSet)5097_storage)": {
        "encoding": "mapping",
        "key": "t_uint16",
        "label": "mapping(uint16 => struct DNSSECImpl_Old.RRSet)",
        "numberOfBytes": "32",
        "value": "t_struct(RRSet)5097_storage"
      },
      "t_mapping(t_uint8,t_contract(Algorithm)8186)": {
        "encoding": "mapping",
        "key": "t_uint8",
        "label": "mapping(uint8 => contract Algorithm)",
        "numberOfBytes": "32",
        "value": "t_contract(Algorithm)8186"
      },
      "t_mapping(t_uint8,t_contract(Digest)10027)": {
        "encoding": "mapping",
        "key": "t_uint8",
        "label": "mapping(uint8 => contract Digest)",
        "numberOfBytes": "32",
        "value": "t_contract(Digest)10027"
      },
      "t_mapping(t_uint8,t_contract(NSEC3Digest)10149)": {
        "encoding": "mapping",
        "key": "t_uint8",
        "label": "mapping(uint8 => contract NSEC3Digest)",
        "numberOfBytes": "32",
        "value": "t_contract(NSEC3Digest)10149"
      },
      "t_struct(RRSet)5097_storage": {
        "encoding": "inplace",
        "label": "struct DNSSECImpl_Old.RRSet",
        "members": [
          {
            "astId": 5092,
            "contract": "contracts/dnssec-oracle/DNSSECImpl.sol:DNSSECImpl_Old",
            "label": "inception",
            "offset": 0,
            "slot": "0",
            "type": "t_uint32"
          },
          {
            "astId": 5094,
            "contract": "contracts/dnssec-oracle/DNSSECImpl.sol:DNSSECImpl_Old",
            "label": "expiration",
            "offset": 4,
            "slot": "0",
            "type": "t_uint32"
          },
          {
            "astId": 5096,
            "contract": "contracts/dnssec-oracle/DNSSECImpl.sol:DNSSECImpl_Old",
            "label": "hash",
            "offset": 8,
            "slot": "0",
            "type": "t_bytes20"
          }
        ],
        "numberOfBytes": "32"
      },
      "t_uint16": {
        "encoding": "inplace",
        "label": "uint16",
        "numberOfBytes": "2"
      },
      "t_uint32": {
        "encoding": "inplace",
        "label": "uint32",
        "numberOfBytes": "4"
      },
      "t_uint8": {
        "encoding": "inplace",
        "label": "uint8",
        "numberOfBytes": "1"
      }
    }
  }
}