{
  "address": "0x5e7e859d79a0be05b16d546b3815CE653E803233",
  "abi": [
    {
      "inputs": [
        {
          "internalType": "address payable",
          "name": "_fetchAddress",
          "type": "address"
        }
      ],
      "stateMutability": "nonpayable",
      "type": "constructor"
    },
    {
      "inputs": [],
      "name": "PriceOutdated",
      "type": "error"
    },
    {
      "inputs": [],
      "name": "fetch",
      "outputs": [
        {
          "internalType": "contract IFetch",
          "name": "",
          "type": "address"
        }
      ],
      "stateMutability": "view",
      "type": "function"
    },
    {
      "inputs": [
        {
          "internalType": "bytes32",
          "name": "_queryId",
          "type": "bytes32"
        },
        {
          "internalType": "uint256",
          "name": "_timestamp",
          "type": "uint256"
        }
      ],
      "name": "getDataAfter",
      "outputs": [
        {
          "internalType": "bytes",
          "name": "_value",
          "type": "bytes"
        },
        {
          "internalType": "uint256",
          "name": "_timestampRetrieved",
          "type": "uint256"
        }
      ],
      "stateMutability": "view",
      "type": "function"
    },
    {
      "inputs": [
        {
          "internalType": "bytes32",
          "name": "_queryId",
          "type": "bytes32"
        },
        {
          "internalType": "uint256",
          "name": "_timestamp",
          "type": "uint256"
        }
      ],
      "name": "getDataBefore",
      "outputs": [
        {
          "internalType": "bytes",
          "name": "_value",
          "type": "bytes"
        },
        {
          "internalType": "uint256",
          "name": "_timestampRetrieved",
          "type": "uint256"
        }
      ],
      "stateMutability": "view",
      "type": "function"
    },
    {
      "inputs": [
        {
          "internalType": "bytes32",
          "name": "_queryId",
          "type": "bytes32"
        },
        {
          "internalType": "uint256",
          "name": "_timestamp",
          "type": "uint256"
        }
      ],
      "name": "getIndexForDataAfter",
      "outputs": [
        {
          "internalType": "bool",
          "name": "_found",
          "type": "bool"
        },
        {
          "internalType": "uint256",
          "name": "_index",
          "type": "uint256"
        }
      ],
      "stateMutability": "view",
      "type": "function"
    },
    {
      "inputs": [
        {
          "internalType": "bytes32",
          "name": "_queryId",
          "type": "bytes32"
        },
        {
          "internalType": "uint256",
          "name": "_timestamp",
          "type": "uint256"
        }
      ],
      "name": "getIndexForDataBefore",
      "outputs": [
        {
          "internalType": "bool",
          "name": "_found",
          "type": "bool"
        },
        {
          "internalType": "uint256",
          "name": "_index",
          "type": "uint256"
        }
      ],
      "stateMutability": "view",
      "type": "function"
    },
    {
      "inputs": [
        {
          "internalType": "bytes32",
          "name": "_queryId",
          "type": "bytes32"
        },
        {
          "internalType": "uint256",
          "name": "_timestamp",
          "type": "uint256"
        },
        {
          "internalType": "uint256",
          "name": "_maxAge",
          "type": "uint256"
        },
        {
          "internalType": "uint256",
          "name": "_maxCount",
          "type": "uint256"
        }
      ],
      "name": "getMultipleValuesBefore",
      "outputs": [
        {
          "internalType": "bytes[]",
          "name": "_values",
          "type": "bytes[]"
        },
        {
          "internalType": "uint256[]",
          "name": "_timestamps",
          "type": "uint256[]"
        }
      ],
      "stateMutability": "view",
      "type": "function"
    },
    {
      "inputs": [
        {
          "internalType": "bytes32",
          "name": "_queryId",
          "type": "bytes32"
        }
      ],
      "name": "getNewValueCountbyQueryId",
      "outputs": [
        {
          "internalType": "uint256",
          "name": "",
          "type": "uint256"
        }
      ],
      "stateMutability": "view",
      "type": "function"
    },
    {
      "inputs": [
        {
          "internalType": "bytes32",
          "name": "_queryId",
          "type": "bytes32"
        },
        {
          "internalType": "uint256",
          "name": "_timestamp",
          "type": "uint256"
        }
      ],
      "name": "getReporterByTimestamp",
      "outputs": [
        {
          "internalType": "address",
          "name": "",
          "type": "address"
        }
      ],
      "stateMutability": "view",
      "type": "function"
    },
    {
      "inputs": [
        {
          "internalType": "bytes32",
          "name": "_queryId",
          "type": "bytes32"
        },
        {
          "internalType": "uint256",
          "name": "_index",
          "type": "uint256"
        }
      ],
      "name": "getTimestampbyQueryIdandIndex",
      "outputs": [
        {
          "internalType": "uint256",
          "name": "",
          "type": "uint256"
        }
      ],
      "stateMutability": "view",
      "type": "function"
    },
    {
      "inputs": [],
      "name": "idMappingContract",
      "outputs": [
        {
          "internalType": "contract IMappingContract",
          "name": "",
          "type": "address"
        }
      ],
      "stateMutability": "view",
      "type": "function"
    },
    {
      "inputs": [
        {
          "internalType": "bytes32",
          "name": "_queryId",
          "type": "bytes32"
        },
        {
          "internalType": "uint256",
          "name": "_timestamp",
          "type": "uint256"
        }
      ],
      "name": "isInDispute",
      "outputs": [
        {
          "internalType": "bool",
          "name": "",
          "type": "bool"
        }
      ],
      "stateMutability": "view",
      "type": "function"
    },
    {
      "inputs": [],
      "name": "latestAnswer",
      "outputs": [
        {
          "internalType": "int256",
          "name": "",
          "type": "int256"
        }
      ],
      "stateMutability": "view",
      "type": "function"
    },
    {
      "inputs": [
        {
          "internalType": "bytes32",
          "name": "_queryId",
          "type": "bytes32"
        },
        {
          "internalType": "uint256",
          "name": "_timestamp",
          "type": "uint256"
        }
      ],
      "name": "retrieveData",
      "outputs": [
        {
          "internalType": "bytes",
          "name": "",
          "type": "bytes"
        }
      ],
      "stateMutability": "view",
      "type": "function"
    },
    {
      "inputs": [
        {
          "internalType": "address",
          "name": "_addy",
          "type": "address"
        }
      ],
      "name": "setIdMappingContract",
      "outputs": [],
      "stateMutability": "nonpayable",
      "type": "function"
    },
    {
      "inputs": [
        {
          "internalType": "bytes32",
          "name": "_id",
          "type": "bytes32"
        }
      ],
      "name": "valueFor",
      "outputs": [
        {
          "internalType": "int256",
          "name": "_value",
          "type": "int256"
        },
        {
          "internalType": "uint256",
          "name": "_timestamp",
          "type": "uint256"
        },
        {
          "internalType": "uint256",
          "name": "_statusCode",
          "type": "uint256"
        }
      ],
      "stateMutability": "view",
      "type": "function"
    }
  ],
  "transactionHash": "0x6d8ee9e63d05ab3ee085f484ae6104579d99ca6737291537a482ac7361f30772",
  "args": [
    "0x252eC80dEa7F3eD0CC57e0f1112d6f56Ae9523fb"
  ],
  "numDeployments": 1,
  "solcInputHash": "ed35acf8aa73feb0b1cd49fec99fc1a7",
  "bytecode": "0x608060405234801561001057600080fd5b506040516113db3803806113db83398101604081905261002f91610054565b600080546001600160a01b0319166001600160a01b0392909216919091179055610084565b60006020828403121561006657600080fd5b81516001600160a01b038116811461007d57600080fd5b9392505050565b611348806100936000396000f3fe608060405234801561001057600080fd5b50600436106100f55760003560e01c8063a792765f11610097578063e07c548611610066578063e07c54861461022f578063f66f49c314610242578063f78eea8314610255578063fcd4a5461461028357600080fd5b8063a792765f146101d6578063a95c372d146101e9578063c5958af9146101fc578063ce5e11bf1461021c57600080fd5b806344e87f91116100d357806344e87f911461016957806350d25bcd1461018c57806364ee3c6d146101a257806377b03e0d146101c357600080fd5b8063193b505b146100fa578063294490851461010f5780632af8aae01461013e575b600080fd5b61010d610108366004610e9b565b6102a4565b005b61012261011d366004610ebf565b6102f4565b6040805192151583526020830191909152015b60405180910390f35b600154610151906001600160a01b031681565b6040516001600160a01b039091168152602001610135565b61017c610177366004610ebf565b61038d565b6040519015158152602001610135565b610194610424565b604051908152602001610135565b6101b56101b0366004610ebf565b610574565b604051610135929190610f31565b6101946101d1366004610f53565b6105cd565b6101b56101e4366004610ebf565b610654565b600054610151906001600160a01b031681565b61020f61020a366004610ebf565b6106f4565b6040516101359190610f6c565b61019461022a366004610ebf565b610786565b61015161023d366004610ebf565b610814565b610122610250366004610ebf565b6108a2565b610268610263366004610f53565b610a5f565b60408051938452602084019290925290820152606001610135565b610296610291366004610f7f565b610b3d565b604051610135929190610fb1565b6001546001600160a01b0316156102ba57600080fd5b600180547fffffffffffffffffffffffff0000000000000000000000000000000000000000166001600160a01b0392909216919091179055565b600080546040517f29449085000000000000000000000000000000000000000000000000000000008152600481018590526024810184905282916001600160a01b0316906329449085906044016040805180830381865afa15801561035d573d6000803e3d6000fd5b505050506040513d601f19601f820116820180604052508101906103819190611061565b915091505b9250929050565b600080546040517f44e87f9100000000000000000000000000000000000000000000000000000000815260048101859052602481018490526001600160a01b03909116906344e87f9190604401602060405180830381865afa1580156103f7573d6000803e3d6000fd5b505050506040513d601f19601f8201168201806040525081019061041b919061108d565b90505b92915050565b60008060405160200161049c90604080825260039082018190527f706c73000000000000000000000000000000000000000000000000000000000060608301526080602083018190528201527f757364000000000000000000000000000000000000000000000000000000000060a082015260c00190565b60408051601f19818403018152908290526104b9916020016110a8565b60408051601f19818403018152919052805160208201209091506000806104e6836101e461025842611105565b9092509050620151806104f98242611105565b1115610531576040517f3baab38100000000000000000000000000000000000000000000000000000000815260040160405180910390fd5b6000828060200190518101906105479190611118565b9050670de0b6b3a7640000610560826305f5e100611131565b61056a9190611148565b9550505050505090565b6060600080600061058586866108a2565b91509150816105ac5760006040518060200160405280600081525090935093505050610386565b6105b68682610786565b92506105c286846106f4565b935050509250929050565b600080546040517f77b03e0d000000000000000000000000000000000000000000000000000000008152600481018490526001600160a01b03909116906377b03e0d90602401602060405180830381865afa158015610630573d6000803e3d6000fd5b505050506040513d601f19601f8201168201806040525081019061041e9190611118565b600080546040517fa792765f0000000000000000000000000000000000000000000000000000000081526004810185905260248101849052606092916001600160a01b03169063a792765f90604401600060405180830381865afa1580156106c0573d6000803e3d6000fd5b505050506040513d6000823e601f3d908101601f191682016040526106e89190810190611208565b90969095509350505050565b6000546040517fc5958af900000000000000000000000000000000000000000000000000000000815260048101849052602481018390526060916001600160a01b03169063c5958af990604401600060405180830381865afa15801561075e573d6000803e3d6000fd5b505050506040513d6000823e601f3d908101601f1916820160405261041b919081019061125f565b600080546040517fce5e11bf00000000000000000000000000000000000000000000000000000000815260048101859052602481018490526001600160a01b039091169063ce5e11bf90604401602060405180830381865afa1580156107f0573d6000803e3d6000fd5b505050506040513d601f19601f8201168201806040525081019061041b9190611118565b600080546040517fe07c548600000000000000000000000000000000000000000000000000000000815260048101859052602481018490526001600160a01b039091169063e07c548690604401602060405180830381865afa15801561087e573d6000803e3d6000fd5b505050506040513d601f19601f8201168201806040525081019061041b919061129c565b60008060006108b0856105cd565b9050806000036108c7576000809250925050610386565b806108d1816112b9565b91506001905060008083816108e68a83610786565b90508881116109015760008097509750505050505050610386565b61090b8a84610786565b90508881111561091a57600094505b84156109ca57600261092c84846112d0565b6109369190611148565b93506109428a85610786565b90508881111561098357600061095d8b61022a600188611105565b905089811161096f576000955061097d565b61097a600186611105565b92505b5061091a565b60006109948b61022a8760016112d0565b9050898111156109b75760009550846109ac816112e3565b95505080915061097d565b6109c28560016112d0565b93505061091a565b6109d48a8261038d565b6109ea5760018497509750505050505050610386565b6109f48a8261038d565b80156109ff57508584105b15610a225783610a0e816112e3565b945050610a1b8a85610786565b90506109ea565b8584148015610a365750610a368a8261038d565b15610a4d5760008097509750505050505050610386565b60018497509750505050505050610386565b6001546040517fd21d79ee000000000000000000000000000000000000000000000000000000008152600481018390526000918291829182916001600160a01b039091169063d21d79ee90602401602060405180830381865afa158015610aca573d6000803e3d6000fd5b505050506040513d601f19601f82011682018060405250810190610aee9190611118565b90506060610b01826101e44260016112d0565b945090506000849003610b21576000806101949450945094505050610b36565b6000610b2c82610e2c565b955060c893505050505b9193909250565b606080600080610b5188610250888a611105565b9150915081610ba2576040805160008082526020820190925290610b85565b6060815260200190600190039081610b705790505b506040805160008152602081019091529094509250610e23915050565b6000610bae89896102f4565b909350905082610c01576040805160008082526020820190925290610be3565b6060815260200190600190039081610bce5790505b506040805160008152602081019091529095509350610e2392505050565b60008060008867ffffffffffffffff811115610c1f57610c1f61116a565b604051908082528060200260200182016040528015610c48578160200160208202803683370190505b5090505b8883108015610c6f57508482610c638660016112d0565b610c6d9190611105565b115b15610cd3576000610c848d61022a8588611105565b9050610c908d8261038d565b610cc05780828581518110610ca757610ca76112fc565b602090810291909101015283610cbc816112e3565b9450505b82610cca816112e3565b93505050610c4c565b60008367ffffffffffffffff811115610cee57610cee61116a565b604051908082528060200260200182016040528015610d2157816020015b6060815260200190600190039081610d0c5790505b50905060008467ffffffffffffffff811115610d3f57610d3f61116a565b604051908082528060200260200182016040528015610d68578160200160208202803683370190505b50905060005b85811015610e16578381610d83600189611105565b610d8d9190611105565b81518110610d9d57610d9d6112fc565b6020026020010151828281518110610db757610db76112fc565b602002602001018181525050610de68f838381518110610dd957610dd96112fc565b60200260200101516106f4565b838281518110610df857610df86112fc565b60200260200101819052508080610e0e906112e3565b915050610d6e565b5090985096505050505050505b94509492505050565b6000805b8251811015610e7d57828181518110610e4b57610e4b6112fc565b016020015160f81c610e5f83610100611131565b610e6991906112d0565b915080610e75816112e3565b915050610e30565b50919050565b6001600160a01b0381168114610e9857600080fd5b50565b600060208284031215610ead57600080fd5b8135610eb881610e83565b9392505050565b60008060408385031215610ed257600080fd5b50508035926020909101359150565b60005b83811015610efc578181015183820152602001610ee4565b50506000910152565b60008151808452610f1d816020860160208601610ee1565b601f01601f19169290920160200192915050565b604081526000610f446040830185610f05565b90508260208301529392505050565b600060208284031215610f6557600080fd5b5035919050565b60208152600061041b6020830184610f05565b60008060008060808587031215610f9557600080fd5b5050823594602084013594506040840135936060013592509050565b6000604082016040835280855180835260608501915060608160051b8601019250602080880160005b8381101561100857605f19888703018552610ff6868351610f05565b95509382019390820190600101610fda565b50508584038187015286518085528782019482019350915060005b8281101561103f57845184529381019392810192600101611023565b5091979650505050505050565b8051801515811461105c57600080fd5b919050565b6000806040838503121561107457600080fd5b61107d8361104c565b9150602083015190509250929050565b60006020828403121561109f57600080fd5b61041b8261104c565b60408152600960408201527f53706f7450726963650000000000000000000000000000000000000000000000606082015260806020820152600061041b6080830184610f05565b634e487b7160e01b600052601160045260246000fd5b8181038181111561041e5761041e6110ef565b60006020828403121561112a57600080fd5b5051919050565b808202811582820484141761041e5761041e6110ef565b60008261116557634e487b7160e01b600052601260045260246000fd5b500490565b634e487b7160e01b600052604160045260246000fd5b600082601f83011261119157600080fd5b815167ffffffffffffffff808211156111ac576111ac61116a565b604051601f8301601f19908116603f011681019082821181831017156111d4576111d461116a565b816040528381528660208588010111156111ed57600080fd5b6111fe846020830160208901610ee1565b9695505050505050565b60008060006060848603121561121d57600080fd5b6112268461104c565b9250602084015167ffffffffffffffff81111561124257600080fd5b61124e86828701611180565b925050604084015190509250925092565b60006020828403121561127157600080fd5b815167ffffffffffffffff81111561128857600080fd5b61129484828501611180565b949350505050565b6000602082840312156112ae57600080fd5b8151610eb881610e83565b6000816112c8576112c86110ef565b506000190190565b8082018082111561041e5761041e6110ef565b6000600182016112f5576112f56110ef565b5060010190565b634e487b7160e01b600052603260045260246000fdfea264697066735822122022fd1d65f3e94a614a8912aca49b6e8de860967a50275b4077bec7149672a53f64736f6c63430008110033",
  "devdoc": {
    "kind": "dev",
    "methods": {
      "getDataAfter(bytes32,uint256)": {
        "details": "Retrieves the next value for the queryId after the specified timestamp",
        "params": {
          "_queryId": "is the queryId to look up the value for",
          "_timestamp": "after which to search for next value"
        },
        "returns": {
          "_timestampRetrieved": "the value's timestamp",
          "_value": "the value retrieved"
        }
      },
      "getDataBefore(bytes32,uint256)": {
        "details": "Retrieves the latest value for the queryId before the specified timestamp",
        "params": {
          "_queryId": "is the queryId to look up the value for",
          "_timestamp": "before which to search for latest value"
        },
        "returns": {
          "_timestampRetrieved": "the value's timestamp",
          "_value": "the value retrieved"
        }
      },
      "getIndexForDataAfter(bytes32,uint256)": {
        "details": "Retrieves latest array index of data before the specified timestamp for the queryId",
        "params": {
          "_queryId": "is the queryId to look up the index for",
          "_timestamp": "is the timestamp before which to search for the latest index"
        },
        "returns": {
          "_found": "whether the index was found",
          "_index": "the latest index found before the specified timestamp"
        }
      },
      "getIndexForDataBefore(bytes32,uint256)": {
        "details": "Retrieves latest array index of data before the specified timestamp for the queryId",
        "params": {
          "_queryId": "is the queryId to look up the index for",
          "_timestamp": "is the timestamp before which to search for the latest index"
        },
        "returns": {
          "_found": "whether the index was found",
          "_index": "the latest index found before the specified timestamp"
        }
      },
      "getMultipleValuesBefore(bytes32,uint256,uint256,uint256)": {
        "details": "Retrieves multiple uint256 values before the specified timestamp",
        "params": {
          "_maxAge": "the maximum number of seconds before the _timestamp to search for values",
          "_maxCount": "the maximum number of values to return",
          "_queryId": "the unique id of the data query",
          "_timestamp": "the timestamp before which to search for values"
        },
        "returns": {
          "_timestamps": "the timestamps of the values retrieved",
          "_values": "the values retrieved, ordered from oldest to newest"
        }
      },
      "getNewValueCountbyQueryId(bytes32)": {
        "details": "Counts the number of values that have been submitted for the queryId",
        "params": {
          "_queryId": "the id to look up"
        },
        "returns": {
          "_0": "uint256 count of the number of values received for the queryId"
        }
      },
      "getReporterByTimestamp(bytes32,uint256)": {
        "details": "Returns the address of the reporter who submitted a value for a data ID at a specific time",
        "params": {
          "_queryId": "is ID of the specific data feed",
          "_timestamp": "is the timestamp to find a corresponding reporter for"
        },
        "returns": {
          "_0": "address of the reporter who reported the value for the data ID at the given timestamp"
        }
      },
      "getTimestampbyQueryIdandIndex(bytes32,uint256)": {
        "details": "Gets the timestamp for the value based on their index",
        "params": {
          "_index": "is the value index to look up",
          "_queryId": "is the id to look up"
        },
        "returns": {
          "_0": "uint256 timestamp"
        }
      },
      "isInDispute(bytes32,uint256)": {
        "details": "Determines whether a value with a given queryId and timestamp has been disputed",
        "params": {
          "_queryId": "is the value id to look up",
          "_timestamp": "is the timestamp of the value to look up"
        },
        "returns": {
          "_0": "bool true if queryId/timestamp is under dispute"
        }
      },
      "retrieveData(bytes32,uint256)": {
        "details": "Retrieve value from oracle based on queryId/timestamp",
        "params": {
          "_queryId": "being requested",
          "_timestamp": "to retrieve data/value from"
        },
        "returns": {
          "_0": "bytes value for query/timestamp submitted"
        }
      },
      "setIdMappingContract(address)": {
        "details": "allows dev to set mapping contract for valueFor (EIP2362)",
        "params": {
          "_addy": "address of mapping contract"
        }
      },
      "valueFor(bytes32)": {
        "details": "Retrieve most recent int256 value from oracle based on queryId",
        "params": {
          "_id": "being requested"
        },
        "returns": {
          "_statusCode": "200 if value found, 404 if not found",
          "_timestamp": "timestamp of most recent value",
          "_value": "most recent value submitted"
        }
      }
    },
    "version": 1
  },
  "userdoc": {
    "kind": "user",
    "methods": {},
    "version": 1
  },
  "storageLayout": {
    "storage": [
      {
        "astId": 19318,
        "contract": "contracts/tellor/FetchFlexOracle.sol:FetchFlexOracle",
        "label": "fetch",
        "offset": 0,
        "slot": "0",
        "type": "t_contract(IFetch)19259"
      },
      {
        "astId": 19321,
        "contract": "contracts/tellor/FetchFlexOracle.sol:FetchFlexOracle",
        "label": "idMappingContract",
        "offset": 0,
        "slot": "1",
        "type": "t_contract(IMappingContract)19307"
      }
    ],
    "types": {
      "t_contract(IFetch)19259": {
        "encoding": "inplace",
        "label": "contract IFetch",
        "numberOfBytes": "20"
      },
      "t_contract(IMappingContract)19307": {
        "encoding": "inplace",
        "label": "contract IMappingContract",
        "numberOfBytes": "20"
      }
    }
  }
}