{
  "address": "0xeec4601f1018E7F7A0A3FfEfF2c7fe7E4168b82E",
  "abi": [
    {
      "inputs": [
        {
          "internalType": "contract ENS",
          "name": "_ens",
          "type": "address"
        },
        {
          "internalType": "contract IBaseRegistrar",
          "name": "_registrar",
          "type": "address"
        },
        {
          "internalType": "contract IMetadataService",
          "name": "_metadataService",
          "type": "address"
        }
      ],
      "stateMutability": "nonpayable",
      "type": "constructor"
    },
    {
      "inputs": [],
      "name": "CannotUpgrade",
      "type": "error"
    },
    {
      "inputs": [],
      "name": "IncompatibleParent",
      "type": "error"
    },
    {
      "inputs": [
        {
          "internalType": "address",
          "name": "owner",
          "type": "address"
        }
      ],
      "name": "IncorrectTargetOwner",
      "type": "error"
    },
    {
      "inputs": [],
      "name": "IncorrectTokenType",
      "type": "error"
    },
    {
      "inputs": [
        {
          "internalType": "bytes32",
          "name": "labelHash",
          "type": "bytes32"
        },
        {
          "internalType": "bytes32",
          "name": "expectedLabelhash",
          "type": "bytes32"
        }
      ],
      "name": "LabelMismatch",
      "type": "error"
    },
    {
      "inputs": [
        {
          "internalType": "string",
          "name": "label",
          "type": "string"
        }
      ],
      "name": "LabelTooLong",
      "type": "error"
    },
    {
      "inputs": [],
      "name": "LabelTooShort",
      "type": "error"
    },
    {
      "inputs": [],
      "name": "NameIsNotWrapped",
      "type": "error"
    },
    {
      "inputs": [
        {
          "internalType": "bytes32",
          "name": "node",
          "type": "bytes32"
        }
      ],
      "name": "OperationProhibited",
      "type": "error"
    },
    {
      "inputs": [
        {
          "internalType": "bytes32",
          "name": "node",
          "type": "bytes32"
        },
        {
          "internalType": "address",
          "name": "addr",
          "type": "address"
        }
      ],
      "name": "Unauthorised",
      "type": "error"
    },
    {
      "anonymous": false,
      "inputs": [
        {
          "indexed": true,
          "internalType": "address",
          "name": "account",
          "type": "address"
        },
        {
          "indexed": true,
          "internalType": "address",
          "name": "operator",
          "type": "address"
        },
        {
          "indexed": false,
          "internalType": "bool",
          "name": "approved",
          "type": "bool"
        }
      ],
      "name": "ApprovalForAll",
      "type": "event"
    },
    {
      "anonymous": false,
      "inputs": [
        {
          "indexed": true,
          "internalType": "address",
          "name": "controller",
          "type": "address"
        },
        {
          "indexed": false,
          "internalType": "bool",
          "name": "active",
          "type": "bool"
        }
      ],
      "name": "ControllerChanged",
      "type": "event"
    },
    {
      "anonymous": false,
      "inputs": [
        {
          "indexed": true,
          "internalType": "bytes32",
          "name": "node",
          "type": "bytes32"
        },
        {
          "indexed": false,
          "internalType": "uint64",
          "name": "expiry",
          "type": "uint64"
        }
      ],
      "name": "ExpiryExtended",
      "type": "event"
    },
    {
      "anonymous": false,
      "inputs": [
        {
          "indexed": true,
          "internalType": "bytes32",
          "name": "node",
          "type": "bytes32"
        },
        {
          "indexed": false,
          "internalType": "uint32",
          "name": "fuses",
          "type": "uint32"
        }
      ],
      "name": "FusesSet",
      "type": "event"
    },
    {
      "anonymous": false,
      "inputs": [
        {
          "indexed": true,
          "internalType": "bytes32",
          "name": "node",
          "type": "bytes32"
        },
        {
          "indexed": false,
          "internalType": "address",
          "name": "owner",
          "type": "address"
        }
      ],
      "name": "NameUnwrapped",
      "type": "event"
    },
    {
      "anonymous": false,
      "inputs": [
        {
          "indexed": true,
          "internalType": "bytes32",
          "name": "node",
          "type": "bytes32"
        },
        {
          "indexed": false,
          "internalType": "bytes",
          "name": "name",
          "type": "bytes"
        },
        {
          "indexed": false,
          "internalType": "address",
          "name": "owner",
          "type": "address"
        },
        {
          "indexed": false,
          "internalType": "uint32",
          "name": "fuses",
          "type": "uint32"
        },
        {
          "indexed": false,
          "internalType": "uint64",
          "name": "expiry",
          "type": "uint64"
        }
      ],
      "name": "NameWrapped",
      "type": "event"
    },
    {
      "anonymous": false,
      "inputs": [
        {
          "indexed": true,
          "internalType": "address",
          "name": "previousOwner",
          "type": "address"
        },
        {
          "indexed": true,
          "internalType": "address",
          "name": "newOwner",
          "type": "address"
        }
      ],
      "name": "OwnershipTransferred",
      "type": "event"
    },
    {
      "anonymous": false,
      "inputs": [
        {
          "indexed": true,
          "internalType": "address",
          "name": "operator",
          "type": "address"
        },
        {
          "indexed": true,
          "internalType": "address",
          "name": "from",
          "type": "address"
        },
        {
          "indexed": true,
          "internalType": "address",
          "name": "to",
          "type": "address"
        },
        {
          "indexed": false,
          "internalType": "uint256[]",
          "name": "ids",
          "type": "uint256[]"
        },
        {
          "indexed": false,
          "internalType": "uint256[]",
          "name": "values",
          "type": "uint256[]"
        }
      ],
      "name": "TransferBatch",
      "type": "event"
    },
    {
      "anonymous": false,
      "inputs": [
        {
          "indexed": true,
          "internalType": "address",
          "name": "operator",
          "type": "address"
        },
        {
          "indexed": true,
          "internalType": "address",
          "name": "from",
          "type": "address"
        },
        {
          "indexed": true,
          "internalType": "address",
          "name": "to",
          "type": "address"
        },
        {
          "indexed": false,
          "internalType": "uint256",
          "name": "id",
          "type": "uint256"
        },
        {
          "indexed": false,
          "internalType": "uint256",
          "name": "value",
          "type": "uint256"
        }
      ],
      "name": "TransferSingle",
      "type": "event"
    },
    {
      "anonymous": false,
      "inputs": [
        {
          "indexed": false,
          "internalType": "string",
          "name": "value",
          "type": "string"
        },
        {
          "indexed": true,
          "internalType": "uint256",
          "name": "id",
          "type": "uint256"
        }
      ],
      "name": "URI",
      "type": "event"
    },
    {
      "inputs": [
        {
          "internalType": "uint256",
          "name": "",
          "type": "uint256"
        }
      ],
      "name": "_tokens",
      "outputs": [
        {
          "internalType": "uint256",
          "name": "",
          "type": "uint256"
        }
      ],
      "stateMutability": "view",
      "type": "function"
    },
    {
      "inputs": [
        {
          "internalType": "bytes32",
          "name": "node",
          "type": "bytes32"
        },
        {
          "internalType": "uint32",
          "name": "fuseMask",
          "type": "uint32"
        }
      ],
      "name": "allFusesBurned",
      "outputs": [
        {
          "internalType": "bool",
          "name": "",
          "type": "bool"
        }
      ],
      "stateMutability": "view",
      "type": "function"
    },
    {
      "inputs": [
        {
          "internalType": "address",
          "name": "account",
          "type": "address"
        },
        {
          "internalType": "uint256",
          "name": "id",
          "type": "uint256"
        }
      ],
      "name": "balanceOf",
      "outputs": [
        {
          "internalType": "uint256",
          "name": "",
          "type": "uint256"
        }
      ],
      "stateMutability": "view",
      "type": "function"
    },
    {
      "inputs": [
        {
          "internalType": "address[]",
          "name": "accounts",
          "type": "address[]"
        },
        {
          "internalType": "uint256[]",
          "name": "ids",
          "type": "uint256[]"
        }
      ],
      "name": "balanceOfBatch",
      "outputs": [
        {
          "internalType": "uint256[]",
          "name": "",
          "type": "uint256[]"
        }
      ],
      "stateMutability": "view",
      "type": "function"
    },
    {
      "inputs": [
        {
          "internalType": "bytes32",
          "name": "node",
          "type": "bytes32"
        },
        {
          "internalType": "address",
          "name": "addr",
          "type": "address"
        }
      ],
      "name": "canModifyName",
      "outputs": [
        {
          "internalType": "bool",
          "name": "",
          "type": "bool"
        }
      ],
      "stateMutability": "view",
      "type": "function"
    },
    {
      "inputs": [
        {
          "internalType": "address",
          "name": "",
          "type": "address"
        }
      ],
      "name": "controllers",
      "outputs": [
        {
          "internalType": "bool",
          "name": "",
          "type": "bool"
        }
      ],
      "stateMutability": "view",
      "type": "function"
    },
    {
      "inputs": [],
      "name": "ens",
      "outputs": [
        {
          "internalType": "contract ENS",
          "name": "",
          "type": "address"
        }
      ],
      "stateMutability": "view",
      "type": "function"
    },
    {
      "inputs": [
        {
          "internalType": "bytes32",
          "name": "parentNode",
          "type": "bytes32"
        },
        {
          "internalType": "bytes32",
          "name": "labelhash",
          "type": "bytes32"
        },
        {
          "internalType": "uint64",
          "name": "expiry",
          "type": "uint64"
        }
      ],
      "name": "extendExpiry",
      "outputs": [
        {
          "internalType": "uint64",
          "name": "",
          "type": "uint64"
        }
      ],
      "stateMutability": "nonpayable",
      "type": "function"
    },
    {
      "inputs": [
        {
          "internalType": "uint256",
          "name": "id",
          "type": "uint256"
        }
      ],
      "name": "getData",
      "outputs": [
        {
          "internalType": "address",
          "name": "owner",
          "type": "address"
        },
        {
          "internalType": "uint32",
          "name": "fuses",
          "type": "uint32"
        },
        {
          "internalType": "uint64",
          "name": "expiry",
          "type": "uint64"
        }
      ],
      "stateMutability": "view",
      "type": "function"
    },
    {
      "inputs": [
        {
          "internalType": "address",
          "name": "account",
          "type": "address"
        },
        {
          "internalType": "address",
          "name": "operator",
          "type": "address"
        }
      ],
      "name": "isApprovedForAll",
      "outputs": [
        {
          "internalType": "bool",
          "name": "",
          "type": "bool"
        }
      ],
      "stateMutability": "view",
      "type": "function"
    },
    {
      "inputs": [
        {
          "internalType": "bytes32",
          "name": "parentNode",
          "type": "bytes32"
        },
        {
          "internalType": "bytes32",
          "name": "labelhash",
          "type": "bytes32"
        }
      ],
      "name": "isWrapped",
      "outputs": [
        {
          "internalType": "bool",
          "name": "",
          "type": "bool"
        }
      ],
      "stateMutability": "view",
      "type": "function"
    },
    {
      "inputs": [
        {
          "internalType": "bytes32",
          "name": "node",
          "type": "bytes32"
        }
      ],
      "name": "isWrapped",
      "outputs": [
        {
          "internalType": "bool",
          "name": "",
          "type": "bool"
        }
      ],
      "stateMutability": "view",
      "type": "function"
    },
    {
      "inputs": [],
      "name": "metadataService",
      "outputs": [
        {
          "internalType": "contract IMetadataService",
          "name": "",
          "type": "address"
        }
      ],
      "stateMutability": "view",
      "type": "function"
    },
    {
      "inputs": [],
      "name": "name",
      "outputs": [
        {
          "internalType": "string",
          "name": "",
          "type": "string"
        }
      ],
      "stateMutability": "view",
      "type": "function"
    },
    {
      "inputs": [
        {
          "internalType": "bytes32",
          "name": "",
          "type": "bytes32"
        }
      ],
      "name": "names",
      "outputs": [
        {
          "internalType": "bytes",
          "name": "",
          "type": "bytes"
        }
      ],
      "stateMutability": "view",
      "type": "function"
    },
    {
      "inputs": [
        {
          "internalType": "address",
          "name": "to",
          "type": "address"
        },
        {
          "internalType": "address",
          "name": "",
          "type": "address"
        },
        {
          "internalType": "uint256",
          "name": "tokenId",
          "type": "uint256"
        },
        {
          "internalType": "bytes",
          "name": "data",
          "type": "bytes"
        }
      ],
      "name": "onERC721Received",
      "outputs": [
        {
          "internalType": "bytes4",
          "name": "",
          "type": "bytes4"
        }
      ],
      "stateMutability": "nonpayable",
      "type": "function"
    },
    {
      "inputs": [],
      "name": "owner",
      "outputs": [
        {
          "internalType": "address",
          "name": "",
          "type": "address"
        }
      ],
      "stateMutability": "view",
      "type": "function"
    },
    {
      "inputs": [
        {
          "internalType": "uint256",
          "name": "id",
          "type": "uint256"
        }
      ],
      "name": "ownerOf",
      "outputs": [
        {
          "internalType": "address",
          "name": "owner",
          "type": "address"
        }
      ],
      "stateMutability": "view",
      "type": "function"
    },
    {
      "inputs": [
        {
          "internalType": "address",
          "name": "_token",
          "type": "address"
        },
        {
          "internalType": "address",
          "name": "_to",
          "type": "address"
        },
        {
          "internalType": "uint256",
          "name": "_amount",
          "type": "uint256"
        }
      ],
      "name": "recoverFunds",
      "outputs": [],
      "stateMutability": "nonpayable",
      "type": "function"
    },
    {
      "inputs": [
        {
          "internalType": "string",
          "name": "label",
          "type": "string"
        },
        {
          "internalType": "address",
          "name": "wrappedOwner",
          "type": "address"
        },
        {
          "internalType": "uint256",
          "name": "duration",
          "type": "uint256"
        },
        {
          "internalType": "address",
          "name": "resolver",
          "type": "address"
        },
        {
          "internalType": "uint16",
          "name": "ownerControlledFuses",
          "type": "uint16"
        }
      ],
      "name": "registerAndWrapETH2LD",
      "outputs": [
        {
          "internalType": "uint256",
          "name": "registrarExpiry",
          "type": "uint256"
        }
      ],
      "stateMutability": "nonpayable",
      "type": "function"
    },
    {
      "inputs": [],
      "name": "registrar",
      "outputs": [
        {
          "internalType": "contract IBaseRegistrar",
          "name": "",
          "type": "address"
        }
      ],
      "stateMutability": "view",
      "type": "function"
    },
    {
      "inputs": [
        {
          "internalType": "uint256",
          "name": "tokenId",
          "type": "uint256"
        },
        {
          "internalType": "uint256",
          "name": "duration",
          "type": "uint256"
        }
      ],
      "name": "renew",
      "outputs": [
        {
          "internalType": "uint256",
          "name": "expires",
          "type": "uint256"
        }
      ],
      "stateMutability": "nonpayable",
      "type": "function"
    },
    {
      "inputs": [],
      "name": "renounceOwnership",
      "outputs": [],
      "stateMutability": "nonpayable",
      "type": "function"
    },
    {
      "inputs": [
        {
          "internalType": "address",
          "name": "from",
          "type": "address"
        },
        {
          "internalType": "address",
          "name": "to",
          "type": "address"
        },
        {
          "internalType": "uint256[]",
          "name": "ids",
          "type": "uint256[]"
        },
        {
          "internalType": "uint256[]",
          "name": "amounts",
          "type": "uint256[]"
        },
        {
          "internalType": "bytes",
          "name": "data",
          "type": "bytes"
        }
      ],
      "name": "safeBatchTransferFrom",
      "outputs": [],
      "stateMutability": "nonpayable",
      "type": "function"
    },
    {
      "inputs": [
        {
          "internalType": "address",
          "name": "from",
          "type": "address"
        },
        {
          "internalType": "address",
          "name": "to",
          "type": "address"
        },
        {
          "internalType": "uint256",
          "name": "id",
          "type": "uint256"
        },
        {
          "internalType": "uint256",
          "name": "amount",
          "type": "uint256"
        },
        {
          "internalType": "bytes",
          "name": "data",
          "type": "bytes"
        }
      ],
      "name": "safeTransferFrom",
      "outputs": [],
      "stateMutability": "nonpayable",
      "type": "function"
    },
    {
      "inputs": [
        {
          "internalType": "address",
          "name": "operator",
          "type": "address"
        },
        {
          "internalType": "bool",
          "name": "approved",
          "type": "bool"
        }
      ],
      "name": "setApprovalForAll",
      "outputs": [],
      "stateMutability": "nonpayable",
      "type": "function"
    },
    {
      "inputs": [
        {
          "internalType": "bytes32",
          "name": "parentNode",
          "type": "bytes32"
        },
        {
          "internalType": "bytes32",
          "name": "labelhash",
          "type": "bytes32"
        },
        {
          "internalType": "uint32",
          "name": "fuses",
          "type": "uint32"
        },
        {
          "internalType": "uint64",
          "name": "expiry",
          "type": "uint64"
        }
      ],
      "name": "setChildFuses",
      "outputs": [],
      "stateMutability": "nonpayable",
      "type": "function"
    },
    {
      "inputs": [
        {
          "internalType": "address",
          "name": "controller",
          "type": "address"
        },
        {
          "internalType": "bool",
          "name": "active",
          "type": "bool"
        }
      ],
      "name": "setController",
      "outputs": [],
      "stateMutability": "nonpayable",
      "type": "function"
    },
    {
      "inputs": [
        {
          "internalType": "bytes32",
          "name": "node",
          "type": "bytes32"
        },
        {
          "internalType": "uint16",
          "name": "ownerControlledFuses",
          "type": "uint16"
        }
      ],
      "name": "setFuses",
      "outputs": [
        {
          "internalType": "uint32",
          "name": "",
          "type": "uint32"
        }
      ],
      "stateMutability": "nonpayable",
      "type": "function"
    },
    {
      "inputs": [
        {
          "internalType": "contract IMetadataService",
          "name": "_metadataService",
          "type": "address"
        }
      ],
      "name": "setMetadataService",
      "outputs": [],
      "stateMutability": "nonpayable",
      "type": "function"
    },
    {
      "inputs": [
        {
          "internalType": "bytes32",
          "name": "node",
          "type": "bytes32"
        },
        {
          "internalType": "address",
          "name": "owner",
          "type": "address"
        },
        {
          "internalType": "address",
          "name": "resolver",
          "type": "address"
        },
        {
          "internalType": "uint64",
          "name": "ttl",
          "type": "uint64"
        }
      ],
      "name": "setRecord",
      "outputs": [],
      "stateMutability": "nonpayable",
      "type": "function"
    },
    {
      "inputs": [
        {
          "internalType": "bytes32",
          "name": "node",
          "type": "bytes32"
        },
        {
          "internalType": "address",
          "name": "resolver",
          "type": "address"
        }
      ],
      "name": "setResolver",
      "outputs": [],
      "stateMutability": "nonpayable",
      "type": "function"
    },
    {
      "inputs": [
        {
          "internalType": "bytes32",
          "name": "parentNode",
          "type": "bytes32"
        },
        {
          "internalType": "string",
          "name": "label",
          "type": "string"
        },
        {
          "internalType": "address",
          "name": "owner",
          "type": "address"
        },
        {
          "internalType": "uint32",
          "name": "fuses",
          "type": "uint32"
        },
        {
          "internalType": "uint64",
          "name": "expiry",
          "type": "uint64"
        }
      ],
      "name": "setSubnodeOwner",
      "outputs": [
        {
          "internalType": "bytes32",
          "name": "node",
          "type": "bytes32"
        }
      ],
      "stateMutability": "nonpayable",
      "type": "function"
    },
    {
      "inputs": [
        {
          "internalType": "bytes32",
          "name": "parentNode",
          "type": "bytes32"
        },
        {
          "internalType": "string",
          "name": "label",
          "type": "string"
        },
        {
          "internalType": "address",
          "name": "owner",
          "type": "address"
        },
        {
          "internalType": "address",
          "name": "resolver",
          "type": "address"
        },
        {
          "internalType": "uint64",
          "name": "ttl",
          "type": "uint64"
        },
        {
          "internalType": "uint32",
          "name": "fuses",
          "type": "uint32"
        },
        {
          "internalType": "uint64",
          "name": "expiry",
          "type": "uint64"
        }
      ],
      "name": "setSubnodeRecord",
      "outputs": [
        {
          "internalType": "bytes32",
          "name": "node",
          "type": "bytes32"
        }
      ],
      "stateMutability": "nonpayable",
      "type": "function"
    },
    {
      "inputs": [
        {
          "internalType": "bytes32",
          "name": "node",
          "type": "bytes32"
        },
        {
          "internalType": "uint64",
          "name": "ttl",
          "type": "uint64"
        }
      ],
      "name": "setTTL",
      "outputs": [],
      "stateMutability": "nonpayable",
      "type": "function"
    },
    {
      "inputs": [
        {
          "internalType": "contract INameWrapperUpgrade",
          "name": "_upgradeAddress",
          "type": "address"
        }
      ],
      "name": "setUpgradeContract",
      "outputs": [],
      "stateMutability": "nonpayable",
      "type": "function"
    },
    {
      "inputs": [
        {
          "internalType": "bytes4",
          "name": "interfaceId",
          "type": "bytes4"
        }
      ],
      "name": "supportsInterface",
      "outputs": [
        {
          "internalType": "bool",
          "name": "",
          "type": "bool"
        }
      ],
      "stateMutability": "view",
      "type": "function"
    },
    {
      "inputs": [
        {
          "internalType": "address",
          "name": "newOwner",
          "type": "address"
        }
      ],
      "name": "transferOwnership",
      "outputs": [],
      "stateMutability": "nonpayable",
      "type": "function"
    },
    {
      "inputs": [
        {
          "internalType": "bytes32",
          "name": "parentNode",
          "type": "bytes32"
        },
        {
          "internalType": "bytes32",
          "name": "labelhash",
          "type": "bytes32"
        },
        {
          "internalType": "address",
          "name": "controller",
          "type": "address"
        }
      ],
      "name": "unwrap",
      "outputs": [],
      "stateMutability": "nonpayable",
      "type": "function"
    },
    {
      "inputs": [
        {
          "internalType": "bytes32",
          "name": "labelhash",
          "type": "bytes32"
        },
        {
          "internalType": "address",
          "name": "registrant",
          "type": "address"
        },
        {
          "internalType": "address",
          "name": "controller",
          "type": "address"
        }
      ],
      "name": "unwrapETH2LD",
      "outputs": [],
      "stateMutability": "nonpayable",
      "type": "function"
    },
    {
      "inputs": [
        {
          "internalType": "bytes",
          "name": "name",
          "type": "bytes"
        },
        {
          "internalType": "bytes",
          "name": "extraData",
          "type": "bytes"
        }
      ],
      "name": "upgrade",
      "outputs": [],
      "stateMutability": "nonpayable",
      "type": "function"
    },
    {
      "inputs": [],
      "name": "upgradeContract",
      "outputs": [
        {
          "internalType": "contract INameWrapperUpgrade",
          "name": "",
          "type": "address"
        }
      ],
      "stateMutability": "view",
      "type": "function"
    },
    {
      "inputs": [
        {
          "internalType": "uint256",
          "name": "tokenId",
          "type": "uint256"
        }
      ],
      "name": "uri",
      "outputs": [
        {
          "internalType": "string",
          "name": "",
          "type": "string"
        }
      ],
      "stateMutability": "view",
      "type": "function"
    },
    {
      "inputs": [
        {
          "internalType": "bytes",
          "name": "name",
          "type": "bytes"
        },
        {
          "internalType": "address",
          "name": "wrappedOwner",
          "type": "address"
        },
        {
          "internalType": "address",
          "name": "resolver",
          "type": "address"
        }
      ],
      "name": "wrap",
      "outputs": [],
      "stateMutability": "nonpayable",
      "type": "function"
    },
    {
      "inputs": [
        {
          "internalType": "string",
          "name": "label",
          "type": "string"
        },
        {
          "internalType": "address",
          "name": "wrappedOwner",
          "type": "address"
        },
        {
          "internalType": "uint16",
          "name": "ownerControlledFuses",
          "type": "uint16"
        },
        {
          "internalType": "address",
          "name": "resolver",
          "type": "address"
        }
      ],
      "name": "wrapETH2LD",
      "outputs": [],
      "stateMutability": "nonpayable",
      "type": "function"
    }
  ],
  "transactionHash": "0xaedff1727b3abb0bcdfacd02ef855104a58e0ed55be41e26e691d97dbf4f4dcb",
  "args": [
    "0x80ACc6Ff73148F70547B286FE06Af8ea81adE15D",
    "0xe92201a967104592c9d55aE75ACA45B1a6cF0C36",
    "0x4c6d45Fb0B87F060c1B628E1E4C207827F21d056"
  ],
  "numDeployments": 1,
  "solcInputHash": "84e83a11e26171857eac9dd182ca512d",
  "bytecode": "0x60c06040523480156200001157600080fd5b50604051620063a0380380620063a08339810160408190526200003491620001f0565b6200003f3362000187565b6001600160a01b0383811660805282811660a052600480546001600160a01b031916918316919091179055600163fffeffff60a01b03197f090a5829b5648a850abc713fb4b1ebf824fca8f33573ccf97c9d5f3d36b3d6828190557fa6eef7e35abe7026729641147f7915573c7e97b47efa546f5f6e3230263bcb4955604080518082019091526001815260006020808301829052908052600590527f05b8ccbb9d4d8fb16ea74ce3c29a41f1b461fbdaff4714a0d9a8eb05499746bc90620001099082620002e9565b506040805180820190915260058082526303706c7360e01b6020808401919091527f55fb31aa6f23709345f51ac8d7e4ed79336defe55be2733bc226ed0f1f62f3c8600052527f81ee4a82f463e3dcb072dace0a108e9f0d8a9972e35d869dd27d2e887622cb92906200017d9082620002e9565b50505050620003b5565b600080546001600160a01b038381166001600160a01b0319831681178455604051919092169283917f8be0079c531659141344cd1fd0a4f28419497f9722a3daafe3b4186f6b6457e09190a35050565b6001600160a01b0381168114620001ed57600080fd5b50565b6000806000606084860312156200020657600080fd5b83516200021381620001d7565b60208501519093506200022681620001d7565b60408501519092506200023981620001d7565b809150509250925092565b634e487b7160e01b600052604160045260246000fd5b600181811c908216806200026f57607f821691505b6020821081036200029057634e487b7160e01b600052602260045260246000fd5b50919050565b601f821115620002e457600081815260208120601f850160051c81016020861015620002bf5750805b601f850160051c820191505b81811015620002e057828155600101620002cb565b5050505b505050565b81516001600160401b0381111562000305576200030562000244565b6200031d816200031684546200025a565b8462000296565b602080601f8311600181146200035557600084156200033c5750858301515b600019600386901b1c1916600185901b178555620002e0565b600085815260208120601f198616915b82811015620003865788860151825594840194600190910190840162000365565b5085821015620003a55787850151600019600388901b60f8161c191681555b5050505050600190811b01905550565b60805160a051615ede620004c2600039600081816104ac01528181610aca01528181610bbd01528181610c6001528181611c1f01528181611cb401528181611d7b01528181611e9d01528181611f2c01528181611fd10152818161225401528181612390015281816124da015281816126d40152818161275a0152612f9e0152600081816104f901528181610a5001528181610def01528181610fbc01528181611087015281816114e3015281816124150152818161255f01528181612805015281816129fc01528181612d00015281816131e2015281816132a901528181613372015281816134040152818161393401528181613a1801528181613c80015261433a0152615ede6000f3fe608060405234801561001057600080fd5b50600436106102fe5760003560e01c80636e5d6ad21161019c578063c93ab3fd116100ee578063e985e9c511610097578063f242432a11610071578063f242432a1461077d578063f2fde38b14610790578063fd0cd0d9146107a357600080fd5b8063e985e9c51461070e578063eb8ae5301461074a578063ed70554d1461075d57600080fd5b8063d9a50c12116100c8578063d9a50c12146106c5578063da8c229e146106d8578063e0dba60f146106fb57600080fd5b8063c93ab3fd1461068c578063cf4088231461069f578063d8c9921a146106b257600080fd5b8063a22cb46511610150578063b6bcad261161012a578063b6bcad2614610653578063c475abff14610666578063c658e0861461067957600080fd5b8063a22cb4651461061a578063a40149821461062d578063adf4960a1461064057600080fd5b80638b4dfa75116101815780638b4dfa75146105e35780638cf8b41e146105f65780638da5cb5b1461060957600080fd5b80636e5d6ad2146105af578063715018a6146105db57600080fd5b806324c1af4411610255578063402906fc1161020957806353095467116101e357806353095467146105765780635d3590d5146105895780636352211e1461059c57600080fd5b8063402906fc1461051b57806341415eab146105435780634e1273f41461055657600080fd5b80632eb2c2d61161023a5780632eb2c2d6146104ce57806333c69ea9146104e15780633f15457f146104f457600080fd5b806324c1af44146104945780632b20e397146104a757600080fd5b806314ab9038116102b75780631896f70a116102915780631896f70a146104435780631f4e15041461045657806320c38e2b1461048157600080fd5b806314ab9038146103ef578063150b7a02146104045780631534e1771461043057600080fd5b806301ffc9a7116102e857806301ffc9a71461037057806306fdde03146103935780630e89341c146103dc57600080fd5b8062fdd58e146103035780630178fe3f14610329575b600080fd5b610316610311366004614cf0565b6107b6565b6040519081526020015b60405180910390f35b61033c610337366004614d1c565b610875565b604080516001600160a01b03909416845263ffffffff909216602084015267ffffffffffffffff1690820152606001610320565b61038361037e366004614d4b565b6108a5565b6040519015158152602001610320565b6103cf6040518060400160405280600b81526020017f4e616d655772617070657200000000000000000000000000000000000000000081525081565b6040516103209190614db8565b6103cf6103ea366004614d1c565b610917565b6104026103fd366004614de8565b6109a4565b005b610417610412366004614e5d565b610abd565b6040516001600160e01b03199091168152602001610320565b61040261043e366004614ed0565b610d1a565b610402610451366004614eed565b610d5c565b600654610469906001600160a01b031681565b6040516001600160a01b039091168152602001610320565b6103cf61048f366004614d1c565b610e1e565b6103166104a2366004614ff8565b610eb8565b6104697f000000000000000000000000000000000000000000000000000000000000000081565b6104026104dc366004615120565b6110fe565b6104026104ef3660046151ce565b61146c565b6104697f000000000000000000000000000000000000000000000000000000000000000081565b61052e610529366004615226565b61167a565b60405163ffffffff9091168152602001610320565b610383610551366004614eed565b61171c565b610569610564366004615249565b6117ae565b6040516103209190615347565b600454610469906001600160a01b031681565b61040261059736600461535a565b6118ec565b6104696105aa366004614d1c565b611986565b6105c26105bd36600461539b565b611991565b60405167ffffffffffffffff9091168152602001610320565b610402611ac3565b6104026105f13660046153d0565b611ad7565b610402610604366004615412565b611c81565b6000546001600160a01b0316610469565b61040261062836600461549b565b61208f565b61031661063b3660046154c9565b612179565b61038361064e36600461554a565b612329565b610402610661366004614ed0565b61234e565b61031661067436600461556d565b6125be565b61031661068736600461558f565b6128ca565b61040261069a366004615602565b612ad7565b6104026106ad36600461566e565b612c3e565b6104026106c03660046156a6565b612df7565b6103836106d336600461556d565b612f20565b6103836106e6366004614ed0565b60036020526000908152604090205460ff1681565b61040261070936600461549b565b61302d565b61038361071c3660046156d4565b6001600160a01b03918216600090815260026020908152604080832093909416825291909152205460ff1690565b610402610758366004615702565b613095565b61031661076b366004614d1c565b60016020526000908152604090205481565b61040261078b36600461576a565b6134ab565b61040261079e366004614ed0565b6135e0565b6103836107b1366004614d1c565b61366d565b60006001600160a01b0383166108395760405162461bcd60e51b815260206004820152602b60248201527f455243313135353a2062616c616e636520717565727920666f7220746865207a60448201527f65726f206164647265737300000000000000000000000000000000000000000060648201526084015b60405180910390fd5b600061084483611986565b9050836001600160a01b0316816001600160a01b03160361086957600191505061086f565b60009150505b92915050565b60008181526001602052604090205460a081901c60c082901c610899838383613745565b90959094509092509050565b60006001600160e01b031982167fd96af79700000000000000000000000000000000000000000000000000000000148061090857506001600160e01b031982167f150b7a0200000000000000000000000000000000000000000000000000000000145b8061086f575061086f82613799565b600480546040517f0e89341c0000000000000000000000000000000000000000000000000000000081529182018390526060916001600160a01b0390911690630e89341c90602401600060405180830381865afa15801561097c573d6000803e3d6000fd5b505050506040513d6000823e601f3d908101601f1916820160405261086f91908101906157d3565b816109af813361171c565b6109d55760405163168ab55d60e31b815260048101829052336024820152604401610830565b82601060006109e383610875565b5091505063ffffffff8282161615610a115760405163a2a7201360e01b815260048101849052602401610830565b6040517f14ab90380000000000000000000000000000000000000000000000000000000081526004810187905267ffffffffffffffff861660248201527f00000000000000000000000000000000000000000000000000000000000000006001600160a01b0316906314ab9038906044015b600060405180830381600087803b158015610a9d57600080fd5b505af1158015610ab1573d6000803e3d6000fd5b50505050505050505050565b6000336001600160a01b037f00000000000000000000000000000000000000000000000000000000000000001614610b21576040517f1931a53800000000000000000000000000000000000000000000000000000000815260040160405180910390fd5b6000808080610b328688018861584b565b83516020850120939750919550935091508890808214610b88576040517fc65c3ccc0000000000000000000000000000000000000000000000000000000081526004810182905260248101839052604401610830565b6040517f28ed4f6c000000000000000000000000000000000000000000000000000000008152600481018390523060248201527f00000000000000000000000000000000000000000000000000000000000000006001600160a01b0316906328ed4f6c90604401600060405180830381600087803b158015610c0957600080fd5b505af1158015610c1d573d6000803e3d6000fd5b50506040517fd6e4fa86000000000000000000000000000000000000000000000000000000008152600481018d9052600092506276a70091506001600160a01b037f0000000000000000000000000000000000000000000000000000000000000000169063d6e4fa8690602401602060405180830381865afa158015610ca7573d6000803e3d6000fd5b505050506040513d601f19601f82011682018060405250810190610ccb91906158b3565b610cd591906158e2565b9050610ce887878761ffff168488613834565b507f150b7a02000000000000000000000000000000000000000000000000000000009c9b505050505050505050505050565b610d22613963565b600480547fffffffffffffffffffffffff0000000000000000000000000000000000000000166001600160a01b0392909216919091179055565b81610d67813361171c565b610d8d5760405163168ab55d60e31b815260048101829052336024820152604401610830565b8260086000610d9b83610875565b5091505063ffffffff8282161615610dc95760405163a2a7201360e01b815260048101849052602401610830565b604051630c4b7b8560e11b8152600481018790526001600160a01b0386811660248301527f00000000000000000000000000000000000000000000000000000000000000001690631896f70a90604401610a83565b60056020526000908152604090208054610e379061590a565b80601f0160208091040260200160405190810160405280929190818152602001828054610e639061590a565b8015610eb05780601f10610e8557610100808354040283529160200191610eb0565b820191906000526020600020905b815481529060010190602001808311610e9357829003601f168201915b505050505081565b600087610ec5813361171c565b610eeb5760405163168ab55d60e31b815260048101829052336024820152604401610830565b87516020890120610f238a82604080516020808201949094528082019290925280518083038201815260609092019052805191012090565b9250610f2f8a846139bd565b610f398386613afc565b610f448a848b613b2f565b50610f518a848787613bfc565b9350610f5c83613c42565b61102b576040517f5ef2c7f0000000000000000000000000000000000000000000000000000000008152600481018b9052602481018290523060448201526001600160a01b03888116606483015267ffffffffffffffff881660848301527f00000000000000000000000000000000000000000000000000000000000000001690635ef2c7f09060a401600060405180830381600087803b15801561100057600080fd5b505af1158015611014573d6000803e3d6000fd5b505050506110268a848b8b8989613cfb565b6110f1565b6040517f5ef2c7f0000000000000000000000000000000000000000000000000000000008152600481018b9052602481018290523060448201526001600160a01b03888116606483015267ffffffffffffffff881660848301527f00000000000000000000000000000000000000000000000000000000000000001690635ef2c7f09060a401600060405180830381600087803b1580156110cb57600080fd5b505af11580156110df573d6000803e3d6000fd5b505050506110f18a848b8b8989613d32565b5050979650505050505050565b81518351146111755760405162461bcd60e51b815260206004820152602860248201527f455243313135353a2069647320616e6420616d6f756e7473206c656e6774682060448201527f6d69736d617463680000000000000000000000000000000000000000000000006064820152608401610830565b6001600160a01b0384166111f15760405162461bcd60e51b815260206004820152602560248201527f455243313135353a207472616e7366657220746f20746865207a65726f20616460448201527f64726573730000000000000000000000000000000000000000000000000000006064820152608401610830565b6001600160a01b03851633148061122b57506001600160a01b038516600090815260026020908152604080832033845290915290205460ff165b61129d5760405162461bcd60e51b815260206004820152603260248201527f455243313135353a207472616e736665722063616c6c6572206973206e6f742060448201527f6f776e6572206e6f7220617070726f76656400000000000000000000000000006064820152608401610830565b60005b83518110156113ff5760008482815181106112bd576112bd615944565b6020026020010151905060008483815181106112db576112db615944565b6020026020010151905060008060006112f385610875565b925092509250611304858383613df6565b5083600114801561132657508a6001600160a01b0316836001600160a01b0316145b6113985760405162461bcd60e51b815260206004820152602a60248201527f455243313135353a20696e73756666696369656e742062616c616e636520666f60448201527f72207472616e73666572000000000000000000000000000000000000000000006064820152608401610830565b60008581526001602052604090206001600160a01b038b1663ffffffff60a01b60a085901b16177fffffffffffffffff00000000000000000000000000000000000000000000000060c084901b161790555050505050806113f89061595a565b90506112a0565b50836001600160a01b0316856001600160a01b0316336001600160a01b03167f4a39dc06d4c0dbc64b70af90fd698a233a518aa5d07e595d983b8c0526c8f7fb868660405161144f929190615974565b60405180910390a4611465338686868686613ecd565b5050505050565b6040805160208082018790528183018690528251808303840181526060909201909252805191012061149e8184613afc565b600080806114ab84610875565b919450925090506001600160a01b038316158061155a57506040516302571be360e01b81526004810185905230906001600160a01b037f000000000000000000000000000000000000000000000000000000000000000016906302571be390602401602060405180830381865afa15801561152a573d6000803e3d6000fd5b505050506040513d601f19601f8201168201806040525081019061154e91906159a2565b6001600160a01b031614155b15611591576040517f5374b59900000000000000000000000000000000000000000000000000000000815260040160405180910390fd5b60008061159d8a610875565b90935091508a90506115de576115b3863361171c565b6115d95760405163168ab55d60e31b815260048101879052336024820152604401610830565b61160e565b6115e88a3361171c565b61160e5760405163168ab55d60e31b815260048101879052336024820152604401610830565b6116198689846140b9565b6116248784836140f4565b96506201000084161580159061164857508363ffffffff1688851763ffffffff1614155b156116695760405163a2a7201360e01b815260048101879052602401610830565b96831796610ab186868a868b61413e565b600082611687813361171c565b6116ad5760405163168ab55d60e31b815260048101829052336024820152604401610830565b83600260006116bb83610875565b5091505063ffffffff82821616156116e95760405163a2a7201360e01b815260048101849052602401610830565b600080806116f68a610875565b92509250925061170f8a84848c61ffff1617848561413e565b5098975050505050505050565b600080808061172a86610875565b925092509250846001600160a01b0316836001600160a01b0316148061177557506001600160a01b0380841660009081526002602090815260408083209389168352929052205460ff165b80156117a4575062020000821615806117a45750426117976276a700836159bf565b67ffffffffffffffff1610155b9695505050505050565b606081518351146118275760405162461bcd60e51b815260206004820152602960248201527f455243313135353a206163636f756e747320616e6420696473206c656e67746860448201527f206d69736d6174636800000000000000000000000000000000000000000000006064820152608401610830565b6000835167ffffffffffffffff81111561184357611843614f1d565b60405190808252806020026020018201604052801561186c578160200160208202803683370190505b50905060005b84518110156118e4576118b785828151811061189057611890615944565b60200260200101518583815181106118aa576118aa615944565b60200260200101516107b6565b8282815181106118c9576118c9615944565b60209081029190910101526118dd8161595a565b9050611872565b509392505050565b6118f4613963565b6040517fa9059cbb0000000000000000000000000000000000000000000000000000000081526001600160a01b0383811660048301526024820183905284169063a9059cbb906044016020604051808303816000875af115801561195c573d6000803e3d6000fd5b505050506040513d601f19601f8201168201806040525081019061198091906159e0565b50505050565b600061086f826141e8565b6040805160208082018690528183018590528251808303840181526060909201909252805191012060009060006119c8863361171c565b9050801580156119df57506119dd823361171c565b155b15611a065760405163168ab55d60e31b815260048101839052336024820152604401610830565b60008080611a1385610875565b92509250925083158015611a2a5750620400008216155b15611a4b5760405163a2a7201360e01b815260048101869052602401610830565b6000611a568a610875565b92505050611a658883836140f4565b9750611a738685858b6141fe565b60405167ffffffffffffffff8916815286907ff675815a0817338f93a7da433f6bd5f5542f1029b11b455191ac96c7f6a9b1329060200160405180910390a28796505050505050505b9392505050565b611acb613963565b611ad5600061425e565b565b604080517f55fb31aa6f23709345f51ac8d7e4ed79336defe55be2733bc226ed0f1f62f3c860208083019190915281830186905282518083038401815260609092019092528051910120611b2b813361171c565b611b515760405163168ab55d60e31b815260048101829052336024820152604401610830565b306001600160a01b03841603611b8557604051632ca49b0d60e11b81526001600160a01b0384166004820152602401610830565b604080517f55fb31aa6f23709345f51ac8d7e4ed79336defe55be2733bc226ed0f1f62f3c860208083019190915281830187905282518083038401815260609092019092528051910120611bda905b836142c6565b6040517f42842e0e0000000000000000000000000000000000000000000000000000000081523060048201526001600160a01b038481166024830152604482018690527f000000000000000000000000000000000000000000000000000000000000000016906342842e0e90606401600060405180830381600087803b158015611c6357600080fd5b505af1158015611c77573d6000803e3d6000fd5b5050505050505050565b60008585604051611c939291906159fd565b6040519081900381206331a9108f60e11b82526004820181905291506000907f00000000000000000000000000000000000000000000000000000000000000006001600160a01b031690636352211e90602401602060405180830381865afa158015611d03573d6000803e3d6000fd5b505050506040513d601f19601f82011682018060405250810190611d2791906159a2565b90506001600160a01b0381163314801590611de857506040517fe985e9c50000000000000000000000000000000000000000000000000000000081526001600160a01b0382811660048301523360248301527f0000000000000000000000000000000000000000000000000000000000000000169063e985e9c590604401602060405180830381865afa158015611dc2573d6000803e3d6000fd5b505050506040513d601f19601f82011682018060405250810190611de691906159e0565b155b15611e5857604080517f55fb31aa6f23709345f51ac8d7e4ed79336defe55be2733bc226ed0f1f62f3c86020808301919091528183018590528251808303840181526060830193849052805191012063168ab55d60e31b909252606481019190915233608482015260a401610830565b6040517f23b872dd0000000000000000000000000000000000000000000000000000000081526001600160a01b038281166004830152306024830152604482018490527f000000000000000000000000000000000000000000000000000000000000000016906323b872dd90606401600060405180830381600087803b158015611ee157600080fd5b505af1158015611ef5573d6000803e3d6000fd5b50506040517f28ed4f6c000000000000000000000000000000000000000000000000000000008152600481018590523060248201527f00000000000000000000000000000000000000000000000000000000000000006001600160a01b031692506328ed4f6c9150604401600060405180830381600087803b158015611f7a57600080fd5b505af1158015611f8e573d6000803e3d6000fd5b50506040517fd6e4fa8600000000000000000000000000000000000000000000000000000000815260048101859052600092506276a70091506001600160a01b037f0000000000000000000000000000000000000000000000000000000000000000169063d6e4fa8690602401602060405180830381865afa158015612018573d6000803e3d6000fd5b505050506040513d601f19601f8201168201806040525081019061203c91906158b3565b61204691906158e2565b9050611c7788888080601f0160208091040260200160405190810160405280939291908181526020018383808284376000920191909152508a9250505061ffff88168488613834565b6001600160a01b038216330361210d5760405162461bcd60e51b815260206004820152602960248201527f455243313135353a2073657474696e6720617070726f76616c2073746174757360448201527f20666f722073656c6600000000000000000000000000000000000000000000006064820152608401610830565b3360008181526002602090815260408083206001600160a01b03871680855290835292819020805460ff191686151590811790915590519081529192917f17307eab39ab6107e8899845ad3d59bd9653f200f220920489ca2b5937696c31910160405180910390a35050565b3360009081526003602052604081205460ff166121fe5760405162461bcd60e51b815260206004820152602860248201527f436f6e74726f6c6c61626c653a2043616c6c6572206973206e6f74206120636f60448201527f6e74726f6c6c65720000000000000000000000000000000000000000000000006064820152608401610830565b600087876040516122109291906159fd565b6040519081900381207ffca247ac000000000000000000000000000000000000000000000000000000008252600482018190523060248301526044820187905291507f00000000000000000000000000000000000000000000000000000000000000006001600160a01b03169063fca247ac906064016020604051808303816000875af11580156122a5573d6000803e3d6000fd5b505050506040513d601f19601f820116820180604052508101906122c991906158b3565b915061231e88888080601f0160208091040260200160405190810160405280939291908181526020018383808284376000920191909152508a9250505061ffff86166123186276a700876158e2565b88613834565b509695505050505050565b60008061233584610875565b50841663ffffffff908116908516149250505092915050565b612356613963565b6006546001600160a01b0316156124765760065460405163a22cb46560e01b81526001600160a01b039182166004820152600060248201527f00000000000000000000000000000000000000000000000000000000000000009091169063a22cb46590604401600060405180830381600087803b1580156123d657600080fd5b505af11580156123ea573d6000803e3d6000fd5b505060065460405163a22cb46560e01b81526001600160a01b039182166004820152600060248201527f0000000000000000000000000000000000000000000000000000000000000000909116925063a22cb4659150604401600060405180830381600087803b15801561245d57600080fd5b505af1158015612471573d6000803e3d6000fd5b505050505b600680547fffffffffffffffffffffffff0000000000000000000000000000000000000000166001600160a01b038316908117909155156125bb5760065460405163a22cb46560e01b81526001600160a01b039182166004820152600160248201527f00000000000000000000000000000000000000000000000000000000000000009091169063a22cb46590604401600060405180830381600087803b15801561252057600080fd5b505af1158015612534573d6000803e3d6000fd5b505060065460405163a22cb46560e01b81526001600160a01b039182166004820152600160248201527f0000000000000000000000000000000000000000000000000000000000000000909116925063a22cb4659150604401600060405180830381600087803b1580156125a757600080fd5b505af1158015611465573d6000803e3d6000fd5b50565b3360009081526003602052604081205460ff166126435760405162461bcd60e51b815260206004820152602860248201527f436f6e74726f6c6c61626c653a2043616c6c6572206973206e6f74206120636f60448201527f6e74726f6c6c65720000000000000000000000000000000000000000000000006064820152608401610830565b604080517f55fb31aa6f23709345f51ac8d7e4ed79336defe55be2733bc226ed0f1f62f3c8602080830191909152818301869052825180830384018152606090920190925280519101206000906040517fc475abff00000000000000000000000000000000000000000000000000000000815260048101869052602481018590529091506000906001600160a01b037f0000000000000000000000000000000000000000000000000000000000000000169063c475abff906044016020604051808303816000875af115801561271d573d6000803e3d6000fd5b505050506040513d601f19601f8201168201806040525081019061274191906158b3565b6040516331a9108f60e11b8152600481018790529091507f00000000000000000000000000000000000000000000000000000000000000006001600160a01b031690636352211e90602401602060405180830381865afa9250505080156127c5575060408051601f3d908101601f191682019092526127c2918101906159a2565b60015b6127d257915061086f9050565b6001600160a01b0381163014158061287c57506040516302571be360e01b81526004810184905230906001600160a01b037f000000000000000000000000000000000000000000000000000000000000000016906302571be390602401602060405180830381865afa15801561284c573d6000803e3d6000fd5b505050506040513d601f19601f8201168201806040525081019061287091906159a2565b6001600160a01b031614155b1561288b5750915061086f9050565b50600061289b6276a700836158e2565b60008481526001602052604090205490915060a081901c6128be858383866141fe565b50919695505050505050565b6000866128d7813361171c565b6128fd5760405163168ab55d60e31b815260048101829052336024820152604401610830565b6000878760405161290f9291906159fd565b6040518091039020905061294a8982604080516020808201949094528082019290925280518083038201815260609092019052805191012090565b925061295689846139bd565b6129608386613afc565b60006129a38a858b8b8080601f016020809104026020016040519081016040528093929190818152602001838380828437600092019190915250613b2f92505050565b90506129b18a858888613bfc565b94506129bc84613c42565b612a84576040517f06ab5923000000000000000000000000000000000000000000000000000000008152600481018b9052602481018390523060448201527f00000000000000000000000000000000000000000000000000000000000000006001600160a01b0316906306ab5923906064016020604051808303816000875af1158015612a4d573d6000803e3d6000fd5b505050506040513d601f19601f82011682018060405250810190612a7191906158b3565b50612a7f84828989896143d1565b612aca565b612aca8a858b8b8080601f0160208091040260200160405190810160405280939291908181526020018383808284376000920191909152508d92508c91508b9050613d32565b5050509695505050505050565b6000612b1d600086868080601f01602080910402602001604051908101604052809392919081815260200183838082843760009201919091525092939250506144139050565b6006549091506001600160a01b0316612b62576040517f24c1d6d400000000000000000000000000000000000000000000000000000000815260040160405180910390fd5b612b6c813361171c565b612b925760405163168ab55d60e31b815260048101829052336024820152604401610830565b60008080612b9f84610875565b91945092509050612baf846144d2565b6006546040517e3093140000000000000000000000000000000000000000000000000000000081526001600160a01b03909116906230931490612c02908b908b908890889088908e908e90600401615a38565b600060405180830381600087803b158015612c1c57600080fd5b505af1158015612c30573d6000803e3d6000fd5b505050505050505050505050565b83612c49813361171c565b612c6f5760405163168ab55d60e31b815260048101829052336024820152604401610830565b84601c6000612c7d83610875565b5091505063ffffffff8282161615612cab5760405163a2a7201360e01b815260048101849052602401610830565b6040517fcf408823000000000000000000000000000000000000000000000000000000008152600481018990523060248201526001600160a01b03878116604483015267ffffffffffffffff871660648301527f0000000000000000000000000000000000000000000000000000000000000000169063cf40882390608401600060405180830381600087803b158015612d4457600080fd5b505af1158015612d58573d6000803e3d6000fd5b5050506001600160a01b0388169050612dbf576000612d7689610875565b509150506201ffff1962020000821601612dae57604051632ca49b0d60e11b81526001600160a01b0389166004820152602401610830565b612db98960006142c6565b50611c77565b6000612dca89611986565b9050612dec81898b60001c600160405180602001604052806000815250614594565b505050505050505050565b60408051602080820186905281830185905282518083038401815260609092019092528051910120612e29813361171c565b612e4f5760405163168ab55d60e31b815260048101829052336024820152604401610830565b7faa04ce5590dc8f6cba0ae537281b1286cc92101aa41d8cc43dd912f0e09d0c388401612ea8576040517f615a470300000000000000000000000000000000000000000000000000000000815260040160405180910390fd5b6001600160a01b0382161580612ec657506001600160a01b03821630145b15612eef57604051632ca49b0d60e11b81526001600160a01b0383166004820152602401610830565b6040805160208082018790528183018690528251808303840181526060909201909252805191012061198090611bd4565b604080516020808201859052818301849052825180830384018152606090920190925280519101206000906000612f5682613c42565b90507f55fb31aa6f23709345f51ac8d7e4ed79336defe55be2733bc226ed0f1f62f3c88514612f8857915061086f9050565b6040516331a9108f60e11b8152600481018590527f00000000000000000000000000000000000000000000000000000000000000006001600160a01b031690636352211e90602401602060405180830381865afa925050508015613009575060408051601f3d908101601f19168201909252613006918101906159a2565b60015b6130185760009250505061086f565b6001600160a01b03163014925061086f915050565b613035613963565b6001600160a01b038216600081815260036020908152604091829020805460ff191685151590811790915591519182527f4c97694570a07277810af7e5669ffd5f6a2d6b74b6e9a274b8b870fd5114cf8791015b60405180910390a25050565b6000806130dc600087878080601f01602080910402602001604051908101604052809392919081815260200183838082843760009201919091525092939250506147129050565b9150915060006131258288888080601f01602080910402602001604051908101604052809392919081815260200183838082843760009201919091525092939250506144139050565b60408051602080820184905281830187905282518083038401815260609092019092528051910120909150600090600081815260056020526040902090915061316f888a83615ae3565b507faa04ce5590dc8f6cba0ae537281b1286cc92101aa41d8cc43dd912f0e09d0c3882016131c9576040517f615a470300000000000000000000000000000000000000000000000000000000815260040160405180910390fd5b6040516302571be360e01b8152600481018290526000907f00000000000000000000000000000000000000000000000000000000000000006001600160a01b0316906302571be390602401602060405180830381865afa158015613231573d6000803e3d6000fd5b505050506040513d601f19601f8201168201806040525081019061325591906159a2565b90506001600160a01b038116331480159061331657506040517fe985e9c50000000000000000000000000000000000000000000000000000000081526001600160a01b0382811660048301523360248301527f0000000000000000000000000000000000000000000000000000000000000000169063e985e9c590604401602060405180830381865afa1580156132f0573d6000803e3d6000fd5b505050506040513d601f19601f8201168201806040525081019061331491906159e0565b155b1561333d5760405163168ab55d60e31b815260048101839052336024820152604401610830565b6001600160a01b038616156133cf57604051630c4b7b8560e11b8152600481018390526001600160a01b0387811660248301527f00000000000000000000000000000000000000000000000000000000000000001690631896f70a90604401600060405180830381600087803b1580156133b657600080fd5b505af11580156133ca573d6000803e3d6000fd5b505050505b6040517f5b0fc9c3000000000000000000000000000000000000000000000000000000008152600481018390523060248201527f00000000000000000000000000000000000000000000000000000000000000006001600160a01b031690635b0fc9c390604401600060405180830381600087803b15801561345057600080fd5b505af1158015613464573d6000803e3d6000fd5b50505050612dec828a8a8080601f01602080910402602001604051908101604052809392919081815260200183838082843760009201829052508d935091508190506143d1565b6001600160a01b0384166135275760405162461bcd60e51b815260206004820152602560248201527f455243313135353a207472616e7366657220746f20746865207a65726f20616460448201527f64726573730000000000000000000000000000000000000000000000000000006064820152608401610830565b6001600160a01b03851633148061356157506001600160a01b038516600090815260026020908152604080832033845290915290205460ff165b6135d35760405162461bcd60e51b815260206004820152602960248201527f455243313135353a2063616c6c6572206973206e6f74206f776e6572206e6f7260448201527f20617070726f76656400000000000000000000000000000000000000000000006064820152608401610830565b6114658585858585614594565b6135e8613963565b6001600160a01b0381166136645760405162461bcd60e51b815260206004820152602660248201527f4f776e61626c653a206e6577206f776e657220697320746865207a65726f206160448201527f64647265737300000000000000000000000000000000000000000000000000006064820152608401610830565b6125bb8161425e565b600081815260056020526040812080548291906136899061590a565b80601f01602080910402602001604051908101604052809291908181526020018280546136b59061590a565b80156137025780601f106136d757610100808354040283529160200191613702565b820191906000526020600020905b8154815290600101906020018083116136e557829003601f168201915b50505050509050805160000361371b5750600092915050565b6000806137288382614712565b909250905060006137398483614413565b90506117a48184612f20565b600080428367ffffffffffffffff161015613790577fffffffffffffffffffffffffffffffffffffffffffffffffffffffffffff00006201000085160161378b57600094505b600093505b50929391925050565b60006001600160e01b031982167fd9b67a260000000000000000000000000000000000000000000000000000000014806137fc57506001600160e01b031982167f0e89341c00000000000000000000000000000000000000000000000000000000145b8061086f57507f01ffc9a7000000000000000000000000000000000000000000000000000000006001600160e01b031983161461086f565b84516020860120600061388e7f55fb31aa6f23709345f51ac8d7e4ed79336defe55be2733bc226ed0f1f62f3c883604080516020808201949094528082019290925280518083038201815260609092019052805191012090565b905060006138d1886040518060400160405280600581526020017f03706c73000000000000000000000000000000000000000000000000000000008152506147c9565b60008381526005602052604090209091506138ec8282615ba3565b506138ff828289620300008a17896143d1565b6001600160a01b03841615611c7757604051630c4b7b8560e11b8152600481018390526001600160a01b0385811660248301527f00000000000000000000000000000000000000000000000000000000000000001690631896f70a90604401612c02565b6000546001600160a01b03163314611ad55760405162461bcd60e51b815260206004820181905260248201527f4f776e61626c653a2063616c6c6572206973206e6f7420746865206f776e65726044820152606401610830565b600080806139ca84610875565b919450925090504267ffffffffffffffff821610808015613a8e57506001600160a01b0384161580613a8e57506040516302571be360e01b8152600481018690526000906001600160a01b037f000000000000000000000000000000000000000000000000000000000000000016906302571be390602401602060405180830381865afa158015613a5f573d6000803e3d6000fd5b505050506040513d601f19601f82011682018060405250810190613a8391906159a2565b6001600160a01b0316145b15613acd576000613a9e87610875565b509150506020811615613ac75760405163a2a7201360e01b815260048101879052602401610830565b50613af4565b62010000831615613af45760405163a2a7201360e01b815260048101869052602401610830565b505050505050565b63fffdffff81811763ffffffff1614613b2b5760405163a2a7201360e01b815260048101839052602401610830565b5050565b60606000613bd883600560008881526020019081526020016000208054613b559061590a565b80601f0160208091040260200160405190810160405280929190818152602001828054613b819061590a565b8015613bce5780601f10613ba357610100808354040283529160200191613bce565b820191906000526020600020905b815481529060010190602001808311613bb157829003601f168201915b50505050506147c9565b6000858152600560205260409020909150613bf38282615ba3565b50949350505050565b600080613c0885610875565b92505050600080613c1b8860001c610875565b9250925050613c2b8787846140b9565b613c368584836140f4565b98975050505050505050565b600080613c4e83611986565b6001600160a01b03161415801561086f57506040516302571be360e01b81526004810183905230906001600160a01b037f000000000000000000000000000000000000000000000000000000000000000016906302571be390602401602060405180830381865afa158015613cc7573d6000803e3d6000fd5b505050506040513d601f19601f82011682018060405250810190613ceb91906159a2565b6001600160a01b03161492915050565b60008681526005602052604081208054613d1a918791613b559061590a565b9050613d2986828686866143d1565b50505050505050565b60008080613d3f88610875565b9250925092506000613d6988600560008d81526020019081526020016000208054613b559061590a565b60008a8152600560205260409020805491925090613d869061590a565b9050600003613da9576000898152600560205260409020613da78282615ba3565b505b613db88985888617858961413e565b6001600160a01b038716613dd657613dd18960006142c6565b610ab1565b610ab184888b60001c600160405180602001604052806000815250614594565b60006201ffff1962020000841601613e1857613e156276a700836159bf565b91505b428267ffffffffffffffff161015613ea85762010000831615613ea35760405162461bcd60e51b815260206004820152602a60248201527f455243313135353a20696e73756666696369656e742062616c616e636520666f60448201527f72207472616e73666572000000000000000000000000000000000000000000006064820152608401610830565b611abc565b6004831615611abc5760405163a2a7201360e01b815260048101859052602401610830565b6001600160a01b0384163b15613af4576040517fbc197c810000000000000000000000000000000000000000000000000000000081526001600160a01b0385169063bc197c8190613f2a9089908990889088908890600401615c63565b6020604051808303816000875af1925050508015613f65575060408051601f3d908101601f19168201909252613f6291810190615cb5565b60015b61401a57613f71615cd2565b806308c379a003613faa5750613f85615cee565b80613f905750613fac565b8060405162461bcd60e51b81526004016108309190614db8565b505b60405162461bcd60e51b815260206004820152603460248201527f455243313135353a207472616e7366657220746f206e6f6e204552433131353560448201527f526563656976657220696d706c656d656e7465720000000000000000000000006064820152608401610830565b6001600160e01b031981167fbc197c810000000000000000000000000000000000000000000000000000000014613d295760405162461bcd60e51b815260206004820152602860248201527f455243313135353a204552433131353552656365697665722072656a6563746560448201527f6420746f6b656e730000000000000000000000000000000000000000000000006064820152608401610830565b63ffff000082161580159060018316159082906140d35750805b156114655760405163a2a7201360e01b815260048101869052602401610830565b60008167ffffffffffffffff168467ffffffffffffffff161115614116578193505b8267ffffffffffffffff168467ffffffffffffffff161015614136578293505b509192915050565b61414a858585846141fe565b60405163ffffffff8416815285907f39873f00c80f4f94b7bd1594aebcf650f003545b74824d57ddf4939e3ff3a34b9060200160405180910390a28167ffffffffffffffff168167ffffffffffffffff1611156114655760405167ffffffffffffffff8216815285907ff675815a0817338f93a7da433f6bd5f5542f1029b11b455191ac96c7f6a9b132906020015b60405180910390a25050505050565b6000806141f483610875565b5090949350505050565b6142088483614872565b60008481526001602052604090206001600160a01b03841663ffffffff60a01b60a085901b16177fffffffffffffffff00000000000000000000000000000000000000000000000060c084901b16179055611980565b600080546001600160a01b038381167fffffffffffffffffffffffff0000000000000000000000000000000000000000831681178455604051919092169283917f8be0079c531659141344cd1fd0a4f28419497f9722a3daafe3b4186f6b6457e09190a35050565b6142d1826001612329565b156142f25760405163a2a7201360e01b815260048101839052602401610830565b6142fb826144d2565b6040517f5b0fc9c3000000000000000000000000000000000000000000000000000000008152600481018390526001600160a01b0382811660248301527f00000000000000000000000000000000000000000000000000000000000000001690635b0fc9c390604401600060405180830381600087803b15801561437e57600080fd5b505af1158015614392573d6000803e3d6000fd5b50506040516001600160a01b03841681528492507fee2ba1195c65bcf218a83d874335c6bf9d9067b4c672f3c3bf16cf40de7586c49150602001613089565b6143dd858484846148ab565b847f8ce7013e8abebc55c3890a68f5a27c67c3f7efa64e584de5fb22363c606fd340858585856040516141d99493929190615d96565b60008060006144228585614712565b909250905081614494576001855161443a9190615dde565b84146144885760405162461bcd60e51b815260206004820152601d60248201527f6e616d65686173683a204a756e6b20617420656e64206f66206e616d650000006044820152606401610830565b506000915061086f9050565b61449e8582614413565b6040805160208101929092528101839052606001604051602081830303815290604052805190602001209250505092915050565b60008181526001602052604090205460a081901c60c082901c6144f6838383613745565b600086815260016020526040902063ffffffff60a01b60a083901b167fffffffffffffffff00000000000000000000000000000000000000000000000060c086901b1617905592506145459050565b60408051858152600160208201526000916001600160a01b0386169133917fc3d58168c5ae7397731d063d5bbf3d657854427343f4c083240f7aacaa2d0f62910160405180910390a450505050565b60008060006145a286610875565b9250925092506145b3868383613df6565b508460011480156145d55750876001600160a01b0316836001600160a01b0316145b6146475760405162461bcd60e51b815260206004820152602a60248201527f455243313135353a20696e73756666696369656e742062616c616e636520666f60448201527f72207472616e73666572000000000000000000000000000000000000000000006064820152608401610830565b866001600160a01b0316836001600160a01b03160361466857505050611465565b60008681526001602052604090206001600160a01b03881663ffffffff60a01b60a085901b16177fffffffffffffffff00000000000000000000000000000000000000000000000060c084901b1617905560408051878152602081018790526001600160a01b03808a1692908b169133917fc3d58168c5ae7397731d063d5bbf3d657854427343f4c083240f7aacaa2d0f62910160405180910390a4611c7733898989898961491f565b600080835183106147655760405162461bcd60e51b815260206004820152601e60248201527f726561644c6162656c3a20496e646578206f7574206f6620626f756e647300006044820152606401610830565b600084848151811061477957614779615944565b016020015160f81c905080156147a55761479e85614798866001615df1565b83614a62565b92506147aa565b600092505b6147b48185615df1565b6147bf906001615df1565b9150509250929050565b6060600183511015614807576040517f280dacb600000000000000000000000000000000000000000000000000000000815260040160405180910390fd5b60ff8351111561484557826040517fe3ba295f0000000000000000000000000000000000000000000000000000000081526004016108309190614db8565b8251838360405160200161485b93929190615e04565b604051602081830303815290604052905092915050565b61ffff81161580159061488a57506201000181811614155b15613b2b5760405163a2a7201360e01b815260048101839052602401610830565b6148b58483614872565b6000848152600160205260409020546001600160a01b03811615614913576148dc856144d2565b6040516000815285907fee2ba1195c65bcf218a83d874335c6bf9d9067b4c672f3c3bf16cf40de7586c49060200160405180910390a25b61146585858585614a86565b6001600160a01b0384163b15613af4576040517ff23a6e610000000000000000000000000000000000000000000000000000000081526001600160a01b0385169063f23a6e619061497c9089908990889088908890600401615e65565b6020604051808303816000875af19250505080156149b7575060408051601f3d908101601f191682019092526149b491810190615cb5565b60015b6149c357613f71615cd2565b6001600160e01b031981167ff23a6e610000000000000000000000000000000000000000000000000000000014613d295760405162461bcd60e51b815260206004820152602860248201527f455243313135353a204552433131353552656365697665722072656a6563746560448201527f6420746f6b656e730000000000000000000000000000000000000000000000006064820152608401610830565b8251600090614a718385615df1565b1115614a7c57600080fd5b5091016020012090565b8360008080614a9484610875565b9194509250905063ffff0000821667ffffffffffffffff8087169083161115614abb578195505b428267ffffffffffffffff1610614ad157958617955b6001600160a01b03841615614b285760405162461bcd60e51b815260206004820152601f60248201527f455243313135353a206d696e74206f66206578697374696e6720746f6b656e006044820152606401610830565b6001600160a01b038816614ba45760405162461bcd60e51b815260206004820152602160248201527f455243313135353a206d696e7420746f20746865207a65726f2061646472657360448201527f73000000000000000000000000000000000000000000000000000000000000006064820152608401610830565b306001600160a01b03891603614c225760405162461bcd60e51b815260206004820152603460248201527f455243313135353a206e65774f776e65722063616e6e6f74206265207468652060448201527f4e616d655772617070657220636f6e74726163740000000000000000000000006064820152608401610830565b60008581526001602052604090206001600160a01b03891663ffffffff60a01b60a08a901b16177fffffffffffffffff00000000000000000000000000000000000000000000000060c089901b1617905560408051868152600160208201526001600160a01b038a169160009133917fc3d58168c5ae7397731d063d5bbf3d657854427343f4c083240f7aacaa2d0f62910160405180910390a4612dec3360008a8860016040518060200160405280600081525061491f565b6001600160a01b03811681146125bb57600080fd5b60008060408385031215614d0357600080fd5b8235614d0e81614cdb565b946020939093013593505050565b600060208284031215614d2e57600080fd5b5035919050565b6001600160e01b0319811681146125bb57600080fd5b600060208284031215614d5d57600080fd5b8135611abc81614d35565b60005b83811015614d83578181015183820152602001614d6b565b50506000910152565b60008151808452614da4816020860160208601614d68565b601f01601f19169290920160200192915050565b602081526000611abc6020830184614d8c565b803567ffffffffffffffff81168114614de357600080fd5b919050565b60008060408385031215614dfb57600080fd5b82359150614e0b60208401614dcb565b90509250929050565b60008083601f840112614e2657600080fd5b50813567ffffffffffffffff811115614e3e57600080fd5b602083019150836020828501011115614e5657600080fd5b9250929050565b600080600080600060808688031215614e7557600080fd5b8535614e8081614cdb565b94506020860135614e9081614cdb565b935060408601359250606086013567ffffffffffffffff811115614eb357600080fd5b614ebf88828901614e14565b969995985093965092949392505050565b600060208284031215614ee257600080fd5b8135611abc81614cdb565b60008060408385031215614f0057600080fd5b823591506020830135614f1281614cdb565b809150509250929050565b634e487b7160e01b600052604160045260246000fd5b601f19601f830116810181811067ffffffffffffffff82111715614f5957614f59614f1d565b6040525050565b600067ffffffffffffffff821115614f7a57614f7a614f1d565b50601f01601f191660200190565b600082601f830112614f9957600080fd5b8135614fa481614f60565b604051614fb18282614f33565b828152856020848701011115614fc657600080fd5b82602086016020830137600092810160200192909252509392505050565b803563ffffffff81168114614de357600080fd5b600080600080600080600060e0888a03121561501357600080fd5b87359650602088013567ffffffffffffffff81111561503157600080fd5b61503d8a828b01614f88565b965050604088013561504e81614cdb565b9450606088013561505e81614cdb565b935061506c60808901614dcb565b925061507a60a08901614fe4565b915061508860c08901614dcb565b905092959891949750929550565b600067ffffffffffffffff8211156150b0576150b0614f1d565b5060051b60200190565b600082601f8301126150cb57600080fd5b813560206150d882615096565b6040516150e58282614f33565b83815260059390931b850182019282810191508684111561510557600080fd5b8286015b8481101561231e5780358352918301918301615109565b600080600080600060a0868803121561513857600080fd5b853561514381614cdb565b9450602086013561515381614cdb565b9350604086013567ffffffffffffffff8082111561517057600080fd5b61517c89838a016150ba565b9450606088013591508082111561519257600080fd5b61519e89838a016150ba565b935060808801359150808211156151b457600080fd5b506151c188828901614f88565b9150509295509295909350565b600080600080608085870312156151e457600080fd5b84359350602085013592506151fb60408601614fe4565b915061520960608601614dcb565b905092959194509250565b803561ffff81168114614de357600080fd5b6000806040838503121561523957600080fd5b82359150614e0b60208401615214565b6000806040838503121561525c57600080fd5b823567ffffffffffffffff8082111561527457600080fd5b818501915085601f83011261528857600080fd5b8135602061529582615096565b6040516152a28282614f33565b83815260059390931b85018201928281019150898411156152c257600080fd5b948201945b838610156152e95785356152da81614cdb565b825294820194908201906152c7565b965050860135925050808211156152ff57600080fd5b506147bf858286016150ba565b600081518084526020808501945080840160005b8381101561533c57815187529582019590820190600101615320565b509495945050505050565b602081526000611abc602083018461530c565b60008060006060848603121561536f57600080fd5b833561537a81614cdb565b9250602084013561538a81614cdb565b929592945050506040919091013590565b6000806000606084860312156153b057600080fd5b83359250602084013591506153c760408501614dcb565b90509250925092565b6000806000606084860312156153e557600080fd5b8335925060208401356153f781614cdb565b9150604084013561540781614cdb565b809150509250925092565b60008060008060006080868803121561542a57600080fd5b853567ffffffffffffffff81111561544157600080fd5b61544d88828901614e14565b909650945050602086013561546181614cdb565b925061546f60408701615214565b9150606086013561547f81614cdb565b809150509295509295909350565b80151581146125bb57600080fd5b600080604083850312156154ae57600080fd5b82356154b981614cdb565b91506020830135614f128161548d565b60008060008060008060a087890312156154e257600080fd5b863567ffffffffffffffff8111156154f957600080fd5b61550589828a01614e14565b909750955050602087013561551981614cdb565b935060408701359250606087013561553081614cdb565b915061553e60808801615214565b90509295509295509295565b6000806040838503121561555d57600080fd5b82359150614e0b60208401614fe4565b6000806040838503121561558057600080fd5b50508035926020909101359150565b60008060008060008060a087890312156155a857600080fd5b86359550602087013567ffffffffffffffff8111156155c657600080fd5b6155d289828a01614e14565b90965094505060408701356155e681614cdb565b92506155f460608801614fe4565b915061553e60808801614dcb565b6000806000806040858703121561561857600080fd5b843567ffffffffffffffff8082111561563057600080fd5b61563c88838901614e14565b9096509450602087013591508082111561565557600080fd5b5061566287828801614e14565b95989497509550505050565b6000806000806080858703121561568457600080fd5b84359350602085013561569681614cdb565b925060408501356151fb81614cdb565b6000806000606084860312156156bb57600080fd5b8335925060208401359150604084013561540781614cdb565b600080604083850312156156e757600080fd5b82356156f281614cdb565b91506020830135614f1281614cdb565b6000806000806060858703121561571857600080fd5b843567ffffffffffffffff81111561572f57600080fd5b61573b87828801614e14565b909550935050602085013561574f81614cdb565b9150604085013561575f81614cdb565b939692955090935050565b600080600080600060a0868803121561578257600080fd5b853561578d81614cdb565b9450602086013561579d81614cdb565b93506040860135925060608601359150608086013567ffffffffffffffff8111156157c757600080fd5b6151c188828901614f88565b6000602082840312156157e557600080fd5b815167ffffffffffffffff8111156157fc57600080fd5b8201601f8101841361580d57600080fd5b805161581881614f60565b6040516158258282614f33565b82815286602084860101111561583a57600080fd5b6117a4836020830160208701614d68565b6000806000806080858703121561586157600080fd5b843567ffffffffffffffff81111561587857600080fd5b61588487828801614f88565b945050602085013561589581614cdb565b92506158a360408601615214565b9150606085013561575f81614cdb565b6000602082840312156158c557600080fd5b5051919050565b634e487b7160e01b600052601160045260246000fd5b67ffffffffffffffff818116838216019080821115615903576159036158cc565b5092915050565b600181811c9082168061591e57607f821691505b60208210810361593e57634e487b7160e01b600052602260045260246000fd5b50919050565b634e487b7160e01b600052603260045260246000fd5b6000600019820361596d5761596d6158cc565b5060010190565b604081526000615987604083018561530c565b8281036020840152615999818561530c565b95945050505050565b6000602082840312156159b457600080fd5b8151611abc81614cdb565b67ffffffffffffffff828116828216039080821115615903576159036158cc565b6000602082840312156159f257600080fd5b8151611abc8161548d565b8183823760009101908152919050565b818352818160208501375060006020828401015260006020601f19601f840116840101905092915050565b60a081526000615a4c60a08301898b615a0d565b6001600160a01b038816602084015263ffffffff8716604084015267ffffffffffffffff861660608401528281036080840152615a8a818587615a0d565b9a9950505050505050505050565b601f821115615ade57600081815260208120601f850160051c81016020861015615abf5750805b601f850160051c820191505b81811015613af457828155600101615acb565b505050565b67ffffffffffffffff831115615afb57615afb614f1d565b615b0f83615b09835461590a565b83615a98565b6000601f841160018114615b435760008515615b2b5750838201355b600019600387901b1c1916600186901b178355611465565b600083815260209020601f19861690835b82811015615b745786850135825560209485019460019092019101615b54565b5086821015615b915760001960f88860031b161c19848701351681555b505060018560011b0183555050505050565b815167ffffffffffffffff811115615bbd57615bbd614f1d565b615bd181615bcb845461590a565b84615a98565b602080601f831160018114615c065760008415615bee5750858301515b600019600386901b1c1916600185901b178555613af4565b600085815260208120601f198616915b82811015615c3557888601518255948401946001909101908401615c16565b5085821015615c535787850151600019600388901b60f8161c191681555b5050505050600190811b01905550565b60006001600160a01b03808816835280871660208401525060a06040830152615c8f60a083018661530c565b8281036060840152615ca1818661530c565b90508281036080840152613c368185614d8c565b600060208284031215615cc757600080fd5b8151611abc81614d35565b600060033d1115615ceb5760046000803e5060005160e01c5b90565b600060443d1015615cfc5790565b6040517ffffffffffffffffffffffffffffffffffffffffffffffffffffffffffffffffc803d016004833e81513d67ffffffffffffffff8160248401118184111715615d4a57505050505090565b8285019150815181811115615d625750505050505090565b843d8701016020828501011115615d7c5750505050505090565b615d8b60208286010187614f33565b509095945050505050565b608081526000615da96080830187614d8c565b6001600160a01b039590951660208301525063ffffffff92909216604083015267ffffffffffffffff16606090910152919050565b8181038181111561086f5761086f6158cc565b8082018082111561086f5761086f6158cc565b7fff000000000000000000000000000000000000000000000000000000000000008460f81b16815260008351615e41816001850160208801614d68565b835190830190615e58816001840160208801614d68565b0160010195945050505050565b60006001600160a01b03808816835280871660208401525084604083015283606083015260a06080830152615e9d60a0830184614d8c565b97965050505050505056fea2646970667358221220f30d5917b2f688200b043a7f19b9d692859c6205f0eece9e77c52e371a9a15fa64736f6c63430008110033",
  "devdoc": {
    "kind": "dev",
    "methods": {
      "allFusesBurned(bytes32,uint32)": {
        "params": {
          "fuseMask": "The fuses you want to check",
          "node": "Namehash of the name"
        },
        "returns": {
          "_0": "Boolean of whether or not all the selected fuses are burned"
        }
      },
      "balanceOf(address,uint256)": {
        "details": "See {IERC1155-balanceOf}. Requirements: - `account` cannot be the zero address."
      },
      "balanceOfBatch(address[],uint256[])": {
        "details": "See {IERC1155-balanceOfBatch}. Requirements: - `accounts` and `ids` must have the same length."
      },
      "canModifyName(bytes32,address)": {
        "params": {
          "addr": "which address to check permissions for",
          "node": "namehash of the name to check"
        },
        "returns": {
          "_0": "whether or not is owner or approved"
        }
      },
      "extendExpiry(bytes32,bytes32,uint64)": {
        "params": {
          "expiry": "When the name will expire in seconds since the Unix epoch",
          "labelhash": "Labelhash of the name, e.g. vitalik.xyz would be keccak256('vitalik')",
          "parentNode": "Parent namehash of the name e.g. vitalik.xyz would be namehash('xyz')"
        },
        "returns": {
          "_0": "New expiry"
        }
      },
      "getData(uint256)": {
        "params": {
          "id": "Namehash of the name"
        },
        "returns": {
          "expiry": "Expiry of the name",
          "fuses": "Fuses of the name",
          "owner": "Owner of the name"
        }
      },
      "isApprovedForAll(address,address)": {
        "details": "See {IERC1155-isApprovedForAll}."
      },
      "isWrapped(bytes32)": {
        "params": {
          "node": "Namehash of the name"
        },
        "returns": {
          "_0": "Boolean of whether or not the name is wrapped"
        }
      },
      "isWrapped(bytes32,bytes32)": {
        "params": {
          "labelhash": "Namehash of the name",
          "parentNode": "Namehash of the name"
        },
        "returns": {
          "_0": "Boolean of whether or not the name is wrapped"
        }
      },
      "owner()": {
        "details": "Returns the address of the current owner."
      },
      "ownerOf(uint256)": {
        "params": {
          "id": "Label as a string of the .pls domain to wrap"
        },
        "returns": {
          "owner": "The owner of the name"
        }
      },
      "recoverFunds(address,address,uint256)": {
        "details": "The contract is Ownable and only the owner can call the recover function.",
        "params": {
          "_amount": "The amount of tokens to recover.",
          "_to": "The address to send the tokens to.",
          "_token": "The address of the ERC20 token to recover"
        }
      },
      "registerAndWrapETH2LD(string,address,uint256,address,uint16)": {
        "details": "Registers a new .pls second-level domain and wraps it.      Only callable by authorised controllers.",
        "params": {
          "duration": "The duration, in seconds, to register the name for.",
          "label": "The label to register (Eg, 'foo' for 'foo.pls').",
          "ownerControlledFuses": "Initial owner-controlled fuses to set",
          "resolver": "The resolver address to set on the PNS registry (optional).",
          "wrappedOwner": "The owner of the wrapped name."
        },
        "returns": {
          "registrarExpiry": "The expiry date of the new name on the .pls registrar, in seconds since the Unix epoch."
        }
      },
      "renew(uint256,uint256)": {
        "details": "Only callable by authorised controllers.",
        "params": {
          "duration": "The number of seconds to renew the name for.",
          "tokenId": "The hash of the label to register (eg, `keccak256('foo')`, for 'foo.pls')."
        },
        "returns": {
          "expires": "The expiry date of the name on the .pls registrar, in seconds since the Unix epoch."
        }
      },
      "renounceOwnership()": {
        "details": "Leaves the contract without owner. It will not be possible to call `onlyOwner` functions anymore. Can only be called by the current owner. NOTE: Renouncing ownership will leave the contract without an owner, thereby removing any functionality that is only available to the owner."
      },
      "safeBatchTransferFrom(address,address,uint256[],uint256[],bytes)": {
        "details": "See {IERC1155-safeBatchTransferFrom}."
      },
      "safeTransferFrom(address,address,uint256,uint256,bytes)": {
        "details": "See {IERC1155-safeTransferFrom}."
      },
      "setApprovalForAll(address,bool)": {
        "details": "See {IERC1155-setApprovalForAll}."
      },
      "setChildFuses(bytes32,bytes32,uint32,uint64)": {
        "params": {
          "expiry": "When the name will expire in seconds since the Unix epoch",
          "fuses": "Fuses to burn",
          "labelhash": "Labelhash of the name, e.g. vitalik.xyz would be keccak256('vitalik')",
          "parentNode": "Parent namehash of the name e.g. vitalik.xyz would be namehash('xyz')"
        }
      },
      "setFuses(bytes32,uint16)": {
        "params": {
          "node": "Namehash of the name",
          "ownerControlledFuses": "Owner-controlled fuses to burn"
        },
        "returns": {
          "_0": "Old fuses"
        }
      },
      "setMetadataService(address)": {
        "params": {
          "_metadataService": "The new metadata service"
        }
      },
      "setRecord(bytes32,address,address,uint64)": {
        "params": {
          "node": "Namehash of the name to set a record for",
          "owner": "New owner in the registry",
          "resolver": "Resolver contract",
          "ttl": "Time to live in the registry"
        }
      },
      "setResolver(bytes32,address)": {
        "params": {
          "node": "namehash of the name",
          "resolver": "the resolver contract"
        }
      },
      "setSubnodeOwner(bytes32,string,address,uint32,uint64)": {
        "params": {
          "expiry": "When the name will expire in seconds since the Unix epoch",
          "fuses": "Initial fuses for the wrapped subdomain",
          "label": "Label of the subdomain as a string",
          "owner": "New owner in the wrapper",
          "parentNode": "Parent namehash of the subdomain"
        },
        "returns": {
          "node": "Namehash of the subdomain"
        }
      },
      "setSubnodeRecord(bytes32,string,address,address,uint64,uint32,uint64)": {
        "params": {
          "expiry": "When the name will expire in seconds since the Unix epoch",
          "fuses": "initial fuses for the wrapped subdomain",
          "label": "label of the subdomain as a string",
          "owner": "new owner in the wrapper",
          "parentNode": "parent namehash of the subdomain",
          "resolver": "resolver contract in the registry",
          "ttl": "ttl in the registry"
        },
        "returns": {
          "node": "Namehash of the subdomain"
        }
      },
      "setTTL(bytes32,uint64)": {
        "params": {
          "node": "Namehash of the name",
          "ttl": "TTL in the registry"
        }
      },
      "setUpgradeContract(address)": {
        "details": "The default value of upgradeContract is the 0 address. Use the 0 address at any time to make the contract not upgradable.",
        "params": {
          "_upgradeAddress": "address of an upgraded contract"
        }
      },
      "transferOwnership(address)": {
        "details": "Transfers ownership of the contract to a new account (`newOwner`). Can only be called by the current owner."
      },
      "unwrap(bytes32,bytes32,address)": {
        "details": "Can be called by the owner in the wrapper or an authorised caller in the wrapper",
        "params": {
          "controller": "Sets the owner in the registry to this address",
          "labelhash": "Labelhash of the name, e.g. vitalik.xyz would be keccak256('vitalik')",
          "parentNode": "Parent namehash of the name e.g. vitalik.xyz would be namehash('xyz')"
        }
      },
      "unwrapETH2LD(bytes32,address,address)": {
        "details": "Can be called by the owner in the wrapper or an authorised caller in the wrapper",
        "params": {
          "controller": "Sets the owner in the registry to this address",
          "labelhash": "Labelhash of the .pls domain",
          "registrant": "Sets the owner in the .pls registrar to this address"
        }
      },
      "upgrade(bytes,bytes)": {
        "details": "Can be called by the owner or an authorised caller",
        "params": {
          "extraData": "Extra data to pass to the upgrade contract",
          "name": "The name to upgrade, in DNS format"
        }
      },
      "uri(uint256)": {
        "params": {
          "tokenId": "The id of the token"
        },
        "returns": {
          "_0": "string uri of the metadata service"
        }
      },
      "wrap(bytes,address,address)": {
        "details": "Can be called by the owner in the registry or an authorised caller in the registry",
        "params": {
          "name": "The name to wrap, in DNS format",
          "resolver": "Resolver contract",
          "wrappedOwner": "Owner of the name in this contract"
        }
      },
      "wrapETH2LD(string,address,uint16,address)": {
        "details": "Can be called by the owner of the name on the .pls registrar or an authorised caller on the registrar",
        "params": {
          "label": "Label as a string of the .pls domain to wrap",
          "ownerControlledFuses": "Initial owner-controlled fuses to set",
          "resolver": "Resolver contract address",
          "wrappedOwner": "Owner of the name in this contract"
        }
      }
    },
    "version": 1
  },
  "userdoc": {
    "kind": "user",
    "methods": {
      "allFusesBurned(bytes32,uint32)": {
        "notice": "Checks all Fuses in the mask are burned for the node"
      },
      "canModifyName(bytes32,address)": {
        "notice": "Checks if owner or approved by owner"
      },
      "extendExpiry(bytes32,bytes32,uint64)": {
        "notice": "Extends expiry for a name"
      },
      "getData(uint256)": {
        "notice": "Gets the data for a name"
      },
      "isWrapped(bytes32)": {
        "notice": "Checks if a name is wrapped"
      },
      "isWrapped(bytes32,bytes32)": {
        "notice": "Checks if a name is wrapped in a more gas efficient way"
      },
      "ownerOf(uint256)": {
        "notice": "Gets the owner of a name"
      },
      "recoverFunds(address,address,uint256)": {
        "notice": "Recover ERC20 tokens sent to the contract by mistake."
      },
      "renew(uint256,uint256)": {
        "notice": "Renews a .pls second-level domain."
      },
      "setChildFuses(bytes32,bytes32,uint32,uint64)": {
        "notice": "Sets fuses of a name that you own the parent of. Can also be called by the owner of a .pls name"
      },
      "setFuses(bytes32,uint16)": {
        "notice": "Sets fuses of a name"
      },
      "setMetadataService(address)": {
        "notice": "Set the metadata service. Only the owner can do this"
      },
      "setRecord(bytes32,address,address,uint64)": {
        "notice": "Sets records for the name in the PNS Registry"
      },
      "setResolver(bytes32,address)": {
        "notice": "Sets resolver contract in the registry"
      },
      "setSubnodeOwner(bytes32,string,address,uint32,uint64)": {
        "notice": "Sets the subdomain owner in the registry and then wraps the subdomain"
      },
      "setSubnodeRecord(bytes32,string,address,address,uint64,uint32,uint64)": {
        "notice": "Sets the subdomain owner in the registry with records and then wraps the subdomain"
      },
      "setTTL(bytes32,uint64)": {
        "notice": "Sets TTL in the registry"
      },
      "setUpgradeContract(address)": {
        "notice": "Set the address of the upgradeContract of the contract. only admin can do this"
      },
      "unwrap(bytes32,bytes32,address)": {
        "notice": "Unwraps a non .pls domain, of any kind. Could be a DNSSEC name vitalik.xyz or a subdomain"
      },
      "unwrapETH2LD(bytes32,address,address)": {
        "notice": "Unwraps a .pls domain. e.g. vitalik.pls"
      },
      "upgrade(bytes,bytes)": {
        "notice": "Upgrades a domain of any kind. Could be a .pls name vitalik.pls, a DNSSEC name vitalik.xyz, or a subdomain"
      },
      "uri(uint256)": {
        "notice": "Get the metadata uri"
      },
      "wrap(bytes,address,address)": {
        "notice": "Wraps a non .pls domain, of any kind. Could be a DNSSEC name vitalik.xyz or a subdomain"
      },
      "wrapETH2LD(string,address,uint16,address)": {
        "notice": "Wraps a .pls domain, creating a new token and sending the original ERC721 token to this contract"
      }
    },
    "version": 1
  },
  "storageLayout": {
    "storage": [
      {
        "astId": 545,
        "contract": "contracts/wrapper/NameWrapper.sol:NameWrapper",
        "label": "_owner",
        "offset": 0,
        "slot": "0",
        "type": "t_address"
      },
      {
        "astId": 19970,
        "contract": "contracts/wrapper/NameWrapper.sol:NameWrapper",
        "label": "_tokens",
        "offset": 0,
        "slot": "1",
        "type": "t_mapping(t_uint256,t_uint256)"
      },
      {
        "astId": 19976,
        "contract": "contracts/wrapper/NameWrapper.sol:NameWrapper",
        "label": "_operatorApprovals",
        "offset": 0,
        "slot": "2",
        "type": "t_mapping(t_address,t_mapping(t_address,t_bool))"
      },
      {
        "astId": 19910,
        "contract": "contracts/wrapper/NameWrapper.sol:NameWrapper",
        "label": "controllers",
        "offset": 0,
        "slot": "3",
        "type": "t_mapping(t_address,t_bool)"
      },
      {
        "astId": 21329,
        "contract": "contracts/wrapper/NameWrapper.sol:NameWrapper",
        "label": "metadataService",
        "offset": 0,
        "slot": "4",
        "type": "t_contract(IMetadataService)20860"
      },
      {
        "astId": 21333,
        "contract": "contracts/wrapper/NameWrapper.sol:NameWrapper",
        "label": "names",
        "offset": 0,
        "slot": "5",
        "type": "t_mapping(t_bytes32,t_bytes_storage)"
      },
      {
        "astId": 21351,
        "contract": "contracts/wrapper/NameWrapper.sol:NameWrapper",
        "label": "upgradeContract",
        "offset": 0,
        "slot": "6",
        "type": "t_contract(INameWrapperUpgrade)21231"
      }
    ],
    "types": {
      "t_address": {
        "encoding": "inplace",
        "label": "address",
        "numberOfBytes": "20"
      },
      "t_bool": {
        "encoding": "inplace",
        "label": "bool",
        "numberOfBytes": "1"
      },
      "t_bytes32": {
        "encoding": "inplace",
        "label": "bytes32",
        "numberOfBytes": "32"
      },
      "t_bytes_storage": {
        "encoding": "bytes",
        "label": "bytes",
        "numberOfBytes": "32"
      },
      "t_contract(IMetadataService)20860": {
        "encoding": "inplace",
        "label": "contract IMetadataService",
        "numberOfBytes": "20"
      },
      "t_contract(INameWrapperUpgrade)21231": {
        "encoding": "inplace",
        "label": "contract INameWrapperUpgrade",
        "numberOfBytes": "20"
      },
      "t_mapping(t_address,t_bool)": {
        "encoding": "mapping",
        "key": "t_address",
        "label": "mapping(address => bool)",
        "numberOfBytes": "32",
        "value": "t_bool"
      },
      "t_mapping(t_address,t_mapping(t_address,t_bool))": {
        "encoding": "mapping",
        "key": "t_address",
        "label": "mapping(address => mapping(address => bool))",
        "numberOfBytes": "32",
        "value": "t_mapping(t_address,t_bool)"
      },
      "t_mapping(t_bytes32,t_bytes_storage)": {
        "encoding": "mapping",
        "key": "t_bytes32",
        "label": "mapping(bytes32 => bytes)",
        "numberOfBytes": "32",
        "value": "t_bytes_storage"
      },
      "t_mapping(t_uint256,t_uint256)": {
        "encoding": "mapping",
        "key": "t_uint256",
        "label": "mapping(uint256 => uint256)",
        "numberOfBytes": "32",
        "value": "t_uint256"
      },
      "t_uint256": {
        "encoding": "inplace",
        "label": "uint256",
        "numberOfBytes": "32"
      }
    }
  }
}