{
  "address": "0xbAEC51a7a77d97255A28D787B29bdf7107db02c3",
  "abi": [
    {
      "anonymous": false,
      "inputs": [
        {
          "indexed": true,
          "internalType": "bytes32",
          "name": "node",
          "type": "bytes32"
        },
        {
          "indexed": true,
          "internalType": "uint256",
          "name": "contentType",
          "type": "uint256"
        }
      ],
      "name": "ABIChanged",
      "type": "event"
    },
    {
      "anonymous": false,
      "inputs": [
        {
          "indexed": true,
          "internalType": "bytes32",
          "name": "node",
          "type": "bytes32"
        },
        {
          "indexed": false,
          "internalType": "address",
          "name": "a",
          "type": "address"
        }
      ],
      "name": "AddrChanged",
      "type": "event"
    },
    {
      "anonymous": false,
      "inputs": [
        {
          "indexed": true,
          "internalType": "bytes32",
          "name": "node",
          "type": "bytes32"
        },
        {
          "indexed": false,
          "internalType": "uint256",
          "name": "coinType",
          "type": "uint256"
        },
        {
          "indexed": false,
          "internalType": "bytes",
          "name": "newAddress",
          "type": "bytes"
        }
      ],
      "name": "AddressChanged",
      "type": "event"
    },
    {
      "anonymous": false,
      "inputs": [
        {
          "indexed": true,
          "internalType": "bytes32",
          "name": "node",
          "type": "bytes32"
        },
        {
          "indexed": false,
          "internalType": "bytes",
          "name": "hash",
          "type": "bytes"
        }
      ],
      "name": "ContenthashChanged",
      "type": "event"
    },
    {
      "anonymous": false,
      "inputs": [
        {
          "indexed": true,
          "internalType": "bytes32",
          "name": "node",
          "type": "bytes32"
        },
        {
          "indexed": false,
          "internalType": "bytes",
          "name": "name",
          "type": "bytes"
        },
        {
          "indexed": false,
          "internalType": "uint16",
          "name": "resource",
          "type": "uint16"
        },
        {
          "indexed": false,
          "internalType": "bytes",
          "name": "record",
          "type": "bytes"
        }
      ],
      "name": "DNSRecordChanged",
      "type": "event"
    },
    {
      "anonymous": false,
      "inputs": [
        {
          "indexed": true,
          "internalType": "bytes32",
          "name": "node",
          "type": "bytes32"
        },
        {
          "indexed": false,
          "internalType": "bytes",
          "name": "name",
          "type": "bytes"
        },
        {
          "indexed": false,
          "internalType": "uint16",
          "name": "resource",
          "type": "uint16"
        }
      ],
      "name": "DNSRecordDeleted",
      "type": "event"
    },
    {
      "anonymous": false,
      "inputs": [
        {
          "indexed": true,
          "internalType": "bytes32",
          "name": "node",
          "type": "bytes32"
        },
        {
          "indexed": false,
          "internalType": "bytes",
          "name": "lastzonehash",
          "type": "bytes"
        },
        {
          "indexed": false,
          "internalType": "bytes",
          "name": "zonehash",
          "type": "bytes"
        }
      ],
      "name": "DNSZonehashChanged",
      "type": "event"
    },
    {
      "anonymous": false,
      "inputs": [
        {
          "indexed": true,
          "internalType": "bytes32",
          "name": "node",
          "type": "bytes32"
        },
        {
          "indexed": true,
          "internalType": "bytes4",
          "name": "interfaceID",
          "type": "bytes4"
        },
        {
          "indexed": false,
          "internalType": "address",
          "name": "implementer",
          "type": "address"
        }
      ],
      "name": "InterfaceChanged",
      "type": "event"
    },
    {
      "anonymous": false,
      "inputs": [
        {
          "indexed": true,
          "internalType": "bytes32",
          "name": "node",
          "type": "bytes32"
        },
        {
          "indexed": false,
          "internalType": "string",
          "name": "name",
          "type": "string"
        }
      ],
      "name": "NameChanged",
      "type": "event"
    },
    {
      "anonymous": false,
      "inputs": [
        {
          "indexed": true,
          "internalType": "address",
          "name": "previousOwner",
          "type": "address"
        },
        {
          "indexed": true,
          "internalType": "address",
          "name": "newOwner",
          "type": "address"
        }
      ],
      "name": "OwnershipTransferred",
      "type": "event"
    },
    {
      "anonymous": false,
      "inputs": [
        {
          "indexed": true,
          "internalType": "bytes32",
          "name": "node",
          "type": "bytes32"
        },
        {
          "indexed": false,
          "internalType": "bytes32",
          "name": "x",
          "type": "bytes32"
        },
        {
          "indexed": false,
          "internalType": "bytes32",
          "name": "y",
          "type": "bytes32"
        }
      ],
      "name": "PubkeyChanged",
      "type": "event"
    },
    {
      "anonymous": false,
      "inputs": [
        {
          "indexed": true,
          "internalType": "bytes32",
          "name": "node",
          "type": "bytes32"
        },
        {
          "indexed": true,
          "internalType": "string",
          "name": "indexedKey",
          "type": "string"
        },
        {
          "indexed": false,
          "internalType": "string",
          "name": "key",
          "type": "string"
        },
        {
          "indexed": false,
          "internalType": "string",
          "name": "value",
          "type": "string"
        }
      ],
      "name": "TextChanged",
      "type": "event"
    },
    {
      "anonymous": false,
      "inputs": [
        {
          "indexed": true,
          "internalType": "bytes32",
          "name": "node",
          "type": "bytes32"
        },
        {
          "indexed": false,
          "internalType": "uint64",
          "name": "newVersion",
          "type": "uint64"
        }
      ],
      "name": "VersionChanged",
      "type": "event"
    },
    {
      "inputs": [
        {
          "internalType": "bytes32",
          "name": "node",
          "type": "bytes32"
        },
        {
          "internalType": "uint256",
          "name": "contentTypes",
          "type": "uint256"
        }
      ],
      "name": "ABI",
      "outputs": [
        {
          "internalType": "uint256",
          "name": "",
          "type": "uint256"
        },
        {
          "internalType": "bytes",
          "name": "",
          "type": "bytes"
        }
      ],
      "stateMutability": "view",
      "type": "function"
    },
    {
      "inputs": [
        {
          "internalType": "bytes32",
          "name": "node",
          "type": "bytes32"
        }
      ],
      "name": "addr",
      "outputs": [
        {
          "internalType": "address payable",
          "name": "",
          "type": "address"
        }
      ],
      "stateMutability": "view",
      "type": "function"
    },
    {
      "inputs": [
        {
          "internalType": "bytes32",
          "name": "node",
          "type": "bytes32"
        },
        {
          "internalType": "uint256",
          "name": "coinType",
          "type": "uint256"
        }
      ],
      "name": "addr",
      "outputs": [
        {
          "internalType": "bytes",
          "name": "",
          "type": "bytes"
        }
      ],
      "stateMutability": "view",
      "type": "function"
    },
    {
      "inputs": [
        {
          "internalType": "bytes32",
          "name": "node",
          "type": "bytes32"
        }
      ],
      "name": "clearRecords",
      "outputs": [],
      "stateMutability": "nonpayable",
      "type": "function"
    },
    {
      "inputs": [
        {
          "internalType": "bytes32",
          "name": "node",
          "type": "bytes32"
        }
      ],
      "name": "contenthash",
      "outputs": [
        {
          "internalType": "bytes",
          "name": "",
          "type": "bytes"
        }
      ],
      "stateMutability": "view",
      "type": "function"
    },
    {
      "inputs": [
        {
          "internalType": "bytes32",
          "name": "node",
          "type": "bytes32"
        },
        {
          "internalType": "bytes32",
          "name": "name",
          "type": "bytes32"
        },
        {
          "internalType": "uint16",
          "name": "resource",
          "type": "uint16"
        }
      ],
      "name": "dnsRecord",
      "outputs": [
        {
          "internalType": "bytes",
          "name": "",
          "type": "bytes"
        }
      ],
      "stateMutability": "view",
      "type": "function"
    },
    {
      "inputs": [
        {
          "internalType": "bytes32",
          "name": "node",
          "type": "bytes32"
        },
        {
          "internalType": "bytes32",
          "name": "name",
          "type": "bytes32"
        }
      ],
      "name": "hasDNSRecords",
      "outputs": [
        {
          "internalType": "bool",
          "name": "",
          "type": "bool"
        }
      ],
      "stateMutability": "view",
      "type": "function"
    },
    {
      "inputs": [
        {
          "internalType": "bytes32",
          "name": "node",
          "type": "bytes32"
        },
        {
          "internalType": "bytes4",
          "name": "interfaceID",
          "type": "bytes4"
        }
      ],
      "name": "interfaceImplementer",
      "outputs": [
        {
          "internalType": "address",
          "name": "",
          "type": "address"
        }
      ],
      "stateMutability": "view",
      "type": "function"
    },
    {
      "inputs": [
        {
          "internalType": "bytes32",
          "name": "node",
          "type": "bytes32"
        }
      ],
      "name": "name",
      "outputs": [
        {
          "internalType": "string",
          "name": "",
          "type": "string"
        }
      ],
      "stateMutability": "view",
      "type": "function"
    },
    {
      "inputs": [],
      "name": "owner",
      "outputs": [
        {
          "internalType": "address",
          "name": "",
          "type": "address"
        }
      ],
      "stateMutability": "view",
      "type": "function"
    },
    {
      "inputs": [
        {
          "internalType": "bytes32",
          "name": "node",
          "type": "bytes32"
        }
      ],
      "name": "pubkey",
      "outputs": [
        {
          "internalType": "bytes32",
          "name": "x",
          "type": "bytes32"
        },
        {
          "internalType": "bytes32",
          "name": "y",
          "type": "bytes32"
        }
      ],
      "stateMutability": "view",
      "type": "function"
    },
    {
      "inputs": [
        {
          "internalType": "bytes32",
          "name": "",
          "type": "bytes32"
        }
      ],
      "name": "recordVersions",
      "outputs": [
        {
          "internalType": "uint64",
          "name": "",
          "type": "uint64"
        }
      ],
      "stateMutability": "view",
      "type": "function"
    },
    {
      "inputs": [],
      "name": "renounceOwnership",
      "outputs": [],
      "stateMutability": "nonpayable",
      "type": "function"
    },
    {
      "inputs": [
        {
          "internalType": "bytes",
          "name": "",
          "type": "bytes"
        },
        {
          "internalType": "bytes",
          "name": "data",
          "type": "bytes"
        }
      ],
      "name": "resolve",
      "outputs": [
        {
          "internalType": "bytes",
          "name": "",
          "type": "bytes"
        }
      ],
      "stateMutability": "view",
      "type": "function"
    },
    {
      "inputs": [
        {
          "internalType": "bytes32",
          "name": "node",
          "type": "bytes32"
        },
        {
          "internalType": "uint256",
          "name": "contentType",
          "type": "uint256"
        },
        {
          "internalType": "bytes",
          "name": "data",
          "type": "bytes"
        }
      ],
      "name": "setABI",
      "outputs": [],
      "stateMutability": "nonpayable",
      "type": "function"
    },
    {
      "inputs": [
        {
          "internalType": "bytes32",
          "name": "node",
          "type": "bytes32"
        },
        {
          "internalType": "uint256",
          "name": "coinType",
          "type": "uint256"
        },
        {
          "internalType": "bytes",
          "name": "a",
          "type": "bytes"
        }
      ],
      "name": "setAddr",
      "outputs": [],
      "stateMutability": "nonpayable",
      "type": "function"
    },
    {
      "inputs": [
        {
          "internalType": "bytes32",
          "name": "node",
          "type": "bytes32"
        },
        {
          "internalType": "address",
          "name": "a",
          "type": "address"
        }
      ],
      "name": "setAddr",
      "outputs": [],
      "stateMutability": "nonpayable",
      "type": "function"
    },
    {
      "inputs": [
        {
          "internalType": "bytes32",
          "name": "node",
          "type": "bytes32"
        },
        {
          "internalType": "bytes",
          "name": "hash",
          "type": "bytes"
        }
      ],
      "name": "setContenthash",
      "outputs": [],
      "stateMutability": "nonpayable",
      "type": "function"
    },
    {
      "inputs": [
        {
          "internalType": "bytes32",
          "name": "node",
          "type": "bytes32"
        },
        {
          "internalType": "bytes",
          "name": "data",
          "type": "bytes"
        }
      ],
      "name": "setDNSRecords",
      "outputs": [],
      "stateMutability": "nonpayable",
      "type": "function"
    },
    {
      "inputs": [
        {
          "internalType": "bytes32",
          "name": "node",
          "type": "bytes32"
        },
        {
          "internalType": "bytes4",
          "name": "interfaceID",
          "type": "bytes4"
        },
        {
          "internalType": "address",
          "name": "implementer",
          "type": "address"
        }
      ],
      "name": "setInterface",
      "outputs": [],
      "stateMutability": "nonpayable",
      "type": "function"
    },
    {
      "inputs": [
        {
          "internalType": "bytes32",
          "name": "node",
          "type": "bytes32"
        },
        {
          "internalType": "string",
          "name": "newName",
          "type": "string"
        }
      ],
      "name": "setName",
      "outputs": [],
      "stateMutability": "nonpayable",
      "type": "function"
    },
    {
      "inputs": [
        {
          "internalType": "bytes32",
          "name": "node",
          "type": "bytes32"
        },
        {
          "internalType": "bytes32",
          "name": "x",
          "type": "bytes32"
        },
        {
          "internalType": "bytes32",
          "name": "y",
          "type": "bytes32"
        }
      ],
      "name": "setPubkey",
      "outputs": [],
      "stateMutability": "nonpayable",
      "type": "function"
    },
    {
      "inputs": [
        {
          "internalType": "bytes32",
          "name": "node",
          "type": "bytes32"
        },
        {
          "internalType": "string",
          "name": "key",
          "type": "string"
        },
        {
          "internalType": "string",
          "name": "value",
          "type": "string"
        }
      ],
      "name": "setText",
      "outputs": [],
      "stateMutability": "nonpayable",
      "type": "function"
    },
    {
      "inputs": [
        {
          "internalType": "bytes32",
          "name": "node",
          "type": "bytes32"
        },
        {
          "internalType": "bytes",
          "name": "hash",
          "type": "bytes"
        }
      ],
      "name": "setZonehash",
      "outputs": [],
      "stateMutability": "nonpayable",
      "type": "function"
    },
    {
      "inputs": [
        {
          "internalType": "bytes4",
          "name": "interfaceID",
          "type": "bytes4"
        }
      ],
      "name": "supportsInterface",
      "outputs": [
        {
          "internalType": "bool",
          "name": "",
          "type": "bool"
        }
      ],
      "stateMutability": "view",
      "type": "function"
    },
    {
      "inputs": [
        {
          "internalType": "bytes32",
          "name": "node",
          "type": "bytes32"
        },
        {
          "internalType": "string",
          "name": "key",
          "type": "string"
        }
      ],
      "name": "text",
      "outputs": [
        {
          "internalType": "string",
          "name": "",
          "type": "string"
        }
      ],
      "stateMutability": "view",
      "type": "function"
    },
    {
      "inputs": [
        {
          "internalType": "address",
          "name": "newOwner",
          "type": "address"
        }
      ],
      "name": "transferOwnership",
      "outputs": [],
      "stateMutability": "nonpayable",
      "type": "function"
    },
    {
      "inputs": [
        {
          "internalType": "bytes32",
          "name": "node",
          "type": "bytes32"
        }
      ],
      "name": "zonehash",
      "outputs": [
        {
          "internalType": "bytes",
          "name": "",
          "type": "bytes"
        }
      ],
      "stateMutability": "view",
      "type": "function"
    }
  ],
  "transactionHash": "0x52fb01d0a9b7499c7ba13ab9c1e9479ff3ad85b749f5d6d12979a303e2d41a69",
  "args": [],
  "numDeployments": 1,
  "solcInputHash": "48feab0cbd85692569be9f5fa7a8b416",
  "bytecode": "0x608060405234801561001057600080fd5b5061001a3361001f565b61006f565b600080546001600160a01b038381166001600160a01b0319831681178455604051919092169283917f8be0079c531659141344cd1fd0a4f28419497f9722a3daafe3b4186f6b6457e09190a35050565b61292e8061007e6000396000f3fe608060405234801561001057600080fd5b50600436106101c45760003560e01c8063715018a6116100f9578063c869023311610097578063d700ff3311610071578063d700ff3314610450578063e59d895d14610493578063f1cb7e06146104a6578063f2fde38b146104b957600080fd5b8063c8690233146103d0578063ce3decdc1461042a578063d5fa2b001461043d57600080fd5b80638da5cb5b116100d35780638da5cb5b146103865780639061b92314610397578063a8fa5682146103aa578063bc1c58d1146103bd57600080fd5b8063715018a61461035857806377372213146103605780638b95dd711461037357600080fd5b80633603d7581161016657806359d1d43c1161014057806359d1d43c146102ff5780635c98042b1461031f578063623195b014610332578063691f34311461034557600080fd5b80633603d7581461028b5780633b3b57de1461029e5780634cbf6ba4146102b157600080fd5b8063124a319c116101a2578063124a319c146102195780632203ab561461024457806329cd62ea14610265578063304e6ade1461027857600080fd5b806301ffc9a7146101c95780630af179d7146101f157806310f13a8c14610206575b600080fd5b6101dc6101d736600461205f565b6104cc565b60405190151581526020015b60405180910390f35b6102046101ff3660046120bc565b6104dd565b005b610204610214366004612108565b6106ef565b61022c610227366004612182565b6107c4565b6040516001600160a01b0390911681526020016101e8565b6102576102523660046121ae565b610a72565b6040516101e8929190612220565b610204610273366004612239565b610baa565b6102046102863660046120bc565b610c52565b610204610299366004612265565b610cd6565b61022c6102ac366004612265565b610d81565b6101dc6102bf3660046121ae565b60008281526001602090815260408083205467ffffffffffffffff1683526007825280832094835293815283822092825291909152205461ffff16151590565b61031261030d3660046120bc565b610db4565b6040516101e8919061227e565b61031261032d366004612265565b610e96565b610204610340366004612291565b610f57565b610312610353366004612265565b610ffc565b610204611038565b61020461036e3660046120bc565b61104c565b610204610381366004612387565b6110d0565b6000546001600160a01b031661022c565b6103126103a53660046123d7565b6111b9565b6103126103b836600461243b565b611232565b6103126103cb366004612265565b611282565b6104156103de366004612265565b60008181526001602081815260408084205467ffffffffffffffff168452600a825280842094845293905291902080549101549091565b604080519283526020830191909152016101e8565b6102046104383660046120bc565b6112be565b61020461044b366004612492565b611409565b61047a61045e366004612265565b60016020526000908152604090205467ffffffffffffffff1681565b60405167ffffffffffffffff90911681526020016101e8565b6102046104a13660046124b5565b611437565b6103126104b43660046121ae565b6114f3565b6102046104c73660046124f1565b6115bd565b60006104d782611652565b92915050565b60005483906001600160a01b031633146104f657600080fd5b6000848152600160209081526040808320548151601f870184900484028101840190925285825283926060928392859267ffffffffffffffff90911691839161055e9183918d908d908190840183828082843760009201919091525092939250506116909050565b90505b80515160208201511015610688578661ffff166000036105c6578060400151965061058b816116f1565b94508460405160200161059e919061250c565b6040516020818303038152906040528051906020012092506105bf81611712565b935061067a565b60006105d1826116f1565b9050816040015161ffff168861ffff161415806105f557506105f3868261172e565b155b15610678576106518c878a8e8e8080601f016020809104026020016040519081016040528093929190818152602001838380828437600092019190915250505060208801518d915061064890829061253e565b8b51158a61174c565b81604001519750816020015196508095508580519060200120935061067582611712565b94505b505b610683816119b9565b610561565b508351156106e3576106e38a85888c8c8080601f0160208091040260200160405190810160405280939291908181526020018383808284376000920191909152508c92506106da91508290508f61253e565b8951158861174c565b50505050505050505050565b60005485906001600160a01b0316331461070857600080fd5b60008681526001602090815260408083205467ffffffffffffffff168352600b82528083208984529091529081902090518491849161074a9089908990612551565b908152602001604051809103902091826107659291906125e9565b508484604051610776929190612551565b6040518091039020867f448bc014f1536726cf8d54ff3d6481ed3cbc683c2591ca204274009afa09b1a1878787876040516107b494939291906126d2565b60405180910390a3505050505050565b60008281526001602090815260408083205467ffffffffffffffff1683526008825280832085845282528083206001600160e01b0319851684529091528120546001600160a01b0316801561081a5790506104d7565b600061082585610d81565b90506001600160a01b038116610840576000925050506104d7565b6040516301ffc9a760e01b602482015260009081906001600160a01b0384169060440160408051601f198184030181529181526020820180517bffffffffffffffffffffffffffffffffffffffffffffffffffffffff166301ffc9a760e01b179052516108ad919061250c565b600060405180830381855afa9150503d80600081146108e8576040519150601f19603f3d011682016040523d82523d6000602084013e6108ed565b606091505b5091509150811580610900575060208151105b80610942575080601f8151811061091957610919612704565b01602001517fff0000000000000000000000000000000000000000000000000000000000000016155b156109545760009450505050506104d7565b6040516001600160e01b0319871660248201526001600160a01b0384169060440160408051601f198184030181529181526020820180517bffffffffffffffffffffffffffffffffffffffffffffffffffffffff166301ffc9a760e01b179052516109bf919061250c565b600060405180830381855afa9150503d80600081146109fa576040519150601f19603f3d011682016040523d82523d6000602084013e6109ff565b606091505b509092509050811580610a13575060208151105b80610a55575080601f81518110610a2c57610a2c612704565b01602001517fff0000000000000000000000000000000000000000000000000000000000000016155b15610a675760009450505050506104d7565b509095945050505050565b60008281526001602081815260408084205467ffffffffffffffff1684526002825280842086855290915282206060915b848111610b8a5780851615801590610ad3575060008181526020839052604081208054610acf90612561565b9050115b15610b825780826000838152602001908152602001600020808054610af790612561565b80601f0160208091040260200160405190810160405280929190818152602001828054610b2390612561565b8015610b705780601f10610b4557610100808354040283529160200191610b70565b820191906000526020600020905b815481529060010190602001808311610b5357829003601f168201915b50505050509050935093505050610ba3565b60011b610aa3565b5060006040518060200160405280600081525092509250505b9250929050565b60005483906001600160a01b03163314610bc357600080fd5b6040805180820182528481526020808201858152600088815260018084528582205467ffffffffffffffff168252600a84528582208a835290935284902092518355519101555184907f1d6f5e03d3f63eb58751986629a5439baee5079ff04f345becb66e23eb154e4690610c449086908690918252602082015260400190565b60405180910390a250505050565b60005483906001600160a01b03163314610c6b57600080fd5b60008481526001602090815260408083205467ffffffffffffffff168352600482528083208784529091529020610ca38385836125e9565b50837fe379c1624ed7e714cc0937528a32359d69d5281337765313dba4e081b72d75788484604051610c4492919061271a565b60005481906001600160a01b03163314610cef57600080fd5b6000828152600160205260408120805467ffffffffffffffff1691610d138361272e565b82546101009290920a67ffffffffffffffff8181021990931691831602179091556000848152600160209081526040918290205491519190921681528492507fc6621ccb8f3f5a04bb6502154b2caf6adf5983fe76dfef1cfc9c42e3579db444910160405180910390a25050565b600080610d90836104046114f3565b90508051600003610da45750600092915050565b610dad81611aa1565b9392505050565b60008381526001602090815260408083205467ffffffffffffffff168352600b825280832086845290915290819020905160609190610df69085908590612551565b90815260200160405180910390208054610e0f90612561565b80601f0160208091040260200160405190810160405280929190818152602001828054610e3b90612561565b8015610e885780601f10610e5d57610100808354040283529160200191610e88565b820191906000526020600020905b815481529060010190602001808311610e6b57829003601f168201915b505050505090509392505050565b60008181526001602090815260408083205467ffffffffffffffff168352600582528083208484529091529020805460609190610ed290612561565b80601f0160208091040260200160405190810160405280929190818152602001828054610efe90612561565b8015610f4b5780601f10610f2057610100808354040283529160200191610f4b565b820191906000526020600020905b815481529060010190602001808311610f2e57829003601f168201915b50505050509050919050565b60005484906001600160a01b03163314610f7057600080fd5b83610f7c60018261253e565b1615610f8757600080fd5b60008581526001602090815260408083205467ffffffffffffffff1683526002825280832088845282528083208784529091529020610fc78385836125e9565b50604051849086907faa121bbeef5f32f5961a2a28966e769023910fc9479059ee3495d4c1a696efe390600090a35050505050565b60008181526001602090815260408083205467ffffffffffffffff168352600982528083208484529091529020805460609190610ed290612561565b611040611ac9565b61104a6000611b23565b565b60005483906001600160a01b0316331461106557600080fd5b60008481526001602090815260408083205467ffffffffffffffff16835260098252808320878452909152902061109d8385836125e9565b50837fb7d29e911041e8d9b843369e890bcb72c9388692ba48b65ac54e7214c4c348f78484604051610c4492919061271a565b60005483906001600160a01b031633146110e957600080fd5b837f65412581168e88a1e60c6459d7f44ae83ad0832e670826c05a4e2476b57af752848460405161111b929190612220565b60405180910390a2610404830361117357837f52d7d861f09ab3d26239d492e8968629f95e9e318cf0b73bfddc441522a15fd261115784611aa1565b6040516001600160a01b03909116815260200160405180910390a25b60008481526001602090815260408083205467ffffffffffffffff16835260038252808320878452825280832086845290915290206111b28382612755565b5050505050565b6060600080306001600160a01b0316846040516111d6919061250c565b600060405180830381855afa9150503d8060008114611211576040519150601f19603f3d011682016040523d82523d6000602084013e611216565b606091505b5091509150811561122a5791506104d79050565b805160208201fd5b60008381526001602090815260408083205467ffffffffffffffff168352600682528083208684528252808320858452825280832061ffff851684529091529020805460609190610e0f90612561565b60008181526001602090815260408083205467ffffffffffffffff168352600482528083208484529091529020805460609190610ed290612561565b60005483906001600160a01b031633146112d757600080fd5b60008481526001602090815260408083205467ffffffffffffffff16808452600583528184208885529092528220805491929161131390612561565b80601f016020809104026020016040519081016040528092919081815260200182805461133f90612561565b801561138c5780601f106113615761010080835404028352916020019161138c565b820191906000526020600020905b81548152906001019060200180831161136f57829003601f168201915b5050505067ffffffffffffffff841660009081526005602090815260408083208b845290915290209192506113c490508587836125e9565b50857f8f15ed4b723ef428f250961da8315675b507046737e19319fc1a4d81bfe87f858287876040516113f993929190612815565b60405180910390a2505050505050565b60005482906001600160a01b0316331461142257600080fd5b6114328361040461038185611b80565b505050565b60005483906001600160a01b0316331461145057600080fd5b60008481526001602090815260408083205467ffffffffffffffff1683526008825280832087845282528083206001600160e01b0319871680855290835292819020805473ffffffffffffffffffffffffffffffffffffffff19166001600160a01b038716908117909155905190815286917f7c69f06bea0bdef565b709e93a147836b0063ba2dd89f02d0b7e8d931e6a6daa910160405180910390a350505050565b60008281526001602090815260408083205467ffffffffffffffff168352600382528083208584528252808320848452909152902080546060919061153790612561565b80601f016020809104026020016040519081016040528092919081815260200182805461156390612561565b80156115b05780601f10611585576101008083540402835291602001916115b0565b820191906000526020600020905b81548152906001019060200180831161159357829003601f168201915b5050505050905092915050565b6115c5611ac9565b6001600160a01b0381166116465760405162461bcd60e51b815260206004820152602660248201527f4f776e61626c653a206e6577206f776e657220697320746865207a65726f206160448201527f646472657373000000000000000000000000000000000000000000000000000060648201526084015b60405180910390fd5b61164f81611b23565b50565b60006001600160e01b031982167f59d1d43c0000000000000000000000000000000000000000000000000000000014806104d757506104d782611bb9565b6116de6040518060e001604052806060815260200160008152602001600061ffff168152602001600061ffff168152602001600063ffffffff16815260200160008152602001600081525090565b82815260c081018290526104d7816119b9565b602081015181516060916104d7916117099082611bf7565b84519190611c59565b60a081015160c08201516060916104d79161170990829061253e565b600081518351148015610dad5750610dad8360008460008751611cd0565b865160208801206000611760878787611c59565b9050831561188a5767ffffffffffffffff831660009081526006602090815260408083208d84528252808320858452825280832061ffff8c168452909152902080546117ab90612561565b15905061180a5767ffffffffffffffff831660009081526007602090815260408083208d845282528083208584529091528120805461ffff16916117ee83612845565b91906101000a81548161ffff021916908361ffff160217905550505b67ffffffffffffffff831660009081526006602090815260408083208d84528252808320858452825280832061ffff8c168452909152812061184b91611ff4565b897f03528ed0c2a3ebc993b12ce3c16bb382f9c7d88ef7d8a1bf290eaf35955a12078a8a60405161187d929190612863565b60405180910390a26106e3565b67ffffffffffffffff831660009081526006602090815260408083208d84528252808320858452825280832061ffff8c168452909152902080546118cd90612561565b905060000361192e5767ffffffffffffffff831660009081526007602090815260408083208d845282528083208584529091528120805461ffff169161191283612889565b91906101000a81548161ffff021916908361ffff160217905550505b67ffffffffffffffff831660009081526006602090815260408083208d84528252808320858452825280832061ffff8c16845290915290206119708282612755565b50897f52a608b3303a48862d07a73d82fa221318c0027fbbcfb1b2329bface3f19ff2b8a8a846040516119a5939291906128a0565b60405180910390a250505050505050505050565b60c081015160208201819052815151116119d05750565b60006119e482600001518360200151611bf7565b82602001516119f391906128cf565b8251909150611a029082611cf3565b61ffff166040830152611a166002826128cf565b8251909150611a259082611cf3565b61ffff166060830152611a396002826128cf565b8251909150611a489082611d1b565b63ffffffff166080830152611a5e6004826128cf565b8251909150600090611a709083611cf3565b61ffff169050611a816002836128cf565b60a084018190529150611a9481836128cf565b60c0909301929092525050565b60008151601414611ab157600080fd5b50602001516c01000000000000000000000000900490565b6000546001600160a01b0316331461104a5760405162461bcd60e51b815260206004820181905260248201527f4f776e61626c653a2063616c6c6572206973206e6f7420746865206f776e6572604482015260640161163d565b600080546001600160a01b0383811673ffffffffffffffffffffffffffffffffffffffff19831681178455604051919092169283917f8be0079c531659141344cd1fd0a4f28419497f9722a3daafe3b4186f6b6457e09190a35050565b6040805160148082528183019092526060916020820181803683375050506c010000000000000000000000009290920260208301525090565b60006001600160e01b031982167fc86902330000000000000000000000000000000000000000000000000000000014806104d757506104d782611d45565b6000815b83518110611c0b57611c0b6128e2565b6000611c178583611d83565b60ff169050611c278160016128cf565b611c3190836128cf565b915080600003611c415750611c47565b50611bfb565b611c51838261253e565b949350505050565b8251606090611c6883856128cf565b1115611c7357600080fd5b60008267ffffffffffffffff811115611c8e57611c8e6122e4565b6040519080825280601f01601f191660200182016040528015611cb8576020820181803683370190505b50905060208082019086860101610a67828287611da7565b6000611cdd848484611dfd565b611ce8878785611dfd565b149695505050505050565b8151600090611d038360026128cf565b1115611d0e57600080fd5b50016002015161ffff1690565b8151600090611d2b8360046128cf565b1115611d3657600080fd5b50016004015163ffffffff1690565b60006001600160e01b031982167f691f34310000000000000000000000000000000000000000000000000000000014806104d757506104d782611e21565b6000828281518110611d9757611d97612704565b016020015160f81c905092915050565b60208110611ddf5781518352611dbe6020846128cf565b9250611dcb6020836128cf565b9150611dd860208261253e565b9050611da7565b905182516020929092036101000a6000190180199091169116179052565b8251600090611e0c83856128cf565b1115611e1757600080fd5b5091016020012090565b60006001600160e01b031982167f124a319c0000000000000000000000000000000000000000000000000000000014806104d757506104d78260006001600160e01b031982167fa8fa5682000000000000000000000000000000000000000000000000000000001480611ebd57506001600160e01b031982167f5c98042b00000000000000000000000000000000000000000000000000000000145b806104d757506104d78260006001600160e01b031982167fbc1c58d10000000000000000000000000000000000000000000000000000000014806104d757506104d78260006001600160e01b031982167f3b3b57de000000000000000000000000000000000000000000000000000000001480611f6357506001600160e01b031982167ff1cb7e0600000000000000000000000000000000000000000000000000000000145b806104d757506104d78260006001600160e01b031982167f2203ab560000000000000000000000000000000000000000000000000000000014806104d757506104d78260006001600160e01b031982167fd700ff330000000000000000000000000000000000000000000000000000000014806104d757506301ffc9a760e01b6001600160e01b03198316146104d7565b50805461200090612561565b6000825580601f10612010575050565b601f01602090049060005260206000209081019061164f91905b8082111561203e576000815560010161202a565b5090565b80356001600160e01b03198116811461205a57600080fd5b919050565b60006020828403121561207157600080fd5b610dad82612042565b60008083601f84011261208c57600080fd5b50813567ffffffffffffffff8111156120a457600080fd5b602083019150836020828501011115610ba357600080fd5b6000806000604084860312156120d157600080fd5b83359250602084013567ffffffffffffffff8111156120ef57600080fd5b6120fb8682870161207a565b9497909650939450505050565b60008060008060006060868803121561212057600080fd5b85359450602086013567ffffffffffffffff8082111561213f57600080fd5b61214b89838a0161207a565b9096509450604088013591508082111561216457600080fd5b506121718882890161207a565b969995985093965092949392505050565b6000806040838503121561219557600080fd5b823591506121a560208401612042565b90509250929050565b600080604083850312156121c157600080fd5b50508035926020909101359150565b60005b838110156121eb5781810151838201526020016121d3565b50506000910152565b6000815180845261220c8160208601602086016121d0565b601f01601f19169290920160200192915050565b828152604060208201526000611c5160408301846121f4565b60008060006060848603121561224e57600080fd5b505081359360208301359350604090920135919050565b60006020828403121561227757600080fd5b5035919050565b602081526000610dad60208301846121f4565b600080600080606085870312156122a757600080fd5b8435935060208501359250604085013567ffffffffffffffff8111156122cc57600080fd5b6122d88782880161207a565b95989497509550505050565b634e487b7160e01b600052604160045260246000fd5b600082601f83011261230b57600080fd5b813567ffffffffffffffff80821115612326576123266122e4565b604051601f8301601f19908116603f0116810190828211818310171561234e5761234e6122e4565b8160405283815286602085880101111561236757600080fd5b836020870160208301376000602085830101528094505050505092915050565b60008060006060848603121561239c57600080fd5b8335925060208401359150604084013567ffffffffffffffff8111156123c157600080fd5b6123cd868287016122fa565b9150509250925092565b600080604083850312156123ea57600080fd5b823567ffffffffffffffff8082111561240257600080fd5b61240e868387016122fa565b9350602085013591508082111561242457600080fd5b50612431858286016122fa565b9150509250929050565b60008060006060848603121561245057600080fd5b8335925060208401359150604084013561ffff8116811461247057600080fd5b809150509250925092565b80356001600160a01b038116811461205a57600080fd5b600080604083850312156124a557600080fd5b823591506121a56020840161247b565b6000806000606084860312156124ca57600080fd5b833592506124da60208501612042565b91506124e86040850161247b565b90509250925092565b60006020828403121561250357600080fd5b610dad8261247b565b6000825161251e8184602087016121d0565b9190910192915050565b634e487b7160e01b600052601160045260246000fd5b818103818111156104d7576104d7612528565b8183823760009101908152919050565b600181811c9082168061257557607f821691505b60208210810361259557634e487b7160e01b600052602260045260246000fd5b50919050565b601f82111561143257600081815260208120601f850160051c810160208610156125c25750805b601f850160051c820191505b818110156125e1578281556001016125ce565b505050505050565b67ffffffffffffffff831115612601576126016122e4565b6126158361260f8354612561565b8361259b565b6000601f84116001811461264957600085156126315750838201355b600019600387901b1c1916600186901b1783556111b2565b600083815260209020601f19861690835b8281101561267a578685013582556020948501946001909201910161265a565b50868210156126975760001960f88860031b161c19848701351681555b505060018560011b0183555050505050565b81835281816020850137506000828201602090810191909152601f909101601f19169091010190565b6040815260006126e66040830186886126a9565b82810360208401526126f98185876126a9565b979650505050505050565b634e487b7160e01b600052603260045260246000fd5b602081526000611c516020830184866126a9565b600067ffffffffffffffff80831681810361274b5761274b612528565b6001019392505050565b815167ffffffffffffffff81111561276f5761276f6122e4565b6127838161277d8454612561565b8461259b565b602080601f8311600181146127b857600084156127a05750858301515b600019600386901b1c1916600185901b1785556125e1565b600085815260208120601f198616915b828110156127e7578886015182559484019460019091019084016127c8565b50858210156128055787850151600019600388901b60f8161c191681555b5050505050600190811b01905550565b60408152600061282860408301866121f4565b828103602084015261283b8185876126a9565b9695505050505050565b600061ffff82168061285957612859612528565b6000190192915050565b60408152600061287660408301856121f4565b905061ffff831660208301529392505050565b600061ffff80831681810361274b5761274b612528565b6060815260006128b360608301866121f4565b61ffff85166020840152828103604084015261283b81856121f4565b808201808211156104d7576104d7612528565b634e487b7160e01b600052600160045260246000fdfea2646970667358221220289bbc38bfa356a703aa0d194ee22200c0b9c6e19f1d81cbd04a20b87063e7c664736f6c63430008110033",
  "devdoc": {
    "kind": "dev",
    "methods": {
      "ABI(bytes32,uint256)": {
        "params": {
          "contentTypes": "A bitwise OR of the ABI formats accepted by the caller.",
          "node": "The PNS node to query"
        },
        "returns": {
          "_0": "contentType The content type of the return value",
          "_1": "data The ABI data"
        }
      },
      "addr(bytes32)": {
        "params": {
          "node": "The PNS node to query."
        },
        "returns": {
          "_0": "The associated address."
        }
      },
      "clearRecords(bytes32)": {
        "params": {
          "node": "The node to update."
        }
      },
      "contenthash(bytes32)": {
        "params": {
          "node": "The PNS node to query."
        },
        "returns": {
          "_0": "The associated contenthash."
        }
      },
      "dnsRecord(bytes32,bytes32,uint16)": {
        "params": {
          "name": "the keccak-256 hash of the fully-qualified name for which to fetch the record",
          "node": "the namehash of the node for which to fetch the record",
          "resource": "the ID of the resource as per https://en.wikipedia.org/wiki/List_of_DNS_record_types"
        },
        "returns": {
          "_0": "the DNS record in wire format if present, otherwise empty"
        }
      },
      "hasDNSRecords(bytes32,bytes32)": {
        "params": {
          "name": "the namehash of the node for which to check the records",
          "node": "the namehash of the node for which to check the records"
        }
      },
      "interfaceImplementer(bytes32,bytes4)": {
        "params": {
          "interfaceID": "The EIP 165 interface ID to check for.",
          "node": "The PNS node to query."
        },
        "returns": {
          "_0": "The address that implements this interface, or 0 if the interface is unsupported."
        }
      },
      "name(bytes32)": {
        "params": {
          "node": "The PNS node to query."
        },
        "returns": {
          "_0": "The associated name."
        }
      },
      "owner()": {
        "details": "Returns the address of the current owner."
      },
      "pubkey(bytes32)": {
        "params": {
          "node": "The PNS node to query"
        },
        "returns": {
          "x": "The X coordinate of the curve point for the public key.",
          "y": "The Y coordinate of the curve point for the public key."
        }
      },
      "renounceOwnership()": {
        "details": "Leaves the contract without owner. It will not be possible to call `onlyOwner` functions anymore. Can only be called by the current owner. NOTE: Renouncing ownership will leave the contract without an owner, thereby removing any functionality that is only available to the owner."
      },
      "setABI(bytes32,uint256,bytes)": {
        "params": {
          "contentType": "The content type of the ABI",
          "data": "The ABI data.",
          "node": "The node to update."
        }
      },
      "setAddr(bytes32,address)": {
        "params": {
          "a": "The address to set.",
          "node": "The node to update."
        }
      },
      "setContenthash(bytes32,bytes)": {
        "params": {
          "hash": "The contenthash to set",
          "node": "The node to update."
        }
      },
      "setDNSRecords(bytes32,bytes)": {
        "params": {
          "data": "the DNS wire format records to set",
          "node": "the namehash of the node for which to set the records"
        }
      },
      "setInterface(bytes32,bytes4,address)": {
        "params": {
          "implementer": "The address of a contract that implements this interface for this node.",
          "interfaceID": "The EIP 165 interface ID.",
          "node": "The node to update."
        }
      },
      "setName(bytes32,string)": {
        "params": {
          "node": "The node to update."
        }
      },
      "setPubkey(bytes32,bytes32,bytes32)": {
        "params": {
          "node": "The PNS node to query",
          "x": "the X coordinate of the curve point for the public key.",
          "y": "the Y coordinate of the curve point for the public key."
        }
      },
      "setText(bytes32,string,string)": {
        "params": {
          "key": "The key to set.",
          "node": "The node to update.",
          "value": "The text data value to set."
        }
      },
      "setZonehash(bytes32,bytes)": {
        "params": {
          "hash": "The zonehash to set",
          "node": "The node to update."
        }
      },
      "text(bytes32,string)": {
        "params": {
          "key": "The text data key to query.",
          "node": "The PNS node to query."
        },
        "returns": {
          "_0": "The associated text data."
        }
      },
      "transferOwnership(address)": {
        "details": "Transfers ownership of the contract to a new account (`newOwner`). Can only be called by the current owner."
      },
      "zonehash(bytes32)": {
        "params": {
          "node": "The PNS node to query."
        },
        "returns": {
          "_0": "The associated contenthash."
        }
      }
    },
    "version": 1
  },
  "userdoc": {
    "kind": "user",
    "methods": {
      "ABI(bytes32,uint256)": {
        "notice": "Returns the ABI associated with an PNS node. Defined in EIP205."
      },
      "addr(bytes32)": {
        "notice": "Returns the address associated with an PNS node."
      },
      "clearRecords(bytes32)": {
        "notice": "Increments the record version associated with an PNS node. May only be called by the owner of that node in the PNS registry."
      },
      "contenthash(bytes32)": {
        "notice": "Returns the contenthash associated with an PNS node."
      },
      "dnsRecord(bytes32,bytes32,uint16)": {
        "notice": "Obtain a DNS record."
      },
      "hasDNSRecords(bytes32,bytes32)": {
        "notice": "Check if a given node has records."
      },
      "interfaceImplementer(bytes32,bytes4)": {
        "notice": "Returns the address of a contract that implements the specified interface for this name. If an implementer has not been set for this interfaceID and name, the resolver will query the contract at `addr()`. If `addr()` is set, a contract exists at that address, and that contract implements EIP165 and returns `true` for the specified interfaceID, its address will be returned."
      },
      "name(bytes32)": {
        "notice": "Returns the name associated with an PNS node, for reverse records. Defined in EIP181."
      },
      "pubkey(bytes32)": {
        "notice": "Returns the SECP256k1 public key associated with an PNS node. Defined in EIP 619."
      },
      "setABI(bytes32,uint256,bytes)": {
        "notice": "Sets the ABI associated with an PNS node. Nodes may have one ABI of each content type. To remove an ABI, set it to the empty string."
      },
      "setAddr(bytes32,address)": {
        "notice": "Sets the address associated with an PNS node. May only be called by the owner of that node in the PNS registry."
      },
      "setContenthash(bytes32,bytes)": {
        "notice": "Sets the contenthash associated with an PNS node. May only be called by the owner of that node in the PNS registry."
      },
      "setDNSRecords(bytes32,bytes)": {
        "notice": "Set one or more DNS records.  Records are supplied in wire-format. Records with the same node/name/resource must be supplied one after the other to ensure the data is updated correctly. For example, if the data was supplied:     a.example.com IN A 1.2.3.4     a.example.com IN A 5.6.7.8     www.example.com IN CNAME a.example.com. then this would store the two A records for a.example.com correctly as a single RRSET, however if the data was supplied:     a.example.com IN A 1.2.3.4     www.example.com IN CNAME a.example.com.     a.example.com IN A 5.6.7.8 then this would store the first A record, the CNAME, then the second A record which would overwrite the first."
      },
      "setInterface(bytes32,bytes4,address)": {
        "notice": "Sets an interface associated with a name. Setting the address to 0 restores the default behaviour of querying the contract at `addr()` for interface support."
      },
      "setName(bytes32,string)": {
        "notice": "Sets the name associated with an PNS node, for reverse records. May only be called by the owner of that node in the PNS registry."
      },
      "setPubkey(bytes32,bytes32,bytes32)": {
        "notice": "Sets the SECP256k1 public key associated with an PNS node."
      },
      "setText(bytes32,string,string)": {
        "notice": "Sets the text data associated with an PNS node and key. May only be called by the owner of that node in the PNS registry."
      },
      "setZonehash(bytes32,bytes)": {
        "notice": "setZonehash sets the hash for the zone. May only be called by the owner of that node in the PNS registry."
      },
      "text(bytes32,string)": {
        "notice": "Returns the text data associated with an PNS node and key."
      },
      "zonehash(bytes32)": {
        "notice": "zonehash obtains the hash for the zone."
      }
    },
    "notice": "A simple resolver anyone can use; only allows the owner of a node to set its address.",
    "version": 1
  },
  "storageLayout": {
    "storage": [
      {
        "astId": 444,
        "contract": "contracts/resolvers/OwnedResolver.sol:OwnedResolver",
        "label": "_owner",
        "offset": 0,
        "slot": "0",
        "type": "t_address"
      },
      {
        "astId": 15745,
        "contract": "contracts/resolvers/OwnedResolver.sol:OwnedResolver",
        "label": "recordVersions",
        "offset": 0,
        "slot": "1",
        "type": "t_mapping(t_bytes32,t_uint64)"
      },
      {
        "astId": 15839,
        "contract": "contracts/resolvers/OwnedResolver.sol:OwnedResolver",
        "label": "versionable_abis",
        "offset": 0,
        "slot": "2",
        "type": "t_mapping(t_uint64,t_mapping(t_bytes32,t_mapping(t_uint256,t_bytes_storage)))"
      },
      {
        "astId": 15993,
        "contract": "contracts/resolvers/OwnedResolver.sol:OwnedResolver",
        "label": "versionable_addresses",
        "offset": 0,
        "slot": "3",
        "type": "t_mapping(t_uint64,t_mapping(t_bytes32,t_mapping(t_uint256,t_bytes_storage)))"
      },
      {
        "astId": 16184,
        "contract": "contracts/resolvers/OwnedResolver.sol:OwnedResolver",
        "label": "versionable_hashes",
        "offset": 0,
        "slot": "4",
        "type": "t_mapping(t_uint64,t_mapping(t_bytes32,t_bytes_storage))"
      },
      {
        "astId": 16274,
        "contract": "contracts/resolvers/OwnedResolver.sol:OwnedResolver",
        "label": "versionable_zonehashes",
        "offset": 0,
        "slot": "5",
        "type": "t_mapping(t_uint64,t_mapping(t_bytes32,t_bytes_storage))"
      },
      {
        "astId": 16284,
        "contract": "contracts/resolvers/OwnedResolver.sol:OwnedResolver",
        "label": "versionable_records",
        "offset": 0,
        "slot": "6",
        "type": "t_mapping(t_uint64,t_mapping(t_bytes32,t_mapping(t_bytes32,t_mapping(t_uint16,t_bytes_storage))))"
      },
      {
        "astId": 16292,
        "contract": "contracts/resolvers/OwnedResolver.sol:OwnedResolver",
        "label": "versionable_nameEntriesCount",
        "offset": 0,
        "slot": "7",
        "type": "t_mapping(t_uint64,t_mapping(t_bytes32,t_mapping(t_bytes32,t_uint16)))"
      },
      {
        "astId": 17030,
        "contract": "contracts/resolvers/OwnedResolver.sol:OwnedResolver",
        "label": "versionable_interfaces",
        "offset": 0,
        "slot": "8",
        "type": "t_mapping(t_uint64,t_mapping(t_bytes32,t_mapping(t_bytes4,t_address)))"
      },
      {
        "astId": 17222,
        "contract": "contracts/resolvers/OwnedResolver.sol:OwnedResolver",
        "label": "versionable_names",
        "offset": 0,
        "slot": "9",
        "type": "t_mapping(t_uint64,t_mapping(t_bytes32,t_string_storage))"
      },
      {
        "astId": 17309,
        "contract": "contracts/resolvers/OwnedResolver.sol:OwnedResolver",
        "label": "versionable_pubkeys",
        "offset": 0,
        "slot": "10",
        "type": "t_mapping(t_uint64,t_mapping(t_bytes32,t_struct(PublicKey)17302_storage))"
      },
      {
        "astId": 17412,
        "contract": "contracts/resolvers/OwnedResolver.sol:OwnedResolver",
        "label": "versionable_texts",
        "offset": 0,
        "slot": "11",
        "type": "t_mapping(t_uint64,t_mapping(t_bytes32,t_mapping(t_string_memory_ptr,t_string_storage)))"
      }
    ],
    "types": {
      "t_address": {
        "encoding": "inplace",
        "label": "address",
        "numberOfBytes": "20"
      },
      "t_bytes32": {
        "encoding": "inplace",
        "label": "bytes32",
        "numberOfBytes": "32"
      },
      "t_bytes4": {
        "encoding": "inplace",
        "label": "bytes4",
        "numberOfBytes": "4"
      },
      "t_bytes_storage": {
        "encoding": "bytes",
        "label": "bytes",
        "numberOfBytes": "32"
      },
      "t_mapping(t_bytes32,t_bytes_storage)": {
        "encoding": "mapping",
        "key": "t_bytes32",
        "label": "mapping(bytes32 => bytes)",
        "numberOfBytes": "32",
        "value": "t_bytes_storage"
      },
      "t_mapping(t_bytes32,t_mapping(t_bytes32,t_mapping(t_uint16,t_bytes_storage)))": {
        "encoding": "mapping",
        "key": "t_bytes32",
        "label": "mapping(bytes32 => mapping(bytes32 => mapping(uint16 => bytes)))",
        "numberOfBytes": "32",
        "value": "t_mapping(t_bytes32,t_mapping(t_uint16,t_bytes_storage))"
      },
      "t_mapping(t_bytes32,t_mapping(t_bytes32,t_uint16))": {
        "encoding": "mapping",
        "key": "t_bytes32",
        "label": "mapping(bytes32 => mapping(bytes32 => uint16))",
        "numberOfBytes": "32",
        "value": "t_mapping(t_bytes32,t_uint16)"
      },
      "t_mapping(t_bytes32,t_mapping(t_bytes4,t_address))": {
        "encoding": "mapping",
        "key": "t_bytes32",
        "label": "mapping(bytes32 => mapping(bytes4 => address))",
        "numberOfBytes": "32",
        "value": "t_mapping(t_bytes4,t_address)"
      },
      "t_mapping(t_bytes32,t_mapping(t_string_memory_ptr,t_string_storage))": {
        "encoding": "mapping",
        "key": "t_bytes32",
        "label": "mapping(bytes32 => mapping(string => string))",
        "numberOfBytes": "32",
        "value": "t_mapping(t_string_memory_ptr,t_string_storage)"
      },
      "t_mapping(t_bytes32,t_mapping(t_uint16,t_bytes_storage))": {
        "encoding": "mapping",
        "key": "t_bytes32",
        "label": "mapping(bytes32 => mapping(uint16 => bytes))",
        "numberOfBytes": "32",
        "value": "t_mapping(t_uint16,t_bytes_storage)"
      },
      "t_mapping(t_bytes32,t_mapping(t_uint256,t_bytes_storage))": {
        "encoding": "mapping",
        "key": "t_bytes32",
        "label": "mapping(bytes32 => mapping(uint256 => bytes))",
        "numberOfBytes": "32",
        "value": "t_mapping(t_uint256,t_bytes_storage)"
      },
      "t_mapping(t_bytes32,t_string_storage)": {
        "encoding": "mapping",
        "key": "t_bytes32",
        "label": "mapping(bytes32 => string)",
        "numberOfBytes": "32",
        "value": "t_string_storage"
      },
      "t_mapping(t_bytes32,t_struct(PublicKey)17302_storage)": {
        "encoding": "mapping",
        "key": "t_bytes32",
        "label": "mapping(bytes32 => struct PubkeyResolver.PublicKey)",
        "numberOfBytes": "32",
        "value": "t_struct(PublicKey)17302_storage"
      },
      "t_mapping(t_bytes32,t_uint16)": {
        "encoding": "mapping",
        "key": "t_bytes32",
        "label": "mapping(bytes32 => uint16)",
        "numberOfBytes": "32",
        "value": "t_uint16"
      },
      "t_mapping(t_bytes32,t_uint64)": {
        "encoding": "mapping",
        "key": "t_bytes32",
        "label": "mapping(bytes32 => uint64)",
        "numberOfBytes": "32",
        "value": "t_uint64"
      },
      "t_mapping(t_bytes4,t_address)": {
        "encoding": "mapping",
        "key": "t_bytes4",
        "label": "mapping(bytes4 => address)",
        "numberOfBytes": "32",
        "value": "t_address"
      },
      "t_mapping(t_string_memory_ptr,t_string_storage)": {
        "encoding": "mapping",
        "key": "t_string_memory_ptr",
        "label": "mapping(string => string)",
        "numberOfBytes": "32",
        "value": "t_string_storage"
      },
      "t_mapping(t_uint16,t_bytes_storage)": {
        "encoding": "mapping",
        "key": "t_uint16",
        "label": "mapping(uint16 => bytes)",
        "numberOfBytes": "32",
        "value": "t_bytes_storage"
      },
      "t_mapping(t_uint256,t_bytes_storage)": {
        "encoding": "mapping",
        "key": "t_uint256",
        "label": "mapping(uint256 => bytes)",
        "numberOfBytes": "32",
        "value": "t_bytes_storage"
      },
      "t_mapping(t_uint64,t_mapping(t_bytes32,t_bytes_storage))": {
        "encoding": "mapping",
        "key": "t_uint64",
        "label": "mapping(uint64 => mapping(bytes32 => bytes))",
        "numberOfBytes": "32",
        "value": "t_mapping(t_bytes32,t_bytes_storage)"
      },
      "t_mapping(t_uint64,t_mapping(t_bytes32,t_mapping(t_bytes32,t_mapping(t_uint16,t_bytes_storage))))": {
        "encoding": "mapping",
        "key": "t_uint64",
        "label": "mapping(uint64 => mapping(bytes32 => mapping(bytes32 => mapping(uint16 => bytes))))",
        "numberOfBytes": "32",
        "value": "t_mapping(t_bytes32,t_mapping(t_bytes32,t_mapping(t_uint16,t_bytes_storage)))"
      },
      "t_mapping(t_uint64,t_mapping(t_bytes32,t_mapping(t_bytes32,t_uint16)))": {
        "encoding": "mapping",
        "key": "t_uint64",
        "label": "mapping(uint64 => mapping(bytes32 => mapping(bytes32 => uint16)))",
        "numberOfBytes": "32",
        "value": "t_mapping(t_bytes32,t_mapping(t_bytes32,t_uint16))"
      },
      "t_mapping(t_uint64,t_mapping(t_bytes32,t_mapping(t_bytes4,t_address)))": {
        "encoding": "mapping",
        "key": "t_uint64",
        "label": "mapping(uint64 => mapping(bytes32 => mapping(bytes4 => address)))",
        "numberOfBytes": "32",
        "value": "t_mapping(t_bytes32,t_mapping(t_bytes4,t_address))"
      },
      "t_mapping(t_uint64,t_mapping(t_bytes32,t_mapping(t_string_memory_ptr,t_string_storage)))": {
        "encoding": "mapping",
        "key": "t_uint64",
        "label": "mapping(uint64 => mapping(bytes32 => mapping(string => string)))",
        "numberOfBytes": "32",
        "value": "t_mapping(t_bytes32,t_mapping(t_string_memory_ptr,t_string_storage))"
      },
      "t_mapping(t_uint64,t_mapping(t_bytes32,t_mapping(t_uint256,t_bytes_storage)))": {
        "encoding": "mapping",
        "key": "t_uint64",
        "label": "mapping(uint64 => mapping(bytes32 => mapping(uint256 => bytes)))",
        "numberOfBytes": "32",
        "value": "t_mapping(t_bytes32,t_mapping(t_uint256,t_bytes_storage))"
      },
      "t_mapping(t_uint64,t_mapping(t_bytes32,t_string_storage))": {
        "encoding": "mapping",
        "key": "t_uint64",
        "label": "mapping(uint64 => mapping(bytes32 => string))",
        "numberOfBytes": "32",
        "value": "t_mapping(t_bytes32,t_string_storage)"
      },
      "t_mapping(t_uint64,t_mapping(t_bytes32,t_struct(PublicKey)17302_storage))": {
        "encoding": "mapping",
        "key": "t_uint64",
        "label": "mapping(uint64 => mapping(bytes32 => struct PubkeyResolver.PublicKey))",
        "numberOfBytes": "32",
        "value": "t_mapping(t_bytes32,t_struct(PublicKey)17302_storage)"
      },
      "t_string_memory_ptr": {
        "encoding": "bytes",
        "label": "string",
        "numberOfBytes": "32"
      },
      "t_string_storage": {
        "encoding": "bytes",
        "label": "string",
        "numberOfBytes": "32"
      },
      "t_struct(PublicKey)17302_storage": {
        "encoding": "inplace",
        "label": "struct PubkeyResolver.PublicKey",
        "members": [
          {
            "astId": 17299,
            "contract": "contracts/resolvers/OwnedResolver.sol:OwnedResolver",
            "label": "x",
            "offset": 0,
            "slot": "0",
            "type": "t_bytes32"
          },
          {
            "astId": 17301,
            "contract": "contracts/resolvers/OwnedResolver.sol:OwnedResolver",
            "label": "y",
            "offset": 0,
            "slot": "1",
            "type": "t_bytes32"
          }
        ],
        "numberOfBytes": "64"
      },
      "t_uint16": {
        "encoding": "inplace",
        "label": "uint16",
        "numberOfBytes": "2"
      },
      "t_uint256": {
        "encoding": "inplace",
        "label": "uint256",
        "numberOfBytes": "32"
      },
      "t_uint64": {
        "encoding": "inplace",
        "label": "uint64",
        "numberOfBytes": "8"
      }
    }
  }
}