{
  "address": "0x2bBccC6dAeA62768712abAeCf589862BE722F2d1",
  "abi": [
    {
      "inputs": [
        {
          "internalType": "contract ENS",
          "name": "_ens",
          "type": "address"
        },
        {
          "internalType": "contract INameWrapper",
          "name": "wrapperAddress",
          "type": "address"
        },
        {
          "internalType": "address",
          "name": "_trustedETHController",
          "type": "address"
        },
        {
          "internalType": "address",
          "name": "_trustedReverseRegistrar",
          "type": "address"
        }
      ],
      "stateMutability": "nonpayable",
      "type": "constructor"
    },
    {
      "anonymous": false,
      "inputs": [
        {
          "indexed": true,
          "internalType": "bytes32",
          "name": "node",
          "type": "bytes32"
        },
        {
          "indexed": true,
          "internalType": "uint256",
          "name": "contentType",
          "type": "uint256"
        }
      ],
      "name": "ABIChanged",
      "type": "event"
    },
    {
      "anonymous": false,
      "inputs": [
        {
          "indexed": true,
          "internalType": "bytes32",
          "name": "node",
          "type": "bytes32"
        },
        {
          "indexed": false,
          "internalType": "address",
          "name": "a",
          "type": "address"
        }
      ],
      "name": "AddrChanged",
      "type": "event"
    },
    {
      "anonymous": false,
      "inputs": [
        {
          "indexed": true,
          "internalType": "bytes32",
          "name": "node",
          "type": "bytes32"
        },
        {
          "indexed": false,
          "internalType": "uint256",
          "name": "coinType",
          "type": "uint256"
        },
        {
          "indexed": false,
          "internalType": "bytes",
          "name": "newAddress",
          "type": "bytes"
        }
      ],
      "name": "AddressChanged",
      "type": "event"
    },
    {
      "anonymous": false,
      "inputs": [
        {
          "indexed": true,
          "internalType": "address",
          "name": "owner",
          "type": "address"
        },
        {
          "indexed": true,
          "internalType": "address",
          "name": "operator",
          "type": "address"
        },
        {
          "indexed": false,
          "internalType": "bool",
          "name": "approved",
          "type": "bool"
        }
      ],
      "name": "ApprovalForAll",
      "type": "event"
    },
    {
      "anonymous": false,
      "inputs": [
        {
          "indexed": false,
          "internalType": "address",
          "name": "owner",
          "type": "address"
        },
        {
          "indexed": true,
          "internalType": "bytes32",
          "name": "node",
          "type": "bytes32"
        },
        {
          "indexed": true,
          "internalType": "address",
          "name": "delegate",
          "type": "address"
        },
        {
          "indexed": true,
          "internalType": "bool",
          "name": "approved",
          "type": "bool"
        }
      ],
      "name": "Approved",
      "type": "event"
    },
    {
      "anonymous": false,
      "inputs": [
        {
          "indexed": true,
          "internalType": "bytes32",
          "name": "node",
          "type": "bytes32"
        },
        {
          "indexed": false,
          "internalType": "bytes",
          "name": "hash",
          "type": "bytes"
        }
      ],
      "name": "ContenthashChanged",
      "type": "event"
    },
    {
      "anonymous": false,
      "inputs": [
        {
          "indexed": true,
          "internalType": "bytes32",
          "name": "node",
          "type": "bytes32"
        },
        {
          "indexed": false,
          "internalType": "bytes",
          "name": "name",
          "type": "bytes"
        },
        {
          "indexed": false,
          "internalType": "uint16",
          "name": "resource",
          "type": "uint16"
        },
        {
          "indexed": false,
          "internalType": "bytes",
          "name": "record",
          "type": "bytes"
        }
      ],
      "name": "DNSRecordChanged",
      "type": "event"
    },
    {
      "anonymous": false,
      "inputs": [
        {
          "indexed": true,
          "internalType": "bytes32",
          "name": "node",
          "type": "bytes32"
        },
        {
          "indexed": false,
          "internalType": "bytes",
          "name": "name",
          "type": "bytes"
        },
        {
          "indexed": false,
          "internalType": "uint16",
          "name": "resource",
          "type": "uint16"
        }
      ],
      "name": "DNSRecordDeleted",
      "type": "event"
    },
    {
      "anonymous": false,
      "inputs": [
        {
          "indexed": true,
          "internalType": "bytes32",
          "name": "node",
          "type": "bytes32"
        },
        {
          "indexed": false,
          "internalType": "bytes",
          "name": "lastzonehash",
          "type": "bytes"
        },
        {
          "indexed": false,
          "internalType": "bytes",
          "name": "zonehash",
          "type": "bytes"
        }
      ],
      "name": "DNSZonehashChanged",
      "type": "event"
    },
    {
      "anonymous": false,
      "inputs": [
        {
          "indexed": true,
          "internalType": "bytes32",
          "name": "node",
          "type": "bytes32"
        },
        {
          "indexed": true,
          "internalType": "bytes4",
          "name": "interfaceID",
          "type": "bytes4"
        },
        {
          "indexed": false,
          "internalType": "address",
          "name": "implementer",
          "type": "address"
        }
      ],
      "name": "InterfaceChanged",
      "type": "event"
    },
    {
      "anonymous": false,
      "inputs": [
        {
          "indexed": true,
          "internalType": "bytes32",
          "name": "node",
          "type": "bytes32"
        },
        {
          "indexed": false,
          "internalType": "string",
          "name": "name",
          "type": "string"
        }
      ],
      "name": "NameChanged",
      "type": "event"
    },
    {
      "anonymous": false,
      "inputs": [
        {
          "indexed": true,
          "internalType": "bytes32",
          "name": "node",
          "type": "bytes32"
        },
        {
          "indexed": false,
          "internalType": "bytes32",
          "name": "x",
          "type": "bytes32"
        },
        {
          "indexed": false,
          "internalType": "bytes32",
          "name": "y",
          "type": "bytes32"
        }
      ],
      "name": "PubkeyChanged",
      "type": "event"
    },
    {
      "anonymous": false,
      "inputs": [
        {
          "indexed": true,
          "internalType": "bytes32",
          "name": "node",
          "type": "bytes32"
        },
        {
          "indexed": true,
          "internalType": "string",
          "name": "indexedKey",
          "type": "string"
        },
        {
          "indexed": false,
          "internalType": "string",
          "name": "key",
          "type": "string"
        },
        {
          "indexed": false,
          "internalType": "string",
          "name": "value",
          "type": "string"
        }
      ],
      "name": "TextChanged",
      "type": "event"
    },
    {
      "anonymous": false,
      "inputs": [
        {
          "indexed": true,
          "internalType": "bytes32",
          "name": "node",
          "type": "bytes32"
        },
        {
          "indexed": false,
          "internalType": "uint64",
          "name": "newVersion",
          "type": "uint64"
        }
      ],
      "name": "VersionChanged",
      "type": "event"
    },
    {
      "inputs": [
        {
          "internalType": "bytes32",
          "name": "node",
          "type": "bytes32"
        },
        {
          "internalType": "uint256",
          "name": "contentTypes",
          "type": "uint256"
        }
      ],
      "name": "ABI",
      "outputs": [
        {
          "internalType": "uint256",
          "name": "",
          "type": "uint256"
        },
        {
          "internalType": "bytes",
          "name": "",
          "type": "bytes"
        }
      ],
      "stateMutability": "view",
      "type": "function"
    },
    {
      "inputs": [
        {
          "internalType": "bytes32",
          "name": "node",
          "type": "bytes32"
        }
      ],
      "name": "addr",
      "outputs": [
        {
          "internalType": "address payable",
          "name": "",
          "type": "address"
        }
      ],
      "stateMutability": "view",
      "type": "function"
    },
    {
      "inputs": [
        {
          "internalType": "bytes32",
          "name": "node",
          "type": "bytes32"
        },
        {
          "internalType": "uint256",
          "name": "coinType",
          "type": "uint256"
        }
      ],
      "name": "addr",
      "outputs": [
        {
          "internalType": "bytes",
          "name": "",
          "type": "bytes"
        }
      ],
      "stateMutability": "view",
      "type": "function"
    },
    {
      "inputs": [
        {
          "internalType": "bytes32",
          "name": "node",
          "type": "bytes32"
        },
        {
          "internalType": "address",
          "name": "delegate",
          "type": "address"
        },
        {
          "internalType": "bool",
          "name": "approved",
          "type": "bool"
        }
      ],
      "name": "approve",
      "outputs": [],
      "stateMutability": "nonpayable",
      "type": "function"
    },
    {
      "inputs": [
        {
          "internalType": "bytes32",
          "name": "node",
          "type": "bytes32"
        }
      ],
      "name": "clearRecords",
      "outputs": [],
      "stateMutability": "nonpayable",
      "type": "function"
    },
    {
      "inputs": [
        {
          "internalType": "bytes32",
          "name": "node",
          "type": "bytes32"
        }
      ],
      "name": "contenthash",
      "outputs": [
        {
          "internalType": "bytes",
          "name": "",
          "type": "bytes"
        }
      ],
      "stateMutability": "view",
      "type": "function"
    },
    {
      "inputs": [
        {
          "internalType": "bytes32",
          "name": "node",
          "type": "bytes32"
        },
        {
          "internalType": "bytes32",
          "name": "name",
          "type": "bytes32"
        },
        {
          "internalType": "uint16",
          "name": "resource",
          "type": "uint16"
        }
      ],
      "name": "dnsRecord",
      "outputs": [
        {
          "internalType": "bytes",
          "name": "",
          "type": "bytes"
        }
      ],
      "stateMutability": "view",
      "type": "function"
    },
    {
      "inputs": [
        {
          "internalType": "bytes32",
          "name": "node",
          "type": "bytes32"
        },
        {
          "internalType": "bytes32",
          "name": "name",
          "type": "bytes32"
        }
      ],
      "name": "hasDNSRecords",
      "outputs": [
        {
          "internalType": "bool",
          "name": "",
          "type": "bool"
        }
      ],
      "stateMutability": "view",
      "type": "function"
    },
    {
      "inputs": [
        {
          "internalType": "bytes32",
          "name": "node",
          "type": "bytes32"
        },
        {
          "internalType": "bytes4",
          "name": "interfaceID",
          "type": "bytes4"
        }
      ],
      "name": "interfaceImplementer",
      "outputs": [
        {
          "internalType": "address",
          "name": "",
          "type": "address"
        }
      ],
      "stateMutability": "view",
      "type": "function"
    },
    {
      "inputs": [
        {
          "internalType": "address",
          "name": "owner",
          "type": "address"
        },
        {
          "internalType": "bytes32",
          "name": "node",
          "type": "bytes32"
        },
        {
          "internalType": "address",
          "name": "delegate",
          "type": "address"
        }
      ],
      "name": "isApprovedFor",
      "outputs": [
        {
          "internalType": "bool",
          "name": "",
          "type": "bool"
        }
      ],
      "stateMutability": "view",
      "type": "function"
    },
    {
      "inputs": [
        {
          "internalType": "address",
          "name": "account",
          "type": "address"
        },
        {
          "internalType": "address",
          "name": "operator",
          "type": "address"
        }
      ],
      "name": "isApprovedForAll",
      "outputs": [
        {
          "internalType": "bool",
          "name": "",
          "type": "bool"
        }
      ],
      "stateMutability": "view",
      "type": "function"
    },
    {
      "inputs": [
        {
          "internalType": "bytes[]",
          "name": "data",
          "type": "bytes[]"
        }
      ],
      "name": "multicall",
      "outputs": [
        {
          "internalType": "bytes[]",
          "name": "results",
          "type": "bytes[]"
        }
      ],
      "stateMutability": "nonpayable",
      "type": "function"
    },
    {
      "inputs": [
        {
          "internalType": "bytes32",
          "name": "nodehash",
          "type": "bytes32"
        },
        {
          "internalType": "bytes[]",
          "name": "data",
          "type": "bytes[]"
        }
      ],
      "name": "multicallWithNodeCheck",
      "outputs": [
        {
          "internalType": "bytes[]",
          "name": "results",
          "type": "bytes[]"
        }
      ],
      "stateMutability": "nonpayable",
      "type": "function"
    },
    {
      "inputs": [
        {
          "internalType": "bytes32",
          "name": "node",
          "type": "bytes32"
        }
      ],
      "name": "name",
      "outputs": [
        {
          "internalType": "string",
          "name": "",
          "type": "string"
        }
      ],
      "stateMutability": "view",
      "type": "function"
    },
    {
      "inputs": [
        {
          "internalType": "bytes32",
          "name": "node",
          "type": "bytes32"
        }
      ],
      "name": "pubkey",
      "outputs": [
        {
          "internalType": "bytes32",
          "name": "x",
          "type": "bytes32"
        },
        {
          "internalType": "bytes32",
          "name": "y",
          "type": "bytes32"
        }
      ],
      "stateMutability": "view",
      "type": "function"
    },
    {
      "inputs": [
        {
          "internalType": "bytes32",
          "name": "",
          "type": "bytes32"
        }
      ],
      "name": "recordVersions",
      "outputs": [
        {
          "internalType": "uint64",
          "name": "",
          "type": "uint64"
        }
      ],
      "stateMutability": "view",
      "type": "function"
    },
    {
      "inputs": [
        {
          "internalType": "bytes32",
          "name": "node",
          "type": "bytes32"
        },
        {
          "internalType": "uint256",
          "name": "contentType",
          "type": "uint256"
        },
        {
          "internalType": "bytes",
          "name": "data",
          "type": "bytes"
        }
      ],
      "name": "setABI",
      "outputs": [],
      "stateMutability": "nonpayable",
      "type": "function"
    },
    {
      "inputs": [
        {
          "internalType": "bytes32",
          "name": "node",
          "type": "bytes32"
        },
        {
          "internalType": "uint256",
          "name": "coinType",
          "type": "uint256"
        },
        {
          "internalType": "bytes",
          "name": "a",
          "type": "bytes"
        }
      ],
      "name": "setAddr",
      "outputs": [],
      "stateMutability": "nonpayable",
      "type": "function"
    },
    {
      "inputs": [
        {
          "internalType": "bytes32",
          "name": "node",
          "type": "bytes32"
        },
        {
          "internalType": "address",
          "name": "a",
          "type": "address"
        }
      ],
      "name": "setAddr",
      "outputs": [],
      "stateMutability": "nonpayable",
      "type": "function"
    },
    {
      "inputs": [
        {
          "internalType": "address",
          "name": "operator",
          "type": "address"
        },
        {
          "internalType": "bool",
          "name": "approved",
          "type": "bool"
        }
      ],
      "name": "setApprovalForAll",
      "outputs": [],
      "stateMutability": "nonpayable",
      "type": "function"
    },
    {
      "inputs": [
        {
          "internalType": "bytes32",
          "name": "node",
          "type": "bytes32"
        },
        {
          "internalType": "bytes",
          "name": "hash",
          "type": "bytes"
        }
      ],
      "name": "setContenthash",
      "outputs": [],
      "stateMutability": "nonpayable",
      "type": "function"
    },
    {
      "inputs": [
        {
          "internalType": "bytes32",
          "name": "node",
          "type": "bytes32"
        },
        {
          "internalType": "bytes",
          "name": "data",
          "type": "bytes"
        }
      ],
      "name": "setDNSRecords",
      "outputs": [],
      "stateMutability": "nonpayable",
      "type": "function"
    },
    {
      "inputs": [
        {
          "internalType": "bytes32",
          "name": "node",
          "type": "bytes32"
        },
        {
          "internalType": "bytes4",
          "name": "interfaceID",
          "type": "bytes4"
        },
        {
          "internalType": "address",
          "name": "implementer",
          "type": "address"
        }
      ],
      "name": "setInterface",
      "outputs": [],
      "stateMutability": "nonpayable",
      "type": "function"
    },
    {
      "inputs": [
        {
          "internalType": "bytes32",
          "name": "node",
          "type": "bytes32"
        },
        {
          "internalType": "string",
          "name": "newName",
          "type": "string"
        }
      ],
      "name": "setName",
      "outputs": [],
      "stateMutability": "nonpayable",
      "type": "function"
    },
    {
      "inputs": [
        {
          "internalType": "bytes32",
          "name": "node",
          "type": "bytes32"
        },
        {
          "internalType": "bytes32",
          "name": "x",
          "type": "bytes32"
        },
        {
          "internalType": "bytes32",
          "name": "y",
          "type": "bytes32"
        }
      ],
      "name": "setPubkey",
      "outputs": [],
      "stateMutability": "nonpayable",
      "type": "function"
    },
    {
      "inputs": [
        {
          "internalType": "bytes32",
          "name": "node",
          "type": "bytes32"
        },
        {
          "internalType": "string",
          "name": "key",
          "type": "string"
        },
        {
          "internalType": "string",
          "name": "value",
          "type": "string"
        }
      ],
      "name": "setText",
      "outputs": [],
      "stateMutability": "nonpayable",
      "type": "function"
    },
    {
      "inputs": [
        {
          "internalType": "bytes32",
          "name": "node",
          "type": "bytes32"
        },
        {
          "internalType": "bytes",
          "name": "hash",
          "type": "bytes"
        }
      ],
      "name": "setZonehash",
      "outputs": [],
      "stateMutability": "nonpayable",
      "type": "function"
    },
    {
      "inputs": [
        {
          "internalType": "bytes4",
          "name": "interfaceID",
          "type": "bytes4"
        }
      ],
      "name": "supportsInterface",
      "outputs": [
        {
          "internalType": "bool",
          "name": "",
          "type": "bool"
        }
      ],
      "stateMutability": "view",
      "type": "function"
    },
    {
      "inputs": [
        {
          "internalType": "bytes32",
          "name": "node",
          "type": "bytes32"
        },
        {
          "internalType": "string",
          "name": "key",
          "type": "string"
        }
      ],
      "name": "text",
      "outputs": [
        {
          "internalType": "string",
          "name": "",
          "type": "string"
        }
      ],
      "stateMutability": "view",
      "type": "function"
    },
    {
      "inputs": [
        {
          "internalType": "bytes32",
          "name": "node",
          "type": "bytes32"
        }
      ],
      "name": "zonehash",
      "outputs": [
        {
          "internalType": "bytes",
          "name": "",
          "type": "bytes"
        }
      ],
      "stateMutability": "view",
      "type": "function"
    }
  ],
  "transactionHash": "0x2159765829912f4af320afdd41b11784216fd3533217f759d17ed410a10cb3fc",
  "args": [
    "0x7F66849c64e5bd2BA4601Aa87ce790178dBb463b",
    "0xB854C21c0cE5bE6F66F110b4Ffe9c36AD5B20Ea9",
    "0xB2487AF63223182050b1f160850c26a38eF7FF29",
    "0xA5A777f185e897FA75e4f58E526c5f400d6037EA"
  ],
  "numDeployments": 1,
  "solcInputHash": "6bd07c0199acb63d4b2a46d0e04b2e21",
  "bytecode": "0x6101006040523480156200001257600080fd5b50604051620032973803806200329783398101604081905262000035916200017a565b6040516302571be360e01b81527f91d1777781884d03a6757a803996e38de2a42967fb37eeaca72729271025a9e26004820152849033906000906001600160a01b038416906302571be390602401602060405180830381865afa158015620000a1573d6000803e3d6000fd5b505050506040513d601f19601f82011682018060405250810190620000c79190620001e2565b604051630f41a04d60e11b81526001600160a01b03848116600483015291925090821690631e83409a906024016020604051808303816000875af115801562000114573d6000803e3d6000fd5b505050506040513d601f19601f820116820180604052508101906200013a919062000209565b5050506001600160a01b039485166080525091831660a052821660c0521660e05262000223565b6001600160a01b03811681146200017757600080fd5b50565b600080600080608085870312156200019157600080fd5b84516200019e8162000161565b6020860151909450620001b18162000161565b6040860151909350620001c48162000161565b6060860151909250620001d78162000161565b939692955090935050565b600060208284031215620001f557600080fd5b8151620002028162000161565b9392505050565b6000602082840312156200021c57600080fd5b5051919050565b60805160a05160c05160e0516130336200026460003960006117da015260006117a80152600081816118b201526119180152600061183b01526130336000f3fe608060405234801561001057600080fd5b50600436106101da5760003560e01c80638b95dd7111610104578063c8690233116100a2578063e32954eb11610071578063e32954eb14610504578063e59d895d14610517578063e985e9c51461052a578063f1cb7e061461056657600080fd5b8063c869023314610442578063ce3decdc1461049b578063d5fa2b00146104ae578063d700ff33146104c157600080fd5b8063a8fa5682116100de578063a8fa5682146103b8578063a9784b3e146103cb578063ac9650d81461040f578063bc1c58d11461042f57600080fd5b80638b95dd711461037f578063a22cb46514610392578063a4b91a01146103a557600080fd5b80633603d7581161017c5780635c98042b1161014b5780635c98042b14610333578063623195b014610346578063691f343114610359578063773722131461036c57600080fd5b80633603d758146102a15780633b3b57de146102b45780634cbf6ba4146102c757806359d1d43c1461031357600080fd5b8063124a319c116101b8578063124a319c1461022f5780632203ab561461025a57806329cd62ea1461027b578063304e6ade1461028e57600080fd5b806301ffc9a7146101df5780630af179d71461020757806310f13a8c1461021c575b600080fd5b6101f26101ed36600461252c565b610579565b60405190151581526020015b60405180910390f35b61021a610215366004612589565b61058a565b005b61021a61022a3660046125d5565b610794565b61024261023d36600461264f565b610861565b6040516001600160a01b0390911681526020016101fe565b61026d61026836600461267b565b610b0d565b6040516101fe9291906126ed565b61021a610289366004612706565b610c44565b61021a61029c366004612589565b610cdf565b61021a6102af366004612732565b610d5b565b6102426102c2366004612732565b610dfe565b6101f26102d536600461267b565b6000828152602081815260408083205467ffffffffffffffff1683526006825280832094835293815283822092825291909152205461ffff16151590565b610326610321366004612589565b610e31565b6040516101fe919061274b565b610326610341366004612732565b610f11565b61021a61035436600461275e565b610fd0565b610326610367366004612732565b61106d565b61021a61037a366004612589565b6110a7565b61021a61038d3660046127c7565b611123565b61021a6103a03660046128b0565b611204565b61021a6103b33660046128dc565b6112f3565b6103266103c636600461291a565b6113c0565b6101f26103d936600461295a565b6001600160a01b039283166000908152600c60209081526040808320948352938152838220929094168152925290205460ff1690565b61042261041d3660046129d6565b61140e565b6040516101fe9190612a18565b61032661043d366004612732565b61141c565b610486610450366004612732565b6000818152602081815260408083205467ffffffffffffffff168352600982528083209383529290522080546001909101549091565b604080519283526020830191909152016101fe565b61021a6104a9366004612589565b611456565b61021a6104bc366004612a7a565b611599565b6104eb6104cf366004612732565b60006020819052908152604090205467ffffffffffffffff1681565b60405167ffffffffffffffff90911681526020016101fe565b610422610512366004612aaa565b6115c1565b61021a610525366004612ae9565b6115d6565b6101f2610538366004612b1e565b6001600160a01b039182166000908152600b6020908152604080832093909416825291909152205460ff1690565b61032661057436600461267b565b611695565b60006105848261175d565b92915050565b826105948161179b565b61059d57600080fd5b600084815260208181526040808320548151601f870184900484028101840190925285825283926060928392859267ffffffffffffffff9091169183916106039183918d908d90819084018382808284376000920191909152509293925050611a029050565b90505b8051516020820151101561072d578661ffff1660000361066b578060400151965061063081611a63565b9450846040516020016106439190612b4c565b60405160208183030381529060405280519060200120925061066481611a84565b935061071f565b600061067682611a63565b9050816040015161ffff168861ffff1614158061069a57506106988682611aa0565b155b1561071d576106f68c878a8e8e8080601f016020809104026020016040519081016040528093929190818152602001838380828437600092019190915250505060208801518d91506106ed908290612b7e565b8b51158a611abe565b81604001519750816020015196508095508580519060200120935061071a82611a84565b94505b505b61072881611d2b565b610606565b50835115610788576107888a85888c8c8080601f0160208091040260200160405190810160405280939291908181526020018383808284376000920191909152508c925061077f91508290508f612b7e565b89511588611abe565b50505050505050505050565b8461079e8161179b565b6107a757600080fd5b6000868152602081815260408083205467ffffffffffffffff168352600a8252808320898452909152908190209051849184916107e79089908990612b91565b90815260200160405180910390209182610802929190612c29565b508484604051610813929190612b91565b6040518091039020867f448bc014f1536726cf8d54ff3d6481ed3cbc683c2591ca204274009afa09b1a1878787876040516108519493929190612d12565b60405180910390a3505050505050565b6000828152602081815260408083205467ffffffffffffffff1683526007825280832085845282528083206001600160e01b0319851684529091528120546001600160a01b031680156108b5579050610584565b60006108c085610dfe565b90506001600160a01b0381166108db57600092505050610584565b6040516301ffc9a760e01b602482015260009081906001600160a01b0384169060440160408051601f198184030181529181526020820180517bffffffffffffffffffffffffffffffffffffffffffffffffffffffff166301ffc9a760e01b179052516109489190612b4c565b600060405180830381855afa9150503d8060008114610983576040519150601f19603f3d011682016040523d82523d6000602084013e610988565b606091505b509150915081158061099b575060208151105b806109dd575080601f815181106109b4576109b4612d44565b01602001517fff0000000000000000000000000000000000000000000000000000000000000016155b156109ef576000945050505050610584565b6040516001600160e01b0319871660248201526001600160a01b0384169060440160408051601f198184030181529181526020820180517bffffffffffffffffffffffffffffffffffffffffffffffffffffffff166301ffc9a760e01b17905251610a5a9190612b4c565b600060405180830381855afa9150503d8060008114610a95576040519150601f19603f3d011682016040523d82523d6000602084013e610a9a565b606091505b509092509050811580610aae575060208151105b80610af0575080601f81518110610ac757610ac7612d44565b01602001517fff0000000000000000000000000000000000000000000000000000000000000016155b15610b02576000945050505050610584565b509095945050505050565b6000828152602081815260408083205467ffffffffffffffff168352600180835281842086855290925282206060915b848111610c245780851615801590610b6d575060008181526020839052604081208054610b6990612ba1565b9050115b15610c1c5780826000838152602001908152602001600020808054610b9190612ba1565b80601f0160208091040260200160405190810160405280929190818152602001828054610bbd90612ba1565b8015610c0a5780601f10610bdf57610100808354040283529160200191610c0a565b820191906000526020600020905b815481529060010190602001808311610bed57829003601f168201915b50505050509050935093505050610c3d565b60011b610b3d565b5060006040518060200160405280600081525092509250505b9250929050565b82610c4e8161179b565b610c5757600080fd5b604080518082018252848152602080820185815260008881528083528481205467ffffffffffffffff1681526009835284812089825283528490209251835551600190920191909155815185815290810184905285917f1d6f5e03d3f63eb58751986629a5439baee5079ff04f345becb66e23eb154e4691015b60405180910390a250505050565b82610ce98161179b565b610cf257600080fd5b6000848152602081815260408083205467ffffffffffffffff168352600382528083208784529091529020610d28838583612c29565b50837fe379c1624ed7e714cc0937528a32359d69d5281337765313dba4e081b72d75788484604051610cd1929190612d5a565b80610d658161179b565b610d6e57600080fd5b6000828152602081905260408120805467ffffffffffffffff1691610d9283612d6e565b82546101009290920a67ffffffffffffffff818102199093169183160217909155600084815260208181526040918290205491519190921681528492507fc6621ccb8f3f5a04bb6502154b2caf6adf5983fe76dfef1cfc9c42e3579db444910160405180910390a25050565b600080610e0d83610171611695565b90508051600003610e215750600092915050565b610e2a81611e13565b9392505050565b6000838152602081815260408083205467ffffffffffffffff168352600a825280832086845290915290819020905160609190610e719085908590612b91565b90815260200160405180910390208054610e8a90612ba1565b80601f0160208091040260200160405190810160405280929190818152602001828054610eb690612ba1565b8015610f035780601f10610ed857610100808354040283529160200191610f03565b820191906000526020600020905b815481529060010190602001808311610ee657829003601f168201915b505050505090509392505050565b6000818152602081815260408083205467ffffffffffffffff168352600482528083208484529091529020805460609190610f4b90612ba1565b80601f0160208091040260200160405190810160405280929190818152602001828054610f7790612ba1565b8015610fc45780601f10610f9957610100808354040283529160200191610fc4565b820191906000526020600020905b815481529060010190602001808311610fa757829003601f168201915b50505050509050919050565b83610fda8161179b565b610fe357600080fd5b83610fef600182612b7e565b1615610ffa57600080fd5b6000858152602081815260408083205467ffffffffffffffff1683526001825280832088845282528083208784529091529020611038838583612c29565b50604051849086907faa121bbeef5f32f5961a2a28966e769023910fc9479059ee3495d4c1a696efe390600090a35050505050565b6000818152602081815260408083205467ffffffffffffffff168352600882528083208484529091529020805460609190610f4b90612ba1565b826110b18161179b565b6110ba57600080fd5b6000848152602081815260408083205467ffffffffffffffff1683526008825280832087845290915290206110f0838583612c29565b50837fb7d29e911041e8d9b843369e890bcb72c9388692ba48b65ac54e7214c4c348f78484604051610cd1929190612d5a565b8261112d8161179b565b61113657600080fd5b837f65412581168e88a1e60c6459d7f44ae83ad0832e670826c05a4e2476b57af75284846040516111689291906126ed565b60405180910390a261017183036111c057837f52d7d861f09ab3d26239d492e8968629f95e9e318cf0b73bfddc441522a15fd26111a484611e13565b6040516001600160a01b03909116815260200160405180910390a25b6000848152602081815260408083205467ffffffffffffffff16835260028252808320878452825280832086845290915290206111fd8382612d95565b5050505050565b6001600160a01b03821633036112875760405162461bcd60e51b815260206004820152602960248201527f455243313135353a2073657474696e6720617070726f76616c2073746174757360448201527f20666f722073656c66000000000000000000000000000000000000000000000060648201526084015b60405180910390fd5b336000818152600b602090815260408083206001600160a01b03871680855290835292819020805460ff191686151590811790915590519081529192917f17307eab39ab6107e8899845ad3d59bd9653f200f220920489ca2b5937696c31910160405180910390a35050565b6001600160a01b038216330361134b5760405162461bcd60e51b815260206004820181905260248201527f53657474696e672064656c65676174652073746174757320666f722073656c66604482015260640161127e565b336000818152600c6020908152604080832087845282528083206001600160a01b03871680855290835292819020805460ff191686151590811790915590519384529286917ff0ddb3b04746704017f9aa8bd728fcc2c1d11675041205350018915f5e4750a0910160405180910390a4505050565b6000838152602081815260408083205467ffffffffffffffff168352600582528083208684528252808320858452825280832061ffff851684529091529020805460609190610e8a90612ba1565b6060610e2a60008484611e3b565b6000818152602081815260408083205467ffffffffffffffff168352600382528083208484529091529020805460609190610f4b90612ba1565b826114608161179b565b61146957600080fd5b6000848152602081815260408083205467ffffffffffffffff1680845260048352818420888552909252822080549192916114a390612ba1565b80601f01602080910402602001604051908101604052809291908181526020018280546114cf90612ba1565b801561151c5780601f106114f15761010080835404028352916020019161151c565b820191906000526020600020905b8154815290600101906020018083116114ff57829003601f168201915b5050505067ffffffffffffffff841660009081526004602090815260408083208b845290915290209192506115549050858783612c29565b50857f8f15ed4b723ef428f250961da8315675b507046737e19319fc1a4d81bfe87f8582878760405161158993929190612e55565b60405180910390a2505050505050565b816115a38161179b565b6115ac57600080fd5b6115bc8361017161038d85612014565b505050565b60606115ce848484611e3b565b949350505050565b826115e08161179b565b6115e957600080fd5b6000848152602081815260408083205467ffffffffffffffff1683526007825280832087845282528083206001600160e01b031987168085529083529281902080547fffffffffffffffffffffffff0000000000000000000000000000000000000000166001600160a01b038716908117909155905190815286917f7c69f06bea0bdef565b709e93a147836b0063ba2dd89f02d0b7e8d931e6a6daa910160405180910390a350505050565b6000828152602081815260408083205467ffffffffffffffff16835260028252808320858452825280832084845290915290208054606091906116d790612ba1565b80601f016020809104026020016040519081016040528092919081815260200182805461170390612ba1565b80156117505780601f1061172557610100808354040283529160200191611750565b820191906000526020600020905b81548152906001019060200180831161173357829003601f168201915b5050505050905092915050565b60006001600160e01b031982167f59d1d43c00000000000000000000000000000000000000000000000000000000148061058457506105848261204d565b6000336001600160a01b037f00000000000000000000000000000000000000000000000000000000000000001614806117fc5750336001600160a01b037f000000000000000000000000000000000000000000000000000000000000000016145b1561180957506001919050565b6040517f02571be3000000000000000000000000000000000000000000000000000000008152600481018390526000907f00000000000000000000000000000000000000000000000000000000000000006001600160a01b0316906302571be390602401602060405180830381865afa15801561188a573d6000803e3d6000fd5b505050506040513d601f19601f820116820180604052508101906118ae9190612e85565b90507f00000000000000000000000000000000000000000000000000000000000000006001600160a01b0316816001600160a01b03160361198e576040517f6352211e000000000000000000000000000000000000000000000000000000008152600481018490527f00000000000000000000000000000000000000000000000000000000000000006001600160a01b031690636352211e90602401602060405180830381865afa158015611967573d6000803e3d6000fd5b505050506040513d601f19601f8201168201806040525081019061198b9190612e85565b90505b6001600160a01b0381163314806119c857506001600160a01b0381166000908152600b6020908152604080832033845290915290205460ff165b80610e2a57506001600160a01b0381166000908152600c60209081526040808320868452825280832033845290915290205460ff16610e2a565b611a506040518060e001604052806060815260200160008152602001600061ffff168152602001600061ffff168152602001600063ffffffff16815260200160008152602001600081525090565b82815260c0810182905261058481611d2b565b6020810151815160609161058491611a7b908261208b565b845191906120e5565b60a081015160c082015160609161058491611a7b908290612b7e565b600081518351148015610e2a5750610e2a836000846000875161215c565b865160208801206000611ad28787876120e5565b90508315611bfc5767ffffffffffffffff831660009081526005602090815260408083208d84528252808320858452825280832061ffff8c16845290915290208054611b1d90612ba1565b159050611b7c5767ffffffffffffffff831660009081526006602090815260408083208d845282528083208584529091528120805461ffff1691611b6083612ea2565b91906101000a81548161ffff021916908361ffff160217905550505b67ffffffffffffffff831660009081526005602090815260408083208d84528252808320858452825280832061ffff8c1684529091528120611bbd916124b9565b897f03528ed0c2a3ebc993b12ce3c16bb382f9c7d88ef7d8a1bf290eaf35955a12078a8a604051611bef929190612ec0565b60405180910390a2610788565b67ffffffffffffffff831660009081526005602090815260408083208d84528252808320858452825280832061ffff8c16845290915290208054611c3f90612ba1565b9050600003611ca05767ffffffffffffffff831660009081526006602090815260408083208d845282528083208584529091528120805461ffff1691611c8483612ee6565b91906101000a81548161ffff021916908361ffff160217905550505b67ffffffffffffffff831660009081526005602090815260408083208d84528252808320858452825280832061ffff8c1684529091529020611ce28282612d95565b50897f52a608b3303a48862d07a73d82fa221318c0027fbbcfb1b2329bface3f19ff2b8a8a84604051611d1793929190612efd565b60405180910390a250505050505050505050565b60c08101516020820181905281515111611d425750565b6000611d568260000151836020015161208b565b8260200151611d659190612f2c565b8251909150611d74908261217f565b61ffff166040830152611d88600282612f2c565b8251909150611d97908261217f565b61ffff166060830152611dab600282612f2c565b8251909150611dba90826121a7565b63ffffffff166080830152611dd0600482612f2c565b8251909150600090611de2908361217f565b61ffff169050611df3600283612f2c565b60a084018190529150611e068183612f2c565b60c0909301929092525050565b60008151601414611e2357600080fd5b50602001516c01000000000000000000000000900490565b60608167ffffffffffffffff811115611e5657611e566127b1565b604051908082528060200260200182016040528015611e8957816020015b6060815260200190600190039081611e745790505b50905060005b8281101561200c578415611f54576000848483818110611eb157611eb1612d44565b9050602002810190611ec39190612f3f565b611ed291602491600491612f86565b611edb91612fb0565b9050858114611f525760405162461bcd60e51b815260206004820152603460248201527f6d756c746963616c6c3a20416c6c207265636f726473206d757374206861766560448201527f2061206d61746368696e67206e616d6568617368000000000000000000000000606482015260840161127e565b505b60008030868685818110611f6a57611f6a612d44565b9050602002810190611f7c9190612f3f565b604051611f8a929190612b91565b600060405180830381855af49150503d8060008114611fc5576040519150601f19603f3d011682016040523d82523d6000602084013e611fca565b606091505b509150915081611fd957600080fd5b80848481518110611fec57611fec612d44565b60200260200101819052505050808061200490612fce565b915050611e8f565b509392505050565b6040805160148082528183019092526060916020820181803683375050506c010000000000000000000000009290920260208301525090565b60006001600160e01b031982167fc86902330000000000000000000000000000000000000000000000000000000014806105845750610584826121d1565b6000815b8351811061209f5761209f612fe7565b60006120ab858361220f565b60ff1690506120bb816001612f2c565b6120c59083612f2c565b9150806000036120d557506120db565b5061208f565b6115ce8382612b7e565b82516060906120f48385612f2c565b11156120ff57600080fd5b60008267ffffffffffffffff81111561211a5761211a6127b1565b6040519080825280601f01601f191660200182016040528015612144576020820181803683370190505b50905060208082019086860101610b02828287612233565b6000612169848484612289565b612174878785612289565b149695505050505050565b815160009061218f836002612f2c565b111561219a57600080fd5b50016002015161ffff1690565b81516000906121b7836004612f2c565b11156121c257600080fd5b50016004015163ffffffff1690565b60006001600160e01b031982167f691f34310000000000000000000000000000000000000000000000000000000014806105845750610584826122ad565b600082828151811061222357612223612d44565b016020015160f81c905092915050565b6020811061226b578151835261224a602084612f2c565b9250612257602083612f2c565b9150612264602082612b7e565b9050612233565b905182516020929092036101000a6000190180199091169116179052565b82516000906122988385612f2c565b11156122a357600080fd5b5091016020012090565b60006001600160e01b031982167f124a319c00000000000000000000000000000000000000000000000000000000148061058457506105848260006001600160e01b031982167fa8fa568200000000000000000000000000000000000000000000000000000000148061234957506001600160e01b031982167f5c98042b00000000000000000000000000000000000000000000000000000000145b8061058457506105848260006001600160e01b031982167fbc1c58d100000000000000000000000000000000000000000000000000000000148061058457506105848260006001600160e01b031982167f3b3b57de0000000000000000000000000000000000000000000000000000000014806123ef57506001600160e01b031982167ff1cb7e0600000000000000000000000000000000000000000000000000000000145b8061058457506105848260006001600160e01b031982167f2203ab5600000000000000000000000000000000000000000000000000000000148061058457506105848260006001600160e01b031982167fd700ff3300000000000000000000000000000000000000000000000000000000148061058457506105848260006001600160e01b031982167f4fbf043300000000000000000000000000000000000000000000000000000000148061058457506301ffc9a760e01b6001600160e01b0319831614610584565b5080546124c590612ba1565b6000825580601f106124d5575050565b601f0160209004906000526020600020908101906124f391906124f6565b50565b5b8082111561250b57600081556001016124f7565b5090565b80356001600160e01b03198116811461252757600080fd5b919050565b60006020828403121561253e57600080fd5b610e2a8261250f565b60008083601f84011261255957600080fd5b50813567ffffffffffffffff81111561257157600080fd5b602083019150836020828501011115610c3d57600080fd5b60008060006040848603121561259e57600080fd5b83359250602084013567ffffffffffffffff8111156125bc57600080fd5b6125c886828701612547565b9497909650939450505050565b6000806000806000606086880312156125ed57600080fd5b85359450602086013567ffffffffffffffff8082111561260c57600080fd5b61261889838a01612547565b9096509450604088013591508082111561263157600080fd5b5061263e88828901612547565b969995985093965092949392505050565b6000806040838503121561266257600080fd5b823591506126726020840161250f565b90509250929050565b6000806040838503121561268e57600080fd5b50508035926020909101359150565b60005b838110156126b85781810151838201526020016126a0565b50506000910152565b600081518084526126d981602086016020860161269d565b601f01601f19169290920160200192915050565b8281526040602082015260006115ce60408301846126c1565b60008060006060848603121561271b57600080fd5b505081359360208301359350604090920135919050565b60006020828403121561274457600080fd5b5035919050565b602081526000610e2a60208301846126c1565b6000806000806060858703121561277457600080fd5b8435935060208501359250604085013567ffffffffffffffff81111561279957600080fd5b6127a587828801612547565b95989497509550505050565b634e487b7160e01b600052604160045260246000fd5b6000806000606084860312156127dc57600080fd5b8335925060208401359150604084013567ffffffffffffffff8082111561280257600080fd5b818601915086601f83011261281657600080fd5b813581811115612828576128286127b1565b604051601f8201601f19908116603f01168101908382118183101715612850576128506127b1565b8160405282815289602084870101111561286957600080fd5b8260208601602083013760006020848301015280955050505050509250925092565b6001600160a01b03811681146124f357600080fd5b8035801515811461252757600080fd5b600080604083850312156128c357600080fd5b82356128ce8161288b565b9150612672602084016128a0565b6000806000606084860312156128f157600080fd5b8335925060208401356129038161288b565b9150612911604085016128a0565b90509250925092565b60008060006060848603121561292f57600080fd5b8335925060208401359150604084013561ffff8116811461294f57600080fd5b809150509250925092565b60008060006060848603121561296f57600080fd5b833561297a8161288b565b925060208401359150604084013561294f8161288b565b60008083601f8401126129a357600080fd5b50813567ffffffffffffffff8111156129bb57600080fd5b6020830191508360208260051b8501011115610c3d57600080fd5b600080602083850312156129e957600080fd5b823567ffffffffffffffff811115612a0057600080fd5b612a0c85828601612991565b90969095509350505050565b6000602080830181845280855180835260408601915060408160051b870101925083870160005b82811015612a6d57603f19888603018452612a5b8583516126c1565b94509285019290850190600101612a3f565b5092979650505050505050565b60008060408385031215612a8d57600080fd5b823591506020830135612a9f8161288b565b809150509250929050565b600080600060408486031215612abf57600080fd5b83359250602084013567ffffffffffffffff811115612add57600080fd5b6125c886828701612991565b600080600060608486031215612afe57600080fd5b83359250612b0e6020850161250f565b9150604084013561294f8161288b565b60008060408385031215612b3157600080fd5b8235612b3c8161288b565b91506020830135612a9f8161288b565b60008251612b5e81846020870161269d565b9190910192915050565b634e487b7160e01b600052601160045260246000fd5b8181038181111561058457610584612b68565b8183823760009101908152919050565b600181811c90821680612bb557607f821691505b602082108103612bd557634e487b7160e01b600052602260045260246000fd5b50919050565b601f8211156115bc57600081815260208120601f850160051c81016020861015612c025750805b601f850160051c820191505b81811015612c2157828155600101612c0e565b505050505050565b67ffffffffffffffff831115612c4157612c416127b1565b612c5583612c4f8354612ba1565b83612bdb565b6000601f841160018114612c895760008515612c715750838201355b600019600387901b1c1916600186901b1783556111fd565b600083815260209020601f19861690835b82811015612cba5786850135825560209485019460019092019101612c9a565b5086821015612cd75760001960f88860031b161c19848701351681555b505060018560011b0183555050505050565b81835281816020850137506000828201602090810191909152601f909101601f19169091010190565b604081526000612d26604083018688612ce9565b8281036020840152612d39818587612ce9565b979650505050505050565b634e487b7160e01b600052603260045260246000fd5b6020815260006115ce602083018486612ce9565b600067ffffffffffffffff808316818103612d8b57612d8b612b68565b6001019392505050565b815167ffffffffffffffff811115612daf57612daf6127b1565b612dc381612dbd8454612ba1565b84612bdb565b602080601f831160018114612df85760008415612de05750858301515b600019600386901b1c1916600185901b178555612c21565b600085815260208120601f198616915b82811015612e2757888601518255948401946001909101908401612e08565b5085821015612e455787850151600019600388901b60f8161c191681555b5050505050600190811b01905550565b604081526000612e6860408301866126c1565b8281036020840152612e7b818587612ce9565b9695505050505050565b600060208284031215612e9757600080fd5b8151610e2a8161288b565b600061ffff821680612eb657612eb6612b68565b6000190192915050565b604081526000612ed360408301856126c1565b905061ffff831660208301529392505050565b600061ffff808316818103612d8b57612d8b612b68565b606081526000612f1060608301866126c1565b61ffff851660208401528281036040840152612e7b81856126c1565b8082018082111561058457610584612b68565b6000808335601e19843603018112612f5657600080fd5b83018035915067ffffffffffffffff821115612f7157600080fd5b602001915036819003821315610c3d57600080fd5b60008085851115612f9657600080fd5b83861115612fa357600080fd5b5050820193919092039150565b8035602083101561058457600019602084900360031b1b1692915050565b600060018201612fe057612fe0612b68565b5060010190565b634e487b7160e01b600052600160045260246000fdfea2646970667358221220eeade15a5d6ed1ba52ced4208a96efed38c672c14c7406fe0af705ea24cc326b64736f6c63430008110033",
  "devdoc": {
    "kind": "dev",
    "methods": {
      "ABI(bytes32,uint256)": {
        "params": {
          "contentTypes": "A bitwise OR of the ABI formats accepted by the caller.",
          "node": "The PNS node to query"
        },
        "returns": {
          "_0": "contentType The content type of the return value",
          "_1": "data The ABI data"
        }
      },
      "addr(bytes32)": {
        "params": {
          "node": "The PNS node to query."
        },
        "returns": {
          "_0": "The associated address."
        }
      },
      "approve(bytes32,address,bool)": {
        "details": "Approve a delegate to be able to updated records on a node."
      },
      "clearRecords(bytes32)": {
        "params": {
          "node": "The node to update."
        }
      },
      "contenthash(bytes32)": {
        "params": {
          "node": "The PNS node to query."
        },
        "returns": {
          "_0": "The associated contenthash."
        }
      },
      "dnsRecord(bytes32,bytes32,uint16)": {
        "params": {
          "name": "the keccak-256 hash of the fully-qualified name for which to fetch the record",
          "node": "the namehash of the node for which to fetch the record",
          "resource": "the ID of the resource as per https://en.wikipedia.org/wiki/List_of_DNS_record_types"
        },
        "returns": {
          "_0": "the DNS record in wire format if present, otherwise empty"
        }
      },
      "hasDNSRecords(bytes32,bytes32)": {
        "params": {
          "name": "the namehash of the node for which to check the records",
          "node": "the namehash of the node for which to check the records"
        }
      },
      "interfaceImplementer(bytes32,bytes4)": {
        "params": {
          "interfaceID": "The EIP 165 interface ID to check for.",
          "node": "The PNS node to query."
        },
        "returns": {
          "_0": "The address that implements this interface, or 0 if the interface is unsupported."
        }
      },
      "isApprovedFor(address,bytes32,address)": {
        "details": "Check to see if the delegate has been approved by the owner for the node."
      },
      "isApprovedForAll(address,address)": {
        "details": "See {IERC1155-isApprovedForAll}."
      },
      "name(bytes32)": {
        "params": {
          "node": "The PNS node to query."
        },
        "returns": {
          "_0": "The associated name."
        }
      },
      "pubkey(bytes32)": {
        "params": {
          "node": "The PNS node to query"
        },
        "returns": {
          "x": "The X coordinate of the curve point for the public key.",
          "y": "The Y coordinate of the curve point for the public key."
        }
      },
      "setABI(bytes32,uint256,bytes)": {
        "params": {
          "contentType": "The content type of the ABI",
          "data": "The ABI data.",
          "node": "The node to update."
        }
      },
      "setAddr(bytes32,address)": {
        "params": {
          "a": "The address to set.",
          "node": "The node to update."
        }
      },
      "setApprovalForAll(address,bool)": {
        "details": "See {IERC1155-setApprovalForAll}."
      },
      "setContenthash(bytes32,bytes)": {
        "params": {
          "hash": "The contenthash to set",
          "node": "The node to update."
        }
      },
      "setDNSRecords(bytes32,bytes)": {
        "params": {
          "data": "the DNS wire format records to set",
          "node": "the namehash of the node for which to set the records"
        }
      },
      "setInterface(bytes32,bytes4,address)": {
        "params": {
          "implementer": "The address of a contract that implements this interface for this node.",
          "interfaceID": "The EIP 165 interface ID.",
          "node": "The node to update."
        }
      },
      "setName(bytes32,string)": {
        "params": {
          "node": "The node to update."
        }
      },
      "setPubkey(bytes32,bytes32,bytes32)": {
        "params": {
          "node": "The PNS node to query",
          "x": "the X coordinate of the curve point for the public key.",
          "y": "the Y coordinate of the curve point for the public key."
        }
      },
      "setText(bytes32,string,string)": {
        "params": {
          "key": "The key to set.",
          "node": "The node to update.",
          "value": "The text data value to set."
        }
      },
      "setZonehash(bytes32,bytes)": {
        "params": {
          "hash": "The zonehash to set",
          "node": "The node to update."
        }
      },
      "text(bytes32,string)": {
        "params": {
          "key": "The text data key to query.",
          "node": "The PNS node to query."
        },
        "returns": {
          "_0": "The associated text data."
        }
      },
      "zonehash(bytes32)": {
        "params": {
          "node": "The PNS node to query."
        },
        "returns": {
          "_0": "The associated contenthash."
        }
      }
    },
    "version": 1
  },
  "userdoc": {
    "kind": "user",
    "methods": {
      "ABI(bytes32,uint256)": {
        "notice": "Returns the ABI associated with an PNS node. Defined in EIP205."
      },
      "addr(bytes32)": {
        "notice": "Returns the address associated with an PNS node."
      },
      "clearRecords(bytes32)": {
        "notice": "Increments the record version associated with an PNS node. May only be called by the owner of that node in the PNS registry."
      },
      "contenthash(bytes32)": {
        "notice": "Returns the contenthash associated with an PNS node."
      },
      "dnsRecord(bytes32,bytes32,uint16)": {
        "notice": "Obtain a DNS record."
      },
      "hasDNSRecords(bytes32,bytes32)": {
        "notice": "Check if a given node has records."
      },
      "interfaceImplementer(bytes32,bytes4)": {
        "notice": "Returns the address of a contract that implements the specified interface for this name. If an implementer has not been set for this interfaceID and name, the resolver will query the contract at `addr()`. If `addr()` is set, a contract exists at that address, and that contract implements EIP165 and returns `true` for the specified interfaceID, its address will be returned."
      },
      "name(bytes32)": {
        "notice": "Returns the name associated with an PNS node, for reverse records. Defined in EIP181."
      },
      "pubkey(bytes32)": {
        "notice": "Returns the SECP256k1 public key associated with an PNS node. Defined in EIP 619."
      },
      "setABI(bytes32,uint256,bytes)": {
        "notice": "Sets the ABI associated with an PNS node. Nodes may have one ABI of each content type. To remove an ABI, set it to the empty string."
      },
      "setAddr(bytes32,address)": {
        "notice": "Sets the address associated with an PNS node. May only be called by the owner of that node in the PNS registry."
      },
      "setContenthash(bytes32,bytes)": {
        "notice": "Sets the contenthash associated with an PNS node. May only be called by the owner of that node in the PNS registry."
      },
      "setDNSRecords(bytes32,bytes)": {
        "notice": "Set one or more DNS records.  Records are supplied in wire-format. Records with the same node/name/resource must be supplied one after the other to ensure the data is updated correctly. For example, if the data was supplied:     a.example.com IN A 1.2.3.4     a.example.com IN A 5.6.7.8     www.example.com IN CNAME a.example.com. then this would store the two A records for a.example.com correctly as a single RRSET, however if the data was supplied:     a.example.com IN A 1.2.3.4     www.example.com IN CNAME a.example.com.     a.example.com IN A 5.6.7.8 then this would store the first A record, the CNAME, then the second A record which would overwrite the first."
      },
      "setInterface(bytes32,bytes4,address)": {
        "notice": "Sets an interface associated with a name. Setting the address to 0 restores the default behaviour of querying the contract at `addr()` for interface support."
      },
      "setName(bytes32,string)": {
        "notice": "Sets the name associated with an PNS node, for reverse records. May only be called by the owner of that node in the PNS registry."
      },
      "setPubkey(bytes32,bytes32,bytes32)": {
        "notice": "Sets the SECP256k1 public key associated with an PNS node."
      },
      "setText(bytes32,string,string)": {
        "notice": "Sets the text data associated with an PNS node and key. May only be called by the owner of that node in the PNS registry."
      },
      "setZonehash(bytes32,bytes)": {
        "notice": "setZonehash sets the hash for the zone. May only be called by the owner of that node in the PNS registry."
      },
      "text(bytes32,string)": {
        "notice": "Returns the text data associated with an PNS node and key."
      },
      "zonehash(bytes32)": {
        "notice": "zonehash obtains the hash for the zone."
      }
    },
    "notice": "A simple resolver anyone can use; only allows the owner of a node to set its address.",
    "version": 1
  },
  "storageLayout": {
    "storage": [
      {
        "astId": 15520,
        "contract": "contracts/resolvers/PublicResolver.sol:PublicResolver",
        "label": "recordVersions",
        "offset": 0,
        "slot": "0",
        "type": "t_mapping(t_bytes32,t_uint64)"
      },
      {
        "astId": 15614,
        "contract": "contracts/resolvers/PublicResolver.sol:PublicResolver",
        "label": "versionable_abis",
        "offset": 0,
        "slot": "1",
        "type": "t_mapping(t_uint64,t_mapping(t_bytes32,t_mapping(t_uint256,t_bytes_storage)))"
      },
      {
        "astId": 15768,
        "contract": "contracts/resolvers/PublicResolver.sol:PublicResolver",
        "label": "versionable_addresses",
        "offset": 0,
        "slot": "2",
        "type": "t_mapping(t_uint64,t_mapping(t_bytes32,t_mapping(t_uint256,t_bytes_storage)))"
      },
      {
        "astId": 15959,
        "contract": "contracts/resolvers/PublicResolver.sol:PublicResolver",
        "label": "versionable_hashes",
        "offset": 0,
        "slot": "3",
        "type": "t_mapping(t_uint64,t_mapping(t_bytes32,t_bytes_storage))"
      },
      {
        "astId": 16049,
        "contract": "contracts/resolvers/PublicResolver.sol:PublicResolver",
        "label": "versionable_zonehashes",
        "offset": 0,
        "slot": "4",
        "type": "t_mapping(t_uint64,t_mapping(t_bytes32,t_bytes_storage))"
      },
      {
        "astId": 16059,
        "contract": "contracts/resolvers/PublicResolver.sol:PublicResolver",
        "label": "versionable_records",
        "offset": 0,
        "slot": "5",
        "type": "t_mapping(t_uint64,t_mapping(t_bytes32,t_mapping(t_bytes32,t_mapping(t_uint16,t_bytes_storage))))"
      },
      {
        "astId": 16067,
        "contract": "contracts/resolvers/PublicResolver.sol:PublicResolver",
        "label": "versionable_nameEntriesCount",
        "offset": 0,
        "slot": "6",
        "type": "t_mapping(t_uint64,t_mapping(t_bytes32,t_mapping(t_bytes32,t_uint16)))"
      },
      {
        "astId": 16805,
        "contract": "contracts/resolvers/PublicResolver.sol:PublicResolver",
        "label": "versionable_interfaces",
        "offset": 0,
        "slot": "7",
        "type": "t_mapping(t_uint64,t_mapping(t_bytes32,t_mapping(t_bytes4,t_address)))"
      },
      {
        "astId": 16997,
        "contract": "contracts/resolvers/PublicResolver.sol:PublicResolver",
        "label": "versionable_names",
        "offset": 0,
        "slot": "8",
        "type": "t_mapping(t_uint64,t_mapping(t_bytes32,t_string_storage))"
      },
      {
        "astId": 17084,
        "contract": "contracts/resolvers/PublicResolver.sol:PublicResolver",
        "label": "versionable_pubkeys",
        "offset": 0,
        "slot": "9",
        "type": "t_mapping(t_uint64,t_mapping(t_bytes32,t_struct(PublicKey)17077_storage))"
      },
      {
        "astId": 17187,
        "contract": "contracts/resolvers/PublicResolver.sol:PublicResolver",
        "label": "versionable_texts",
        "offset": 0,
        "slot": "10",
        "type": "t_mapping(t_uint64,t_mapping(t_bytes32,t_mapping(t_string_memory_ptr,t_string_storage)))"
      },
      {
        "astId": 15049,
        "contract": "contracts/resolvers/PublicResolver.sol:PublicResolver",
        "label": "_operatorApprovals",
        "offset": 0,
        "slot": "11",
        "type": "t_mapping(t_address,t_mapping(t_address,t_bool))"
      },
      {
        "astId": 15058,
        "contract": "contracts/resolvers/PublicResolver.sol:PublicResolver",
        "label": "_tokenApprovals",
        "offset": 0,
        "slot": "12",
        "type": "t_mapping(t_address,t_mapping(t_bytes32,t_mapping(t_address,t_bool)))"
      }
    ],
    "types": {
      "t_address": {
        "encoding": "inplace",
        "label": "address",
        "numberOfBytes": "20"
      },
      "t_bool": {
        "encoding": "inplace",
        "label": "bool",
        "numberOfBytes": "1"
      },
      "t_bytes32": {
        "encoding": "inplace",
        "label": "bytes32",
        "numberOfBytes": "32"
      },
      "t_bytes4": {
        "encoding": "inplace",
        "label": "bytes4",
        "numberOfBytes": "4"
      },
      "t_bytes_storage": {
        "encoding": "bytes",
        "label": "bytes",
        "numberOfBytes": "32"
      },
      "t_mapping(t_address,t_bool)": {
        "encoding": "mapping",
        "key": "t_address",
        "label": "mapping(address => bool)",
        "numberOfBytes": "32",
        "value": "t_bool"
      },
      "t_mapping(t_address,t_mapping(t_address,t_bool))": {
        "encoding": "mapping",
        "key": "t_address",
        "label": "mapping(address => mapping(address => bool))",
        "numberOfBytes": "32",
        "value": "t_mapping(t_address,t_bool)"
      },
      "t_mapping(t_address,t_mapping(t_bytes32,t_mapping(t_address,t_bool)))": {
        "encoding": "mapping",
        "key": "t_address",
        "label": "mapping(address => mapping(bytes32 => mapping(address => bool)))",
        "numberOfBytes": "32",
        "value": "t_mapping(t_bytes32,t_mapping(t_address,t_bool))"
      },
      "t_mapping(t_bytes32,t_bytes_storage)": {
        "encoding": "mapping",
        "key": "t_bytes32",
        "label": "mapping(bytes32 => bytes)",
        "numberOfBytes": "32",
        "value": "t_bytes_storage"
      },
      "t_mapping(t_bytes32,t_mapping(t_address,t_bool))": {
        "encoding": "mapping",
        "key": "t_bytes32",
        "label": "mapping(bytes32 => mapping(address => bool))",
        "numberOfBytes": "32",
        "value": "t_mapping(t_address,t_bool)"
      },
      "t_mapping(t_bytes32,t_mapping(t_bytes32,t_mapping(t_uint16,t_bytes_storage)))": {
        "encoding": "mapping",
        "key": "t_bytes32",
        "label": "mapping(bytes32 => mapping(bytes32 => mapping(uint16 => bytes)))",
        "numberOfBytes": "32",
        "value": "t_mapping(t_bytes32,t_mapping(t_uint16,t_bytes_storage))"
      },
      "t_mapping(t_bytes32,t_mapping(t_bytes32,t_uint16))": {
        "encoding": "mapping",
        "key": "t_bytes32",
        "label": "mapping(bytes32 => mapping(bytes32 => uint16))",
        "numberOfBytes": "32",
        "value": "t_mapping(t_bytes32,t_uint16)"
      },
      "t_mapping(t_bytes32,t_mapping(t_bytes4,t_address))": {
        "encoding": "mapping",
        "key": "t_bytes32",
        "label": "mapping(bytes32 => mapping(bytes4 => address))",
        "numberOfBytes": "32",
        "value": "t_mapping(t_bytes4,t_address)"
      },
      "t_mapping(t_bytes32,t_mapping(t_string_memory_ptr,t_string_storage))": {
        "encoding": "mapping",
        "key": "t_bytes32",
        "label": "mapping(bytes32 => mapping(string => string))",
        "numberOfBytes": "32",
        "value": "t_mapping(t_string_memory_ptr,t_string_storage)"
      },
      "t_mapping(t_bytes32,t_mapping(t_uint16,t_bytes_storage))": {
        "encoding": "mapping",
        "key": "t_bytes32",
        "label": "mapping(bytes32 => mapping(uint16 => bytes))",
        "numberOfBytes": "32",
        "value": "t_mapping(t_uint16,t_bytes_storage)"
      },
      "t_mapping(t_bytes32,t_mapping(t_uint256,t_bytes_storage))": {
        "encoding": "mapping",
        "key": "t_bytes32",
        "label": "mapping(bytes32 => mapping(uint256 => bytes))",
        "numberOfBytes": "32",
        "value": "t_mapping(t_uint256,t_bytes_storage)"
      },
      "t_mapping(t_bytes32,t_string_storage)": {
        "encoding": "mapping",
        "key": "t_bytes32",
        "label": "mapping(bytes32 => string)",
        "numberOfBytes": "32",
        "value": "t_string_storage"
      },
      "t_mapping(t_bytes32,t_struct(PublicKey)17077_storage)": {
        "encoding": "mapping",
        "key": "t_bytes32",
        "label": "mapping(bytes32 => struct PubkeyResolver.PublicKey)",
        "numberOfBytes": "32",
        "value": "t_struct(PublicKey)17077_storage"
      },
      "t_mapping(t_bytes32,t_uint16)": {
        "encoding": "mapping",
        "key": "t_bytes32",
        "label": "mapping(bytes32 => uint16)",
        "numberOfBytes": "32",
        "value": "t_uint16"
      },
      "t_mapping(t_bytes32,t_uint64)": {
        "encoding": "mapping",
        "key": "t_bytes32",
        "label": "mapping(bytes32 => uint64)",
        "numberOfBytes": "32",
        "value": "t_uint64"
      },
      "t_mapping(t_bytes4,t_address)": {
        "encoding": "mapping",
        "key": "t_bytes4",
        "label": "mapping(bytes4 => address)",
        "numberOfBytes": "32",
        "value": "t_address"
      },
      "t_mapping(t_string_memory_ptr,t_string_storage)": {
        "encoding": "mapping",
        "key": "t_string_memory_ptr",
        "label": "mapping(string => string)",
        "numberOfBytes": "32",
        "value": "t_string_storage"
      },
      "t_mapping(t_uint16,t_bytes_storage)": {
        "encoding": "mapping",
        "key": "t_uint16",
        "label": "mapping(uint16 => bytes)",
        "numberOfBytes": "32",
        "value": "t_bytes_storage"
      },
      "t_mapping(t_uint256,t_bytes_storage)": {
        "encoding": "mapping",
        "key": "t_uint256",
        "label": "mapping(uint256 => bytes)",
        "numberOfBytes": "32",
        "value": "t_bytes_storage"
      },
      "t_mapping(t_uint64,t_mapping(t_bytes32,t_bytes_storage))": {
        "encoding": "mapping",
        "key": "t_uint64",
        "label": "mapping(uint64 => mapping(bytes32 => bytes))",
        "numberOfBytes": "32",
        "value": "t_mapping(t_bytes32,t_bytes_storage)"
      },
      "t_mapping(t_uint64,t_mapping(t_bytes32,t_mapping(t_bytes32,t_mapping(t_uint16,t_bytes_storage))))": {
        "encoding": "mapping",
        "key": "t_uint64",
        "label": "mapping(uint64 => mapping(bytes32 => mapping(bytes32 => mapping(uint16 => bytes))))",
        "numberOfBytes": "32",
        "value": "t_mapping(t_bytes32,t_mapping(t_bytes32,t_mapping(t_uint16,t_bytes_storage)))"
      },
      "t_mapping(t_uint64,t_mapping(t_bytes32,t_mapping(t_bytes32,t_uint16)))": {
        "encoding": "mapping",
        "key": "t_uint64",
        "label": "mapping(uint64 => mapping(bytes32 => mapping(bytes32 => uint16)))",
        "numberOfBytes": "32",
        "value": "t_mapping(t_bytes32,t_mapping(t_bytes32,t_uint16))"
      },
      "t_mapping(t_uint64,t_mapping(t_bytes32,t_mapping(t_bytes4,t_address)))": {
        "encoding": "mapping",
        "key": "t_uint64",
        "label": "mapping(uint64 => mapping(bytes32 => mapping(bytes4 => address)))",
        "numberOfBytes": "32",
        "value": "t_mapping(t_bytes32,t_mapping(t_bytes4,t_address))"
      },
      "t_mapping(t_uint64,t_mapping(t_bytes32,t_mapping(t_string_memory_ptr,t_string_storage)))": {
        "encoding": "mapping",
        "key": "t_uint64",
        "label": "mapping(uint64 => mapping(bytes32 => mapping(string => string)))",
        "numberOfBytes": "32",
        "value": "t_mapping(t_bytes32,t_mapping(t_string_memory_ptr,t_string_storage))"
      },
      "t_mapping(t_uint64,t_mapping(t_bytes32,t_mapping(t_uint256,t_bytes_storage)))": {
        "encoding": "mapping",
        "key": "t_uint64",
        "label": "mapping(uint64 => mapping(bytes32 => mapping(uint256 => bytes)))",
        "numberOfBytes": "32",
        "value": "t_mapping(t_bytes32,t_mapping(t_uint256,t_bytes_storage))"
      },
      "t_mapping(t_uint64,t_mapping(t_bytes32,t_string_storage))": {
        "encoding": "mapping",
        "key": "t_uint64",
        "label": "mapping(uint64 => mapping(bytes32 => string))",
        "numberOfBytes": "32",
        "value": "t_mapping(t_bytes32,t_string_storage)"
      },
      "t_mapping(t_uint64,t_mapping(t_bytes32,t_struct(PublicKey)17077_storage))": {
        "encoding": "mapping",
        "key": "t_uint64",
        "label": "mapping(uint64 => mapping(bytes32 => struct PubkeyResolver.PublicKey))",
        "numberOfBytes": "32",
        "value": "t_mapping(t_bytes32,t_struct(PublicKey)17077_storage)"
      },
      "t_string_memory_ptr": {
        "encoding": "bytes",
        "label": "string",
        "numberOfBytes": "32"
      },
      "t_string_storage": {
        "encoding": "bytes",
        "label": "string",
        "numberOfBytes": "32"
      },
      "t_struct(PublicKey)17077_storage": {
        "encoding": "inplace",
        "label": "struct PubkeyResolver.PublicKey",
        "members": [
          {
            "astId": 17074,
            "contract": "contracts/resolvers/PublicResolver.sol:PublicResolver",
            "label": "x",
            "offset": 0,
            "slot": "0",
            "type": "t_bytes32"
          },
          {
            "astId": 17076,
            "contract": "contracts/resolvers/PublicResolver.sol:PublicResolver",
            "label": "y",
            "offset": 0,
            "slot": "1",
            "type": "t_bytes32"
          }
        ],
        "numberOfBytes": "64"
      },
      "t_uint16": {
        "encoding": "inplace",
        "label": "uint16",
        "numberOfBytes": "2"
      },
      "t_uint256": {
        "encoding": "inplace",
        "label": "uint256",
        "numberOfBytes": "32"
      },
      "t_uint64": {
        "encoding": "inplace",
        "label": "uint64",
        "numberOfBytes": "8"
      }
    }
  }
}