{
  "address": "0xeAe12F4c14786595aAB3c57703955e09DB35A737",
  "abi": [
    {
      "inputs": [
        {
          "internalType": "address payable",
          "name": "_tellorAddress",
          "type": "address"
        }
      ],
      "stateMutability": "nonpayable",
      "type": "constructor"
    },
    {
      "inputs": [],
      "name": "PriceOutdated",
      "type": "error"
    },
    {
      "inputs": [
        {
          "internalType": "bytes32",
          "name": "_queryId",
          "type": "bytes32"
        }
      ],
      "name": "getCurrentValue",
      "outputs": [
        {
          "internalType": "bool",
          "name": "_ifRetrieve",
          "type": "bool"
        },
        {
          "internalType": "bytes",
          "name": "_value",
          "type": "bytes"
        },
        {
          "internalType": "uint256",
          "name": "_timestampRetrieved",
          "type": "uint256"
        }
      ],
      "stateMutability": "view",
      "type": "function"
    },
    {
      "inputs": [
        {
          "internalType": "bytes32",
          "name": "_queryId",
          "type": "bytes32"
        },
        {
          "internalType": "uint256",
          "name": "_timestamp",
          "type": "uint256"
        }
      ],
      "name": "getDataAfter",
      "outputs": [
        {
          "internalType": "bytes",
          "name": "_value",
          "type": "bytes"
        },
        {
          "internalType": "uint256",
          "name": "_timestampRetrieved",
          "type": "uint256"
        }
      ],
      "stateMutability": "view",
      "type": "function"
    },
    {
      "inputs": [
        {
          "internalType": "bytes32",
          "name": "_queryId",
          "type": "bytes32"
        },
        {
          "internalType": "uint256",
          "name": "_timestamp",
          "type": "uint256"
        }
      ],
      "name": "getDataBefore",
      "outputs": [
        {
          "internalType": "bytes",
          "name": "_value",
          "type": "bytes"
        },
        {
          "internalType": "uint256",
          "name": "_timestampRetrieved",
          "type": "uint256"
        }
      ],
      "stateMutability": "view",
      "type": "function"
    },
    {
      "inputs": [
        {
          "internalType": "bytes32",
          "name": "_queryId",
          "type": "bytes32"
        },
        {
          "internalType": "uint256",
          "name": "_timestamp",
          "type": "uint256"
        }
      ],
      "name": "getIndexForDataAfter",
      "outputs": [
        {
          "internalType": "bool",
          "name": "_found",
          "type": "bool"
        },
        {
          "internalType": "uint256",
          "name": "_index",
          "type": "uint256"
        }
      ],
      "stateMutability": "view",
      "type": "function"
    },
    {
      "inputs": [
        {
          "internalType": "bytes32",
          "name": "_queryId",
          "type": "bytes32"
        },
        {
          "internalType": "uint256",
          "name": "_timestamp",
          "type": "uint256"
        }
      ],
      "name": "getIndexForDataBefore",
      "outputs": [
        {
          "internalType": "bool",
          "name": "_found",
          "type": "bool"
        },
        {
          "internalType": "uint256",
          "name": "_index",
          "type": "uint256"
        }
      ],
      "stateMutability": "view",
      "type": "function"
    },
    {
      "inputs": [
        {
          "internalType": "bytes32",
          "name": "_queryId",
          "type": "bytes32"
        },
        {
          "internalType": "uint256",
          "name": "_timestamp",
          "type": "uint256"
        },
        {
          "internalType": "uint256",
          "name": "_maxAge",
          "type": "uint256"
        },
        {
          "internalType": "uint256",
          "name": "_maxCount",
          "type": "uint256"
        }
      ],
      "name": "getMultipleValuesBefore",
      "outputs": [
        {
          "internalType": "bytes[]",
          "name": "_values",
          "type": "bytes[]"
        },
        {
          "internalType": "uint256[]",
          "name": "_timestamps",
          "type": "uint256[]"
        }
      ],
      "stateMutability": "view",
      "type": "function"
    },
    {
      "inputs": [
        {
          "internalType": "bytes32",
          "name": "_queryId",
          "type": "bytes32"
        }
      ],
      "name": "getNewValueCountbyQueryId",
      "outputs": [
        {
          "internalType": "uint256",
          "name": "",
          "type": "uint256"
        }
      ],
      "stateMutability": "view",
      "type": "function"
    },
    {
      "inputs": [
        {
          "internalType": "bytes32",
          "name": "_queryId",
          "type": "bytes32"
        },
        {
          "internalType": "uint256",
          "name": "_timestamp",
          "type": "uint256"
        }
      ],
      "name": "getReporterByTimestamp",
      "outputs": [
        {
          "internalType": "address",
          "name": "",
          "type": "address"
        }
      ],
      "stateMutability": "view",
      "type": "function"
    },
    {
      "inputs": [
        {
          "internalType": "bytes32",
          "name": "_queryId",
          "type": "bytes32"
        },
        {
          "internalType": "uint256",
          "name": "_index",
          "type": "uint256"
        }
      ],
      "name": "getTimestampbyQueryIdandIndex",
      "outputs": [
        {
          "internalType": "uint256",
          "name": "",
          "type": "uint256"
        }
      ],
      "stateMutability": "view",
      "type": "function"
    },
    {
      "inputs": [],
      "name": "idMappingContract",
      "outputs": [
        {
          "internalType": "contract IMappingContract",
          "name": "",
          "type": "address"
        }
      ],
      "stateMutability": "view",
      "type": "function"
    },
    {
      "inputs": [
        {
          "internalType": "bytes32",
          "name": "_queryId",
          "type": "bytes32"
        },
        {
          "internalType": "uint256",
          "name": "_timestamp",
          "type": "uint256"
        }
      ],
      "name": "isInDispute",
      "outputs": [
        {
          "internalType": "bool",
          "name": "",
          "type": "bool"
        }
      ],
      "stateMutability": "view",
      "type": "function"
    },
    {
      "inputs": [],
      "name": "latestAnswer",
      "outputs": [
        {
          "internalType": "int256",
          "name": "",
          "type": "int256"
        }
      ],
      "stateMutability": "view",
      "type": "function"
    },
    {
      "inputs": [
        {
          "internalType": "bytes32",
          "name": "_queryId",
          "type": "bytes32"
        },
        {
          "internalType": "uint256",
          "name": "_timestamp",
          "type": "uint256"
        }
      ],
      "name": "retrieveData",
      "outputs": [
        {
          "internalType": "bytes",
          "name": "",
          "type": "bytes"
        }
      ],
      "stateMutability": "view",
      "type": "function"
    },
    {
      "inputs": [
        {
          "internalType": "address",
          "name": "_addy",
          "type": "address"
        }
      ],
      "name": "setIdMappingContract",
      "outputs": [],
      "stateMutability": "nonpayable",
      "type": "function"
    },
    {
      "inputs": [],
      "name": "tellor",
      "outputs": [
        {
          "internalType": "contract ITellor",
          "name": "",
          "type": "address"
        }
      ],
      "stateMutability": "view",
      "type": "function"
    },
    {
      "inputs": [
        {
          "internalType": "bytes32",
          "name": "_id",
          "type": "bytes32"
        }
      ],
      "name": "valueFor",
      "outputs": [
        {
          "internalType": "int256",
          "name": "_value",
          "type": "int256"
        },
        {
          "internalType": "uint256",
          "name": "_timestamp",
          "type": "uint256"
        },
        {
          "internalType": "uint256",
          "name": "_statusCode",
          "type": "uint256"
        }
      ],
      "stateMutability": "view",
      "type": "function"
    }
  ],
  "transactionHash": "0x288ac31243691d9d645d46b79f54e38323d43196181bbfdd99324e64a8c07753",
  "args": [
    "0xD9157453E2668B2fc45b7A803D3FEF3642430cC0"
  ],
  "numDeployments": 1,
  "solcInputHash": "b8dd546933ce2c1836c93fd0cd974504",
  "bytecode": "0x608060405234801561001057600080fd5b5060405161161638038061161683398101604081905261002f91610054565b600080546001600160a01b0319166001600160a01b0392909216919091179055610084565b60006020828403121561006657600080fd5b81516001600160a01b038116811461007d57600080fd5b9392505050565b611583806100936000396000f3fe608060405234801561001057600080fd5b50600436106101005760003560e01c8063a792765f11610097578063e07c548611610066578063e07c54861461025c578063f66f49c31461026f578063f78eea8314610282578063fcd4a546146102b057600080fd5b8063a792765f146101f4578063adf1639d14610207578063c5958af914610229578063ce5e11bf1461024957600080fd5b806344e87f91116100d357806344e87f911461018757806350d25bcd146101aa57806364ee3c6d146101c057806377b03e0d146101e157600080fd5b8063193b505b146101055780631959ad5b1461011a578063294490851461014a5780632af8aae014610174575b600080fd5b6101186101133660046110ab565b6102d1565b005b60005461012d906001600160a01b031681565b6040516001600160a01b0390911681526020015b60405180910390f35b61015d6101583660046110cf565b610321565b604080519215158352602083019190915201610141565b60015461012d906001600160a01b031681565b61019a6101953660046110cf565b6103ba565b6040519015158152602001610141565b6101b2610451565b604051908152602001610141565b6101d36101ce3660046110cf565b6105a1565b604051610141929190611141565b6101b26101ef366004611163565b6105fa565b6101d36102023660046110cf565b610668565b61021a610215366004611163565b610708565b6040516101419392919061117c565b61023c6102373660046110cf565b610920565b60405161014191906111a7565b6101b26102573660046110cf565b610999565b61012d61026a3660046110cf565b610a27565b61015d61027d3660046110cf565b610ab5565b610295610290366004611163565b610c72565b60408051938452602084019290925290820152606001610141565b6102c36102be3660046111ba565b610d4d565b6040516101419291906111ec565b6001546001600160a01b0316156102e757600080fd5b600180547fffffffffffffffffffffffff0000000000000000000000000000000000000000166001600160a01b0392909216919091179055565b600080546040517f29449085000000000000000000000000000000000000000000000000000000008152600481018590526024810184905282916001600160a01b0316906329449085906044016040805180830381865afa15801561038a573d6000803e3d6000fd5b505050506040513d601f19601f820116820180604052508101906103ae919061129c565b915091505b9250929050565b600080546040517f44e87f9100000000000000000000000000000000000000000000000000000000815260048101859052602481018490526001600160a01b03909116906344e87f9190604401602060405180830381865afa158015610424573d6000803e3d6000fd5b505050506040513d601f19601f8201168201806040525081019061044891906112c8565b90505b92915050565b6000806040516020016104c990604080825260039082018190527f706c73000000000000000000000000000000000000000000000000000000000060608301526080602083018190528201527f757364000000000000000000000000000000000000000000000000000000000060a082015260c00190565b60408051601f19818403018152908290526104e6916020016112e3565b60408051601f1981840301815291905280516020820120909150600080610513836102026104b042611340565b9092509050620151806105268242611340565b111561055e576040517f3baab38100000000000000000000000000000000000000000000000000000000815260040160405180910390fd5b6000828060200190518101906105749190611353565b9050670de0b6b3a764000061058d826305f5e10061136c565b6105979190611383565b9550505050505090565b606060008060006105b28686610ab5565b91509150816105d957600060405180602001604052806000815250909350935050506103b3565b6105e38682610999565b92506105ef8684610920565b935050509250929050565b600080546040516377b03e0d60e01b8152600481018490526001600160a01b03909116906377b03e0d90602401602060405180830381865afa158015610644573d6000803e3d6000fd5b505050506040513d601f19601f8201168201806040525081019061044b9190611353565b600080546040517fa792765f0000000000000000000000000000000000000000000000000000000081526004810185905260248101849052606092916001600160a01b03169063a792765f90604401600060405180830381865afa1580156106d4573d6000803e3d6000fd5b505050506040513d6000823e601f3d908101601f191682016040526106fc9190810190611443565b90969095509350505050565b600080546040516377b03e0d60e01b815260048101849052606091839182916001600160a01b0316906377b03e0d90602401602060405180830381865afa158015610757573d6000803e3d6000fd5b505050506040513d601f19601f8201168201806040525081019061077b9190611353565b9050806000036107a1575050604080516020810190915260008082529250905081610919565b600080546001600160a01b031663ce5e11bf876107bf600186611340565b6040517fffffffff0000000000000000000000000000000000000000000000000000000060e085901b16815260048101929092526024820152604401602060405180830381865afa158015610818573d6000803e3d6000fd5b505050506040513d601f19601f8201168201806040525081019061083c9190611353565b60005460405163c5958af960e01b815260048101899052602481018390529192506001600160a01b03169063c5958af990604401600060405180830381865afa15801561088d573d6000803e3d6000fd5b505050506040513d6000823e601f3d908101601f191682016040526108b5919081019061149a565b604080516020808201909252600090528151908201209094507fc5d2460186f7233c927e7db2dcc703c0e500b653ca82273b7bfad8045d85a47014610901576001945091506109199050565b60408051602081019091526000808252955093509150505b9193909250565b60005460405163c5958af960e01b815260048101849052602481018390526060916001600160a01b03169063c5958af990604401600060405180830381865afa158015610971573d6000803e3d6000fd5b505050506040513d6000823e601f3d908101601f19168201604052610448919081019061149a565b600080546040517fce5e11bf00000000000000000000000000000000000000000000000000000000815260048101859052602481018490526001600160a01b039091169063ce5e11bf90604401602060405180830381865afa158015610a03573d6000803e3d6000fd5b505050506040513d601f19601f820116820180604052508101906104489190611353565b600080546040517fe07c548600000000000000000000000000000000000000000000000000000000815260048101859052602481018490526001600160a01b039091169063e07c548690604401602060405180830381865afa158015610a91573d6000803e3d6000fd5b505050506040513d601f19601f8201168201806040525081019061044891906114d7565b6000806000610ac3856105fa565b905080600003610ada5760008092509250506103b3565b80610ae4816114f4565b9150600190506000808381610af98a83610999565b9050888111610b1457600080975097505050505050506103b3565b610b1e8a84610999565b905088811115610b2d57600094505b8415610bdd576002610b3f848461150b565b610b499190611383565b9350610b558a85610999565b905088811115610b96576000610b708b610257600188611340565b9050898111610b825760009550610b90565b610b8d600186611340565b92505b50610b2d565b6000610ba78b61025787600161150b565b905089811115610bca576000955084610bbf8161151e565b955050809150610b90565b610bd585600161150b565b935050610b2d565b610be78a826103ba565b610bfd57600184975097505050505050506103b3565b610c078a826103ba565b8015610c1257508584105b15610c355783610c218161151e565b945050610c2e8a85610999565b9050610bfd565b8584148015610c495750610c498a826103ba565b15610c6057600080975097505050505050506103b3565b600184975097505050505050506103b3565b6001546040517f87a475fd000000000000000000000000000000000000000000000000000000008152600481018390526000918291829182916001600160a01b03909116906387a475fd90602401602060405180830381865afa158015610cdd573d6000803e3d6000fd5b505050506040513d601f19601f82011682018060405250810190610d019190611353565b90506060610d148261020242600161150b565b945090506000849003610d34576000806101949450945094505050610919565b6000610d3f8261103c565b9794965060c8955050505050565b606080600080610d618861027d888a611340565b9150915081610db2576040805160008082526020820190925290610d95565b6060815260200190600190039081610d805790505b506040805160008152602081019091529094509250611033915050565b6000610dbe8989610321565b909350905082610e11576040805160008082526020820190925290610df3565b6060815260200190600190039081610dde5790505b50604080516000815260208101909152909550935061103392505050565b60008060008867ffffffffffffffff811115610e2f57610e2f6113a5565b604051908082528060200260200182016040528015610e58578160200160208202803683370190505b5090505b8883108015610e7f57508482610e7386600161150b565b610e7d9190611340565b115b15610ee3576000610e948d6102578588611340565b9050610ea08d826103ba565b610ed05780828581518110610eb757610eb7611537565b602090810291909101015283610ecc8161151e565b9450505b82610eda8161151e565b93505050610e5c565b60008367ffffffffffffffff811115610efe57610efe6113a5565b604051908082528060200260200182016040528015610f3157816020015b6060815260200190600190039081610f1c5790505b50905060008467ffffffffffffffff811115610f4f57610f4f6113a5565b604051908082528060200260200182016040528015610f78578160200160208202803683370190505b50905060005b85811015611026578381610f93600189611340565b610f9d9190611340565b81518110610fad57610fad611537565b6020026020010151828281518110610fc757610fc7611537565b602002602001018181525050610ff68f838381518110610fe957610fe9611537565b6020026020010151610920565b83828151811061100857611008611537565b6020026020010181905250808061101e9061151e565b915050610f7e565b5090985096505050505050505b94509492505050565b6000805b825181101561108d5782818151811061105b5761105b611537565b016020015160f81c61106f8361010061136c565b611079919061150b565b9150806110858161151e565b915050611040565b50919050565b6001600160a01b03811681146110a857600080fd5b50565b6000602082840312156110bd57600080fd5b81356110c881611093565b9392505050565b600080604083850312156110e257600080fd5b50508035926020909101359150565b60005b8381101561110c5781810151838201526020016110f4565b50506000910152565b6000815180845261112d8160208601602086016110f1565b601f01601f19169290920160200192915050565b6040815260006111546040830185611115565b90508260208301529392505050565b60006020828403121561117557600080fd5b5035919050565b83151581526060602082015260006111976060830185611115565b9050826040830152949350505050565b6020815260006104486020830184611115565b600080600080608085870312156111d057600080fd5b5050823594602084013594506040840135936060013592509050565b6000604082016040835280855180835260608501915060608160051b8601019250602080880160005b8381101561124357605f19888703018552611231868351611115565b95509382019390820190600101611215565b50508584038187015286518085528782019482019350915060005b8281101561127a5784518452938101939281019260010161125e565b5091979650505050505050565b8051801515811461129757600080fd5b919050565b600080604083850312156112af57600080fd5b6112b883611287565b9150602083015190509250929050565b6000602082840312156112da57600080fd5b61044882611287565b60408152600960408201527f53706f745072696365000000000000000000000000000000000000000000000060608201526080602082015260006104486080830184611115565b634e487b7160e01b600052601160045260246000fd5b8181038181111561044b5761044b61132a565b60006020828403121561136557600080fd5b5051919050565b808202811582820484141761044b5761044b61132a565b6000826113a057634e487b7160e01b600052601260045260246000fd5b500490565b634e487b7160e01b600052604160045260246000fd5b600082601f8301126113cc57600080fd5b815167ffffffffffffffff808211156113e7576113e76113a5565b604051601f8301601f19908116603f0116810190828211818310171561140f5761140f6113a5565b8160405283815286602085880101111561142857600080fd5b6114398460208301602089016110f1565b9695505050505050565b60008060006060848603121561145857600080fd5b61146184611287565b9250602084015167ffffffffffffffff81111561147d57600080fd5b611489868287016113bb565b925050604084015190509250925092565b6000602082840312156114ac57600080fd5b815167ffffffffffffffff8111156114c357600080fd5b6114cf848285016113bb565b949350505050565b6000602082840312156114e957600080fd5b81516110c881611093565b6000816115035761150361132a565b506000190190565b8082018082111561044b5761044b61132a565b6000600182016115305761153061132a565b5060010190565b634e487b7160e01b600052603260045260246000fdfea2646970667358221220889ac4d2b50cbd470d6b1c1300a63870acb7c7a4765515dd7d3c19b155c3083864736f6c63430008110033",
  "devdoc": {
    "kind": "dev",
    "methods": {
      "getCurrentValue(bytes32)": {
        "details": "Allows the user to get the latest value for the queryId specified",
        "params": {
          "_queryId": "is the id to look up the value for"
        },
        "returns": {
          "_ifRetrieve": "bool true if non-zero value successfully retrieved",
          "_timestampRetrieved": "the retrieved value's timestamp",
          "_value": "the value retrieved"
        }
      },
      "getDataAfter(bytes32,uint256)": {
        "details": "Retrieves the next value for the queryId after the specified timestamp",
        "params": {
          "_queryId": "is the queryId to look up the value for",
          "_timestamp": "after which to search for next value"
        },
        "returns": {
          "_timestampRetrieved": "the value's timestamp",
          "_value": "the value retrieved"
        }
      },
      "getDataBefore(bytes32,uint256)": {
        "details": "Retrieves the latest value for the queryId before the specified timestamp",
        "params": {
          "_queryId": "is the queryId to look up the value for",
          "_timestamp": "before which to search for latest value"
        },
        "returns": {
          "_timestampRetrieved": "the value's timestamp",
          "_value": "the value retrieved"
        }
      },
      "getIndexForDataAfter(bytes32,uint256)": {
        "details": "Retrieves latest array index of data before the specified timestamp for the queryId",
        "params": {
          "_queryId": "is the queryId to look up the index for",
          "_timestamp": "is the timestamp before which to search for the latest index"
        },
        "returns": {
          "_found": "whether the index was found",
          "_index": "the latest index found before the specified timestamp"
        }
      },
      "getIndexForDataBefore(bytes32,uint256)": {
        "details": "Retrieves latest array index of data before the specified timestamp for the queryId",
        "params": {
          "_queryId": "is the queryId to look up the index for",
          "_timestamp": "is the timestamp before which to search for the latest index"
        },
        "returns": {
          "_found": "whether the index was found",
          "_index": "the latest index found before the specified timestamp"
        }
      },
      "getMultipleValuesBefore(bytes32,uint256,uint256,uint256)": {
        "details": "Retrieves multiple uint256 values before the specified timestamp",
        "params": {
          "_maxAge": "the maximum number of seconds before the _timestamp to search for values",
          "_maxCount": "the maximum number of values to return",
          "_queryId": "the unique id of the data query",
          "_timestamp": "the timestamp before which to search for values"
        },
        "returns": {
          "_timestamps": "the timestamps of the values retrieved",
          "_values": "the values retrieved, ordered from oldest to newest"
        }
      },
      "getNewValueCountbyQueryId(bytes32)": {
        "details": "Counts the number of values that have been submitted for the queryId",
        "params": {
          "_queryId": "the id to look up"
        },
        "returns": {
          "_0": "uint256 count of the number of values received for the queryId"
        }
      },
      "getReporterByTimestamp(bytes32,uint256)": {
        "details": "Returns the address of the reporter who submitted a value for a data ID at a specific time",
        "params": {
          "_queryId": "is ID of the specific data feed",
          "_timestamp": "is the timestamp to find a corresponding reporter for"
        },
        "returns": {
          "_0": "address of the reporter who reported the value for the data ID at the given timestamp"
        }
      },
      "getTimestampbyQueryIdandIndex(bytes32,uint256)": {
        "details": "Gets the timestamp for the value based on their index",
        "params": {
          "_index": "is the value index to look up",
          "_queryId": "is the id to look up"
        },
        "returns": {
          "_0": "uint256 timestamp"
        }
      },
      "isInDispute(bytes32,uint256)": {
        "details": "Determines whether a value with a given queryId and timestamp has been disputed",
        "params": {
          "_queryId": "is the value id to look up",
          "_timestamp": "is the timestamp of the value to look up"
        },
        "returns": {
          "_0": "bool true if queryId/timestamp is under dispute"
        }
      },
      "retrieveData(bytes32,uint256)": {
        "details": "Retrieve value from oracle based on queryId/timestamp",
        "params": {
          "_queryId": "being requested",
          "_timestamp": "to retrieve data/value from"
        },
        "returns": {
          "_0": "bytes value for query/timestamp submitted"
        }
      },
      "setIdMappingContract(address)": {
        "details": "allows dev to set mapping contract for valueFor (EIP2362)",
        "params": {
          "_addy": "address of mapping contract"
        }
      },
      "valueFor(bytes32)": {
        "details": "Retrieve most recent int256 value from oracle based on queryId",
        "params": {
          "_id": "being requested"
        },
        "returns": {
          "_statusCode": "200 if value found, 404 if not found",
          "_timestamp": "timestamp of most recent value",
          "_value": "most recent value submitted"
        }
      }
    },
    "version": 1
  },
  "userdoc": {
    "kind": "user",
    "methods": {},
    "version": 1
  },
  "storageLayout": {
    "storage": [
      {
        "astId": 1154,
        "contract": "contracts/tellor/TellorFlexOracle.sol:TellorFlexOracle",
        "label": "tellor",
        "offset": 0,
        "slot": "0",
        "type": "t_contract(ITellor)1020"
      },
      {
        "astId": 1157,
        "contract": "contracts/tellor/TellorFlexOracle.sol:TellorFlexOracle",
        "label": "idMappingContract",
        "offset": 0,
        "slot": "1",
        "type": "t_contract(IMappingContract)25"
      }
    ],
    "types": {
      "t_contract(IMappingContract)25": {
        "encoding": "inplace",
        "label": "contract IMappingContract",
        "numberOfBytes": "20"
      },
      "t_contract(ITellor)1020": {
        "encoding": "inplace",
        "label": "contract ITellor",
        "numberOfBytes": "20"
      }
    }
  }
}