{
  "address": "0x42F1De3f228960A073d8841AD46Bd76A5B2A8490",
  "abi": [
    {
      "inputs": [
        {
          "internalType": "address",
          "name": "_registry",
          "type": "address"
        },
        {
          "internalType": "string[]",
          "name": "_urls",
          "type": "string[]"
        }
      ],
      "stateMutability": "nonpayable",
      "type": "constructor"
    },
    {
      "inputs": [
        {
          "internalType": "address",
          "name": "sender",
          "type": "address"
        },
        {
          "internalType": "string[]",
          "name": "urls",
          "type": "string[]"
        },
        {
          "internalType": "bytes",
          "name": "callData",
          "type": "bytes"
        },
        {
          "internalType": "bytes4",
          "name": "callbackFunction",
          "type": "bytes4"
        },
        {
          "internalType": "bytes",
          "name": "extraData",
          "type": "bytes"
        }
      ],
      "name": "OffchainLookup",
      "type": "error"
    },
    {
      "anonymous": false,
      "inputs": [
        {
          "indexed": true,
          "internalType": "address",
          "name": "previousOwner",
          "type": "address"
        },
        {
          "indexed": true,
          "internalType": "address",
          "name": "newOwner",
          "type": "address"
        }
      ],
      "name": "OwnershipTransferred",
      "type": "event"
    },
    {
      "inputs": [
        {
          "internalType": "bytes",
          "name": "name",
          "type": "bytes"
        },
        {
          "internalType": "bytes",
          "name": "data",
          "type": "bytes"
        },
        {
          "internalType": "string[]",
          "name": "gateways",
          "type": "string[]"
        },
        {
          "internalType": "bytes4",
          "name": "callbackFunction",
          "type": "bytes4"
        },
        {
          "internalType": "bytes",
          "name": "metaData",
          "type": "bytes"
        }
      ],
      "name": "_resolveSingle",
      "outputs": [
        {
          "internalType": "bytes",
          "name": "",
          "type": "bytes"
        },
        {
          "internalType": "address",
          "name": "",
          "type": "address"
        }
      ],
      "stateMutability": "view",
      "type": "function"
    },
    {
      "inputs": [
        {
          "internalType": "uint256",
          "name": "",
          "type": "uint256"
        }
      ],
      "name": "batchGatewayURLs",
      "outputs": [
        {
          "internalType": "string",
          "name": "",
          "type": "string"
        }
      ],
      "stateMutability": "view",
      "type": "function"
    },
    {
      "inputs": [
        {
          "internalType": "bytes",
          "name": "name",
          "type": "bytes"
        }
      ],
      "name": "findResolver",
      "outputs": [
        {
          "internalType": "contract Resolver",
          "name": "",
          "type": "address"
        },
        {
          "internalType": "bytes32",
          "name": "",
          "type": "bytes32"
        }
      ],
      "stateMutability": "view",
      "type": "function"
    },
    {
      "inputs": [],
      "name": "owner",
      "outputs": [
        {
          "internalType": "address",
          "name": "",
          "type": "address"
        }
      ],
      "stateMutability": "view",
      "type": "function"
    },
    {
      "inputs": [],
      "name": "registry",
      "outputs": [
        {
          "internalType": "contract ENS",
          "name": "",
          "type": "address"
        }
      ],
      "stateMutability": "view",
      "type": "function"
    },
    {
      "inputs": [],
      "name": "renounceOwnership",
      "outputs": [],
      "stateMutability": "nonpayable",
      "type": "function"
    },
    {
      "inputs": [
        {
          "internalType": "bytes",
          "name": "name",
          "type": "bytes"
        },
        {
          "internalType": "bytes",
          "name": "data",
          "type": "bytes"
        },
        {
          "internalType": "string[]",
          "name": "gateways",
          "type": "string[]"
        }
      ],
      "name": "resolve",
      "outputs": [
        {
          "internalType": "bytes",
          "name": "",
          "type": "bytes"
        },
        {
          "internalType": "address",
          "name": "",
          "type": "address"
        }
      ],
      "stateMutability": "view",
      "type": "function"
    },
    {
      "inputs": [
        {
          "internalType": "bytes",
          "name": "name",
          "type": "bytes"
        },
        {
          "internalType": "bytes[]",
          "name": "data",
          "type": "bytes[]"
        }
      ],
      "name": "resolve",
      "outputs": [
        {
          "internalType": "bytes[]",
          "name": "",
          "type": "bytes[]"
        },
        {
          "internalType": "address",
          "name": "",
          "type": "address"
        }
      ],
      "stateMutability": "view",
      "type": "function"
    },
    {
      "inputs": [
        {
          "internalType": "bytes",
          "name": "name",
          "type": "bytes"
        },
        {
          "internalType": "bytes[]",
          "name": "data",
          "type": "bytes[]"
        },
        {
          "internalType": "string[]",
          "name": "gateways",
          "type": "string[]"
        }
      ],
      "name": "resolve",
      "outputs": [
        {
          "internalType": "bytes[]",
          "name": "",
          "type": "bytes[]"
        },
        {
          "internalType": "address",
          "name": "",
          "type": "address"
        }
      ],
      "stateMutability": "view",
      "type": "function"
    },
    {
      "inputs": [
        {
          "internalType": "bytes",
          "name": "name",
          "type": "bytes"
        },
        {
          "internalType": "bytes",
          "name": "data",
          "type": "bytes"
        }
      ],
      "name": "resolve",
      "outputs": [
        {
          "internalType": "bytes",
          "name": "",
          "type": "bytes"
        },
        {
          "internalType": "address",
          "name": "",
          "type": "address"
        }
      ],
      "stateMutability": "view",
      "type": "function"
    },
    {
      "inputs": [
        {
          "internalType": "bytes",
          "name": "response",
          "type": "bytes"
        },
        {
          "internalType": "bytes",
          "name": "extraData",
          "type": "bytes"
        }
      ],
      "name": "resolveCallback",
      "outputs": [
        {
          "internalType": "bytes[]",
          "name": "",
          "type": "bytes[]"
        },
        {
          "internalType": "address",
          "name": "",
          "type": "address"
        }
      ],
      "stateMutability": "view",
      "type": "function"
    },
    {
      "inputs": [
        {
          "internalType": "bytes",
          "name": "response",
          "type": "bytes"
        },
        {
          "internalType": "bytes",
          "name": "extraData",
          "type": "bytes"
        }
      ],
      "name": "resolveSingleCallback",
      "outputs": [
        {
          "internalType": "bytes",
          "name": "",
          "type": "bytes"
        },
        {
          "internalType": "address",
          "name": "",
          "type": "address"
        }
      ],
      "stateMutability": "view",
      "type": "function"
    },
    {
      "inputs": [
        {
          "internalType": "bytes",
          "name": "reverseName",
          "type": "bytes"
        },
        {
          "internalType": "string[]",
          "name": "gateways",
          "type": "string[]"
        }
      ],
      "name": "reverse",
      "outputs": [
        {
          "internalType": "string",
          "name": "",
          "type": "string"
        },
        {
          "internalType": "address",
          "name": "",
          "type": "address"
        },
        {
          "internalType": "address",
          "name": "",
          "type": "address"
        },
        {
          "internalType": "address",
          "name": "",
          "type": "address"
        }
      ],
      "stateMutability": "view",
      "type": "function"
    },
    {
      "inputs": [
        {
          "internalType": "bytes",
          "name": "reverseName",
          "type": "bytes"
        }
      ],
      "name": "reverse",
      "outputs": [
        {
          "internalType": "string",
          "name": "",
          "type": "string"
        },
        {
          "internalType": "address",
          "name": "",
          "type": "address"
        },
        {
          "internalType": "address",
          "name": "",
          "type": "address"
        },
        {
          "internalType": "address",
          "name": "",
          "type": "address"
        }
      ],
      "stateMutability": "view",
      "type": "function"
    },
    {
      "inputs": [
        {
          "internalType": "bytes",
          "name": "response",
          "type": "bytes"
        },
        {
          "internalType": "bytes",
          "name": "extraData",
          "type": "bytes"
        }
      ],
      "name": "reverseCallback",
      "outputs": [
        {
          "internalType": "string",
          "name": "",
          "type": "string"
        },
        {
          "internalType": "address",
          "name": "",
          "type": "address"
        },
        {
          "internalType": "address",
          "name": "",
          "type": "address"
        },
        {
          "internalType": "address",
          "name": "",
          "type": "address"
        }
      ],
      "stateMutability": "view",
      "type": "function"
    },
    {
      "inputs": [
        {
          "internalType": "string[]",
          "name": "_urls",
          "type": "string[]"
        }
      ],
      "name": "setGatewayURLs",
      "outputs": [],
      "stateMutability": "nonpayable",
      "type": "function"
    },
    {
      "inputs": [
        {
          "internalType": "bytes4",
          "name": "interfaceId",
          "type": "bytes4"
        }
      ],
      "name": "supportsInterface",
      "outputs": [
        {
          "internalType": "bool",
          "name": "",
          "type": "bool"
        }
      ],
      "stateMutability": "view",
      "type": "function"
    },
    {
      "inputs": [
        {
          "internalType": "address",
          "name": "newOwner",
          "type": "address"
        }
      ],
      "name": "transferOwnership",
      "outputs": [],
      "stateMutability": "nonpayable",
      "type": "function"
    }
  ],
  "transactionHash": "0xfa6a4a11e4137cc9bcc7784cd1c7f6dd40a9bc2166df17bcf55e75bc0a4b4e6f",
  "args": [
    "0x80ACc6Ff73148F70547B286FE06Af8ea81adE15D",
    []
  ],
  "numDeployments": 1,
  "solcInputHash": "84e83a11e26171857eac9dd182ca512d",
  "bytecode": "0x60a06040523480156200001157600080fd5b50604051620038df380380620038df8339810160408190526200003491620001da565b6200003f336200006a565b6001600160a01b038216608052805162000061906001906020840190620000ba565b5050506200049c565b600080546001600160a01b038381166001600160a01b0319831681178455604051919092169283917f8be0079c531659141344cd1fd0a4f28419497f9722a3daafe3b4186f6b6457e09190a35050565b82805482825590600052602060002090810192821562000105579160200282015b82811115620001055782518290620000f49082620003d0565b5091602001919060010190620000db565b506200011392915062000117565b5090565b80821115620001135760006200012e828262000138565b5060010162000117565b508054620001469062000341565b6000825580601f1062000157575050565b601f0160209004906000526020600020908101906200017791906200017a565b50565b5b808211156200011357600081556001016200017b565b634e487b7160e01b600052604160045260246000fd5b604051601f8201601f191681016001600160401b0381118282101715620001d257620001d262000191565b604052919050565b6000806040808486031215620001ef57600080fd5b83516001600160a01b03811681146200020757600080fd5b602085810151919450906001600160401b03808211156200022757600080fd5b8187019150601f88818401126200023d57600080fd5b82518281111562000252576200025262000191565b8060051b62000263868201620001a7565b918252848101860191868101908c8411156200027e57600080fd5b87870192505b838310156200032e578251868111156200029e5760008081fd5b8701603f81018e13620002b15760008081fd5b8881015187811115620002c857620002c862000191565b620002db818801601f19168b01620001a7565b8181528f8c838501011115620002f15760008081fd5b60005b8281101562000311578381018d01518282018d01528b01620002f4565b5060009181018b0191909152835250918701919087019062000284565b8099505050505050505050509250929050565b600181811c908216806200035657607f821691505b6020821081036200037757634e487b7160e01b600052602260045260246000fd5b50919050565b601f821115620003cb57600081815260208120601f850160051c81016020861015620003a65750805b601f850160051c820191505b81811015620003c757828155600101620003b2565b5050505b505050565b81516001600160401b03811115620003ec57620003ec62000191565b6200040481620003fd845462000341565b846200037d565b602080601f8311600181146200043c5760008415620004235750858301515b600019600386901b1c1916600185901b178555620003c7565b600085815260208120601f198616915b828110156200046d578886015182559484019460019091019084016200044c565b50858210156200048c5787850151600019600388901b60f8161c191681555b5050505050600190811b01905550565b608051613420620004bf600039600081816101ea015261143401526134206000f3fe608060405234801561001057600080fd5b50600436106101365760003560e01c80638e5ea8df116100b2578063b241d0d311610081578063e0a8541211610066578063e0a85412146102e6578063ec11c823146102f9578063f2fde38b1461030c57600080fd5b8063b241d0d3146102c0578063b4a85801146102d357600080fd5b80638e5ea8df146102485780639061b9231461025b578063a1cbcbaf1461026e578063a6b16419146102a057600080fd5b8063715018a6116101095780637b103999116100ee5780637b103999146101e55780638da5cb5b146102245780638e25a0f31461023557600080fd5b8063715018a6146101c857806376286c00146101d257600080fd5b806301ffc9a71461013b5780630667cfea14610163578063206c74c9146101845780636dc4fb73146101a5575b600080fd5b61014e6101493660046121f9565b61031f565b60405190151581526020015b60405180910390f35b610176610171366004612419565b61036f565b60405161015a9291906124f7565b6101976101923660046125a2565b6103a4565b60405161015a92919061260b565b6101b86101b336600461269e565b610492565b60405161015a949392919061270a565b6101d0610578565b005b6101976101e0366004612746565b61058c565b61020c7f000000000000000000000000000000000000000000000000000000000000000081565b6040516001600160a01b03909116815260200161015a565b6000546001600160a01b031661020c565b6101766102433660046127a5565b6105b4565b6101d061025636600461286b565b61064a565b6101766102693660046128a8565b610669565b61028161027c366004612907565b610762565b604080516001600160a01b03909316835260208301919091520161015a565b6102b36102ae366004612949565b610783565b60405161015a9190612962565b6101b86102ce366004612975565b61082f565b6101976102e136600461269e565b610939565b6101766102f436600461269e565b61097d565b6101b8610307366004612907565b6109e1565b6101d061031a3660046129e9565b610ad6565b60006001600160e01b03198216639061b92360e01b148061036957507f01ffc9a7000000000000000000000000000000000000000000000000000000006001600160e01b03198316145b92915050565b606060006103978686868663e0a8541260e01b604051806020016040528060008152506105b4565b9150915094509492505050565b606060006104858585856001805480602002602001604051908101604052809291908181526020016000905b8282101561047c5783829060005260206000200180546103ef90612a06565b80601f016020809104026020016040519081016040528092919081815260200182805461041b90612a06565b80156104685780601f1061043d57610100808354040283529160200191610468565b820191906000526020600020905b81548152906001019060200180831161044b57829003601f168201915b5050505050815260200190600101906103d0565b5050505061058c565b915091505b935093915050565b606060008080808080806104c98c8c8c8c7f6dc4fb7300000000000000000000000000000000000000000000000000000000610b6b565b935093509350935060008151111561053b57600080828060200190518101906104f29190612a85565b9150915060008660008151811061050b5761050b612ad7565b60200260200101518060200190518101906105269190612aed565b929a50919850965092945061056d9350505050565b6105608460008151811061055157610551612ad7565b60200260200101518484610edf565b9750975097509750505050505b945094509450949050565b610580611040565b61058a600061109a565b565b606060006103978686868663b4a8580160e01b60405180602001604052806000815250611102565b6040805160018082528183019092526060916000918291816020015b60608152602001906001900390816105d057905050905086816000815181106105fb576105fb612ad7565b60200260200101819052506000806106178b8b858b8b8b611102565b915091508160008151811061062e5761062e612ad7565b602002602001015181945094505050505b965096945050505050565b610652611040565b8051610665906001906020840190612126565b5050565b606060006104858585856001805480602002602001604051908101604052809291908181526020016000905b828210156107415783829060005260206000200180546106b490612a06565b80601f01602080910402602001604051908101604052809291908181526020018280546106e090612a06565b801561072d5780601f106107025761010080835404028352916020019161072d565b820191906000526020600020905b81548152906001019060200180831161071057829003601f168201915b505050505081526020019060010190610695565b5050505063e0a8541260e01b604051806020016040528060008152506105b4565b60008060008061077486866000611205565b909450925050505b9250929050565b6001818154811061079357600080fd5b9060005260206000200160009150905080546107ae90612a06565b80601f01602080910402602001604051908101604052809291908181526020018280546107da90612a06565b80156108275780601f106107fc57610100808354040283529160200191610827565b820191906000526020600020905b81548152906001019060200180831161080a57829003601f168201915b505050505081565b606060008060008061087b600089898080601f01602080910402602001604051908101604052809392919081815260200183838082843760009201919091525092939250506114d19050565b60405160240161088d91815260200190565b60408051601f19818403018152918152602080830180516001600160e01b03167f691f343100000000000000000000000000000000000000000000000000000000179052815190810190915260008082529192508190610916908b908b9086908c907f6dc4fb7300000000000000000000000000000000000000000000000000000000906105b4565b9150915061092582828a610edf565b965096509650965050505093509350935093565b60606000808061096c888888887fb4a8580100000000000000000000000000000000000000000000000000000000610b6b565b50919a909950975050505050505050565b6060600080806109b0888888887fe0a8541200000000000000000000000000000000000000000000000000000000610b6b565b505091509150816000815181106109c9576109c9612ad7565b60200260200101518193509350505094509492505050565b60606000806000610ac486866001805480602002602001604051908101604052809291908181526020016000905b82821015610abb578382906000526020600020018054610a2e90612a06565b80601f0160208091040260200160405190810160405280929190818152602001828054610a5a90612a06565b8015610aa75780601f10610a7c57610100808354040283529160200191610aa7565b820191906000526020600020905b815481529060010190602001808311610a8a57829003601f168201915b505050505081526020019060010190610a0f565b5050505061082f565b93509350935093505b92959194509250565b610ade611040565b6001600160a01b038116610b5f5760405162461bcd60e51b815260206004820152602660248201527f4f776e61626c653a206e6577206f776e657220697320746865207a65726f206160448201527f646472657373000000000000000000000000000000000000000000000000000060648201526084015b60405180910390fd5b610b688161109a565b50565b60606000606080610bc56040518060e0016040528060608152602001606081526020016060815260200160006001600160e01b031916815260200160006001600160a01b0316815260200160608152602001606081525090565b6001600160e01b031986166060820152600080610be48b8d018d612b18565b90925090506060610bf78a8c018c612bd0565b60a088019190915260408701919091526001600160a01b039091166080860152805183519192501015610c2957600080fd5b805167ffffffffffffffff811115610c4357610c4361225f565b604051908082528060200260200182016040528015610c7657816020015b6060815260200190600190039081610c615790505b506020850152805167ffffffffffffffff811115610c9657610c9661225f565b604051908082528060200260200182016040528015610cbf578160200160208202803683370190505b5060c08501526000805b8251811015610ead578251600090849083908110610ce957610ce9612ad7565b6020026020010151600001516001600160e01b03191603610d4857828181518110610d1657610d16612ad7565b60200260200101516020015186602001518281518110610d3857610d38612ad7565b6020026020010181905250610e9b565b848281518110610d5a57610d5a612ad7565b602002602001015115610dd15760018660c001518281518110610d7f57610d7f612ad7565b602002602001019015159081151581525050838281518110610da357610da3612ad7565b602002602001015186602001518281518110610dc157610dc1612ad7565b6020026020010181905250610e8d565b828181518110610de357610de3612ad7565b602002602001015160000151848381518110610e0157610e01612ad7565b6020026020010151848381518110610e1b57610e1b612ad7565b602002602001015160200151604051602401610e38929190612d2f565b604051602081830303815290604052906001600160e01b0319166020820180516001600160e01b03838183161783525050505086602001518281518110610e8157610e81612ad7565b60200260200101819052505b610e98826001612d73565b91505b80610ea581612d86565b915050610cc9565b50610eb785611590565b856080015186604001518760a001519850985098509850505050505095509550955095915050565b606060008060008087806020019051810190610efb9190612da0565b9050600080610f09836119a7565b91509150600081604051602401610f2291815260200190565b60408051601f19818403018152918152602080830180516001600160e01b03167f3b3b57de000000000000000000000000000000000000000000000000000000001790529051919250600091610f7c9187918e91016124f7565b6040516020818303038152906040529050600080306001600160a01b0316638e25a0f387868f636dc4fb7360e01b886040518663ffffffff1660e01b8152600401610fcb959493929190612e2a565b600060405180830381865afa158015610fe8573d6000803e3d6000fd5b505050506040513d6000823e601f3d908101601f191682016040526110109190810190612a85565b9150915060008280602001905181019061102a9190612aed565b979f979e50909b50959950505050505050505050565b6000546001600160a01b0316331461058a5760405162461bcd60e51b815260206004820181905260248201527f4f776e61626c653a2063616c6c6572206973206e6f7420746865206f776e65726044820152606401610b56565b600080546001600160a01b038381167fffffffffffffffffffffffff0000000000000000000000000000000000000000831681178455604051919092169283917f8be0079c531659141344cd1fd0a4f28419497f9722a3daafe3b4186f6b6457e09190a35050565b60606000806111118989610762565b5091508190506001600160a01b03811661112f57506000905061063f565b604080516101006020601f8c01819004028201810190925260e081018a81526111f7928291908d908d9081908501838280828437600092019190915250505090825250602081018a9052604081018990526001600160e01b0319881660608201526001600160a01b038516608082015260a08101879052895160c09091019067ffffffffffffffff8111156111c6576111c661225f565b6040519080825280602002602001820160405280156111ef578160200160208202803683370190505b509052611590565b925050965096945050505050565b600080600085858581811061121c5761121c612ad7565b919091013560f81c915050600081900361123d57506000915081905061048a565b60006112498286612d73565b611254906001612d73565b905060008260421480156112b257508787611270886001612d73565b81811061127f5761127f612ad7565b9050013560f81c60f81b7effffffffffffffffffffffffffffffffffffffffffffffffffffffffffffff1916605b60f81b145b8015611308575087876112c6600185612e93565b8181106112d5576112d5612ad7565b9050013560f81c60f81b7effffffffffffffffffffffffffffffffffffffffffffffffffffffffffffff1916605d60f81b145b1561138057611378600060408a8a6113218b6002612d73565b9061132d600189612e93565b9261133a93929190612ea6565b8080601f016020809104026020016040519081016040528093929190818152602001838380828437600092019190915250929493925050611c189050565b5090506113b2565b878761138d886001612d73565b61139992859290612ea6565b6040516113a7929190612ed0565b604051809103902090505b6000806113c08a8a86611205565b91509150600081846040516020016113e2929190918252602082015260400190565b60408051601f198184030181529082905280516020909101207f0178b8bf0000000000000000000000000000000000000000000000000000000082526004820181905291506000906001600160a01b037f00000000000000000000000000000000000000000000000000000000000000001690630178b8bf90602401602060405180830381865afa15801561147b573d6000803e3d6000fd5b505050506040513d601f19601f8201168201806040525081019061149f9190612aed565b90506001600160a01b038116156114bf579750955061048a945050505050565b50919a91995090975050505050505050565b60008060006114e08585611d43565b90925090508161155257600185516114f89190612e93565b84146115465760405162461bcd60e51b815260206004820152601d60248201527f6e616d65686173683a204a756e6b20617420656e64206f66206e616d650000006044820152606401610b56565b50600091506103699050565b61155c85826114d1565b6040805160208101929092528101839052606001604051602081830303815290604052805190602001209250505092915050565b6020810151516060906000808267ffffffffffffffff8111156115b5576115b561225f565b60405190808252806020026020018201604052801561161357816020015b611600604051806060016040528060006001600160a01b0316815260200160608152602001606081525090565b8152602001906001900390816115d35790505b50905060008367ffffffffffffffff8111156116315761163161225f565b60405190808252806020026020018201604052801561167757816020015b60408051808201909152600081526060602082015281526020019060019003908161164f5790505b5090508367ffffffffffffffff8111156116935761169361225f565b6040519080825280602002602001820160405280156116c657816020015b60608152602001906001900390816116b15790505b50865151608088015191965015906000906116e090611dfa565b905060005b868110156118d25760008960200151828151811061170557611705612ad7565b6020026020010151905060008a60c00151838151811061172757611727612ad7565b60200260200101519050801561175c57818a848151811061174a5761174a612ad7565b602002602001018190525050506118c0565b841580156117675750835b156117ad578a5160405161178091908490602401612d2f565b60408051601f198184030181529190526020810180516001600160e01b0316639061b92360e01b17905291505b6000806000806117c18f6080015187611e89565b9350935093509350831561183657828060200190518101906117e39190612f60565b8b8d815181106117f5576117f5612ad7565b6020026020010181905250818a888151811061181357611813612ad7565b602090810291909101015261182960018d612d73565b9b505050505050506118c0565b8080156118405750875b1561185c57828060200190518101906118599190612da0565b92505b828e888151811061186f5761186f612ad7565b60200260200101819052508e60200151878151811061189057611890612ad7565b60200260200101518a88815181106118aa576118aa612ad7565b6020026020010151602001819052505050505050505b806118ca81612d86565b9150506116e5565b50846000036118e657505050505050919050565b84845230886040015163a780bab660e01b86604051602401611908919061305b565b604051602081830303815290604052906001600160e01b0319166020820180516001600160e01b0383818316178352505050508a606001518b608001518c604001518d60a001518960405160200161196394939291906130db565b60408051601f19818403018152908290527f556f1830000000000000000000000000000000000000000000000000000000008252610b56959493929160040161318f565b8051606090600090819084906119be816002612d73565b67ffffffffffffffff8111156119d6576119d661225f565b6040519080825280601f01601f191660200182016040528015611a00576020820181803683370190505b50945060009350808403611a5d57600060f81b85600081518110611a2657611a26612ad7565b60200101907effffffffffffffffffffffffffffffffffffffffffffffffffffffffffffff1916908160001a905350505050915091565b60001981015b828181518110611a7557611a75612ad7565b01602001517fff00000000000000000000000000000000000000000000000000000000000000167f2e0000000000000000000000000000000000000000000000000000000000000003611b4f578360f81b868260010181518110611adb57611adb612ad7565b60200101907effffffffffffffffffffffffffffffffffffffffffffffffffffffffffffff1916908160001a90535084611b1c846001840160ff881661201b565b60408051602081019390935282015260600160405160208183030381529060405280519060200120945060009350611bb7565b600184019350828181518110611b6757611b67612ad7565b602001015160f81c60f81b868260010181518110611b8757611b87612ad7565b60200101907effffffffffffffffffffffffffffffffffffffffffffffffffffffffffffff1916908160001a9053505b8015611bc65760001901611a63565b5083611bd783600060ff871661201b565b6040805160208101939093528201526060016040516020818303038152906040528051906020012093508260f81b85600081518110611a2657611a26612ad7565b8251600090600190831115611c2c57600080fd5b611cd7565b6000603a8210602f83111615611c6757507fffffffffffffffffffffffffffffffffffffffffffffffffffffffffffffffd00190565b60478210604083111615611c9b57507fffffffffffffffffffffffffffffffffffffffffffffffffffffffffffffffc90190565b60678210606083111615611ccf57507fffffffffffffffffffffffffffffffffffffffffffffffffffffffffffffffa90190565b5060ff919050565b60208501845b84811015611d3957611cf48183015160001a611c31565b611d066001830184015160001a611c31565b60ff811460ff83141715611d1f57600094505050611d39565b60049190911b1760089490941b9390931792600201611cdd565b5050935093915050565b60008083518310611d965760405162461bcd60e51b815260206004820152601e60248201527f726561644c6162656c3a20496e646578206f7574206f6620626f756e647300006044820152606401610b56565b6000848481518110611daa57611daa612ad7565b016020015160f81c90508015611dd657611dcf85611dc9866001612d73565b8361201b565b9250611ddb565b600092505b611de58185612d73565b611df0906001612d73565b9150509250929050565b6040517f01ffc9a7000000000000000000000000000000000000000000000000000000008152639061b92360e01b60048201526000906001600160a01b038316906301ffc9a790602401602060405180830381865afa925050508015611e7d575060408051601f3d908101601f19168201909252611e7a918101906131c3565b60015b61036957506000919050565b60408051808201909152600080825260606020830181905290916000611eaf868661203f565b90503d8115611ed5576000611ec56000836120d1565b909550935060019150610acd9050565b60048110612011576000611eeb600060046120d1565b90506000611f036004611efe8186612e93565b6120d1565b90507f556f183000000000000000000000000000000000000000000000000000000000611f2f836131e0565b6001600160e01b03191603611ffd57600080600080600085806020019051810190611f5a9190613218565b945094509450945094508d6001600160a01b0316856001600160a01b031603611ff3576040518060600160405280866001600160a01b0316815260200185815260200184815250604051602001611fb191906132c8565b60408051601f198184030181528282019091526001600160e01b03199093168152602081019190915260019b50909950975060009650610acd95505050505050565b505050505061200e565b600096509450859250610acd915050565b50505b5092959194509250565b825160009061202a8385612d73565b111561203557600080fd5b5091016020012090565b60006001600160a01b0383163b6120be5760405162461bcd60e51b815260206004820152602e60248201527f4c6f774c6576656c43616c6c5574696c733a207374617469632063616c6c207460448201527f6f206e6f6e2d636f6e74726163740000000000000000000000000000000000006064820152608401610b56565b600080835160208501865afa9392505050565b60608167ffffffffffffffff8111156120ec576120ec61225f565b6040519080825280601f01601f191660200182016040528015612116576020820181803683370190505b5090508183602083013e92915050565b82805482825590600052602060002090810192821561216c579160200282015b8281111561216c578251829061215c908261332a565b5091602001919060010190612146565b5061217892915061217c565b5090565b808211156121785760006121908282612199565b5060010161217c565b5080546121a590612a06565b6000825580601f106121b5575050565b601f016020900490600052602060002090810190610b6891905b8082111561217857600081556001016121cf565b6001600160e01b031981168114610b6857600080fd5b60006020828403121561220b57600080fd5b8135612216816121e3565b9392505050565b60008083601f84011261222f57600080fd5b50813567ffffffffffffffff81111561224757600080fd5b60208301915083602082850101111561077c57600080fd5b634e487b7160e01b600052604160045260246000fd5b6040805190810167ffffffffffffffff811182821017156122985761229861225f565b60405290565b604051601f8201601f1916810167ffffffffffffffff811182821017156122c7576122c761225f565b604052919050565b600067ffffffffffffffff8211156122e9576122e961225f565b50601f01601f191660200190565b600061230a612305846122cf565b61229e565b905082815283838301111561231e57600080fd5b828260208301376000602084830101529392505050565b600082601f83011261234657600080fd5b612216838335602085016122f7565b600067ffffffffffffffff82111561236f5761236f61225f565b5060051b60200190565b600082601f83011261238a57600080fd5b8135602061239a61230583612355565b82815260059290921b840181019181810190868411156123b957600080fd5b8286015b8481101561240e57803567ffffffffffffffff8111156123dd5760008081fd5b8701603f810189136123ef5760008081fd5b6124008986830135604084016122f7565b8452509183019183016123bd565b509695505050505050565b6000806000806060858703121561242f57600080fd5b843567ffffffffffffffff8082111561244757600080fd5b6124538883890161221d565b9096509450602087013591508082111561246c57600080fd5b61247888838901612335565b9350604087013591508082111561248e57600080fd5b5061249b87828801612379565b91505092959194509250565b60005b838110156124c25781810151838201526020016124aa565b50506000910152565b600081518084526124e38160208601602086016124a7565b601f01601f19169290920160200192915050565b60408152600061250a60408301856124cb565b90506001600160a01b03831660208301529392505050565b600082601f83011261253357600080fd5b8135602061254361230583612355565b82815260059290921b8401810191818101908684111561256257600080fd5b8286015b8481101561240e57803567ffffffffffffffff8111156125865760008081fd5b6125948986838b0101612335565b845250918301918301612566565b6000806000604084860312156125b757600080fd5b833567ffffffffffffffff808211156125cf57600080fd5b6125db8783880161221d565b909550935060208601359150808211156125f457600080fd5b5061260186828701612522565b9150509250925092565b6000604082016040835280855180835260608501915060608160051b8601019250602080880160005b83811015612680577fffffffffffffffffffffffffffffffffffffffffffffffffffffffffffffffa088870301855261266e8683516124cb565b95509382019390820190600101612634565b50508394506001600160a01b03871681870152505050509392505050565b600080600080604085870312156126b457600080fd5b843567ffffffffffffffff808211156126cc57600080fd5b6126d88883890161221d565b909650945060208701359150808211156126f157600080fd5b506126fe8782880161221d565b95989497509550505050565b60808152600061271d60808301876124cb565b6001600160a01b0395861660208401529385166040830152509216606090920191909152919050565b6000806000806060858703121561275c57600080fd5b843567ffffffffffffffff8082111561277457600080fd5b6127808883890161221d565b9096509450602087013591508082111561279957600080fd5b61247888838901612522565b60008060008060008060a087890312156127be57600080fd5b863567ffffffffffffffff808211156127d657600080fd5b6127e28a838b0161221d565b909850965060208901359150808211156127fb57600080fd5b6128078a838b01612335565b9550604089013591508082111561281d57600080fd5b6128298a838b01612379565b94506060890135915061283b826121e3565b9092506080880135908082111561285157600080fd5b5061285e89828a01612335565b9150509295509295509295565b60006020828403121561287d57600080fd5b813567ffffffffffffffff81111561289457600080fd5b6128a084828501612379565b949350505050565b6000806000604084860312156128bd57600080fd5b833567ffffffffffffffff808211156128d557600080fd5b6128e18783880161221d565b909550935060208601359150808211156128fa57600080fd5b5061260186828701612335565b6000806020838503121561291a57600080fd5b823567ffffffffffffffff81111561293157600080fd5b61293d8582860161221d565b90969095509350505050565b60006020828403121561295b57600080fd5b5035919050565b60208152600061221660208301846124cb565b60008060006040848603121561298a57600080fd5b833567ffffffffffffffff808211156129a257600080fd5b6129ae8783880161221d565b909550935060208601359150808211156129c757600080fd5b5061260186828701612379565b6001600160a01b0381168114610b6857600080fd5b6000602082840312156129fb57600080fd5b8135612216816129d4565b600181811c90821680612a1a57607f821691505b602082108103612a3a57634e487b7160e01b600052602260045260246000fd5b50919050565b600082601f830112612a5157600080fd5b8151612a5f612305826122cf565b818152846020838601011115612a7457600080fd5b6128a08260208301602087016124a7565b60008060408385031215612a9857600080fd5b825167ffffffffffffffff811115612aaf57600080fd5b612abb85828601612a40565b9250506020830151612acc816129d4565b809150509250929050565b634e487b7160e01b600052603260045260246000fd5b600060208284031215612aff57600080fd5b8151612216816129d4565b8015158114610b6857600080fd5b60008060408385031215612b2b57600080fd5b823567ffffffffffffffff80821115612b4357600080fd5b818501915085601f830112612b5757600080fd5b81356020612b6761230583612355565b82815260059290921b84018101918181019089841115612b8657600080fd5b948201945b83861015612bad578535612b9e81612b0a565b82529482019490820190612b8b565b96505086013592505080821115612bc357600080fd5b50611df085828601612522565b60008060008060808587031215612be657600080fd5b612bf085356129d4565b84359350602085013567ffffffffffffffff80821115612c0f57600080fd5b612c1b88838901612379565b94506040870135915080821115612c3157600080fd5b612c3d88838901612335565b93506060870135915080821115612c5357600080fd5b818701915087601f830112612c6757600080fd5b8135612c7561230582612355565b8082825260208201915060208360051b86010192508a831115612c9757600080fd5b602085015b83811015612d1f578481351115612cb257600080fd5b803586016040601f19828f03011215612cca57600080fd5b612cd2612275565b6020820135612ce0816121e3565b8152604082013587811115612cf457600080fd5b612d038f602083860101612335565b6020830152508085525050602083019250602081019050612c9c565b50979a9699509497505050505050565b604081526000612d4260408301856124cb565b8281036020840152612d5481856124cb565b95945050505050565b634e487b7160e01b600052601160045260246000fd5b8082018082111561036957610369612d5d565b60006000198203612d9957612d99612d5d565b5060010190565b600060208284031215612db257600080fd5b815167ffffffffffffffff811115612dc957600080fd5b6128a084828501612a40565b600081518084526020808501808196508360051b8101915082860160005b85811015612e1d578284038952612e0b8483516124cb565b98850198935090840190600101612df3565b5091979650505050505050565b60a081526000612e3d60a08301886124cb565b8281036020840152612e4f81886124cb565b90508281036040840152612e638187612dd5565b90506001600160e01b0319851660608401528281036080840152612e8781856124cb565b98975050505050505050565b8181038181111561036957610369612d5d565b60008085851115612eb657600080fd5b83861115612ec357600080fd5b5050820193919092039150565b8183823760009101908152919050565b600082601f830112612ef157600080fd5b81516020612f0161230583612355565b82815260059290921b84018101918181019086841115612f2057600080fd5b8286015b8481101561240e57805167ffffffffffffffff811115612f445760008081fd5b612f528986838b0101612a40565b845250918301918301612f24565b600060208284031215612f7257600080fd5b815167ffffffffffffffff80821115612f8a57600080fd5b9083019060608286031215612f9e57600080fd5b604051606081018181108382111715612fb957612fb961225f565b6040528251612fc7816129d4565b8152602083015182811115612fdb57600080fd5b612fe787828601612ee0565b602083015250604083015182811115612fff57600080fd5b61300b87828601612a40565b60408301525095945050505050565b6001600160a01b03815116825260006020820151606060208501526130426060850182612dd5565b905060408301518482036040860152612d5482826124cb565b6000602080830181845280855180835260408601915060408160051b870101925083870160005b828110156130ce577fffffffffffffffffffffffffffffffffffffffffffffffffffffffffffffffc08886030184526130bc85835161301a565b94509285019290850190600101613082565b5092979650505050505050565b6001600160a01b0385168152600060206080818401526130fe6080840187612dd5565b60408482038186015261311182886124cb565b915084820360608601528186518084528484019150848160051b85010185890160005b8381101561317d57868303601f19018552815180516001600160e01b031916845288015188840187905261316a878501826124cb565b9589019593505090870190600101613134565b50909c9b505050505050505050505050565b6001600160a01b038616815260a0602082015260006131b160a0830187612dd5565b8281036040840152612e6381876124cb565b6000602082840312156131d557600080fd5b815161221681612b0a565b6000815160208301516001600160e01b0319808216935060048310156132105780818460040360031b1b83161693505b505050919050565b600080600080600060a0868803121561323057600080fd5b855161323b816129d4565b602087015190955067ffffffffffffffff8082111561325957600080fd5b61326589838a01612ee0565b9550604088015191508082111561327b57600080fd5b61328789838a01612a40565b945060608801519150613299826121e3565b6080880151919350808211156132ae57600080fd5b506132bb88828901612a40565b9150509295509295909350565b602081526000612216602083018461301a565b601f82111561332557600081815260208120601f850160051c810160208610156133025750805b601f850160051c820191505b818110156133215782815560010161330e565b5050505b505050565b815167ffffffffffffffff8111156133445761334461225f565b613358816133528454612a06565b846132db565b602080601f83116001811461338d57600084156133755750858301515b600019600386901b1c1916600185901b178555613321565b600085815260208120601f198616915b828110156133bc5788860151825594840194600190910190840161339d565b50858210156133da5787850151600019600388901b60f8161c191681555b5050505050600190811b0190555056fea2646970667358221220b19ec70c21c0161b9804ce201db0b0ace8a4a5baa6847d383895e46b9d03210164736f6c63430008110033",
  "devdoc": {
    "kind": "dev",
    "methods": {
      "findResolver(bytes)": {
        "details": "Finds a resolver by recursively querying the registry, starting at the longest name and progressively      removing labels until it finds a result.",
        "params": {
          "name": "The name to resolve, in DNS-encoded and normalised form."
        },
        "returns": {
          "_0": "The Resolver responsible for this name, and the namehash of the full name."
        }
      },
      "owner()": {
        "details": "Returns the address of the current owner."
      },
      "renounceOwnership()": {
        "details": "Leaves the contract without owner. It will not be possible to call `onlyOwner` functions anymore. Can only be called by the current owner. NOTE: Renouncing ownership will leave the contract without an owner, thereby removing any functionality that is only available to the owner."
      },
      "resolve(bytes,bytes)": {
        "details": "Performs PNS name resolution for the supplied name and resolution data.",
        "params": {
          "data": "The resolution data, as specified in PNSIP-10.",
          "name": "The name to resolve, in normalised and DNS-encoded form."
        },
        "returns": {
          "_0": "The result of resolving the name."
        }
      },
      "reverse(bytes,string[])": {
        "details": "Performs PNS name reverse resolution for the supplied reverse name.",
        "params": {
          "reverseName": "The reverse name to resolve, in normalised and DNS-encoded form. e.g. b6E040C9ECAaE172a89bD561c5F73e1C48d28cd9.addr.reverse"
        },
        "returns": {
          "_0": "The resolved name, the resolved address, the reverse resolver address, and the resolver address."
        }
      },
      "supportsInterface(bytes4)": {
        "details": "See {IERC165-supportsInterface}."
      },
      "transferOwnership(address)": {
        "details": "Transfers ownership of the contract to a new account (`newOwner`). Can only be called by the current owner."
      }
    },
    "version": 1
  },
  "userdoc": {
    "kind": "user",
    "methods": {},
    "notice": "The Universal Resolver is a contract that handles the work of resolving a name entirely onchain, making it possible to make a single smart contract call to resolve an ENS name.",
    "version": 1
  },
  "storageLayout": {
    "storage": [
      {
        "astId": 545,
        "contract": "contracts/utils/UniversalResolver.sol:UniversalResolver",
        "label": "_owner",
        "offset": 0,
        "slot": "0",
        "type": "t_address"
      },
      {
        "astId": 18390,
        "contract": "contracts/utils/UniversalResolver.sol:UniversalResolver",
        "label": "batchGatewayURLs",
        "offset": 0,
        "slot": "1",
        "type": "t_array(t_string_storage)dyn_storage"
      }
    ],
    "types": {
      "t_address": {
        "encoding": "inplace",
        "label": "address",
        "numberOfBytes": "20"
      },
      "t_array(t_string_storage)dyn_storage": {
        "base": "t_string_storage",
        "encoding": "dynamic_array",
        "label": "string[]",
        "numberOfBytes": "32"
      },
      "t_string_storage": {
        "encoding": "bytes",
        "label": "string",
        "numberOfBytes": "32"
      }
    }
  }
}